{
  "_format": "hh-sol-artifact-1",
  "contractName": "CloneFactory",
  "sourceName": "contracts/CloneFactory.sol",
  "abi": [
    {
      "inputs": [
        {
          "internalType": "address",
          "name": "_lmn",
          "type": "address"
        },
        {
          "internalType": "address",
          "name": "_validator",
          "type": "address"
        }
      ],
      "stateMutability": "nonpayable",
      "type": "constructor"
    },
    {
      "anonymous": false,
      "inputs": [
        {
          "indexed": true,
          "internalType": "address",
          "name": "_address",
          "type": "address"
        }
      ],
      "name": "clonefactoryContractPurchased",
      "type": "event"
    },
    {
      "anonymous": false,
      "inputs": [
        {
          "indexed": true,
          "internalType": "address",
          "name": "_address",
          "type": "address"
        },
        {
          "indexed": false,
          "internalType": "string",
          "name": "_pubkey",
          "type": "string"
        }
      ],
      "name": "contractCreated",
      "type": "event"
    },
    {
      "inputs": [],
      "name": "getContractList",
      "outputs": [
        {
          "internalType": "address[]",
          "name": "",
          "type": "address[]"
        }
      ],
      "stateMutability": "view",
      "type": "function"
    },
    {
      "inputs": [
        {
          "internalType": "uint256",
          "name": "",
          "type": "uint256"
        }
      ],
      "name": "rentalContracts",
      "outputs": [
        {
          "internalType": "address",
          "name": "",
          "type": "address"
        }
      ],
      "stateMutability": "view",
      "type": "function"
    },
    {
      "inputs": [
        {
          "internalType": "uint256",
          "name": "_price",
          "type": "uint256"
        },
        {
          "internalType": "uint256",
          "name": "_limit",
          "type": "uint256"
        },
        {
          "internalType": "uint256",
          "name": "_speed",
          "type": "uint256"
        },
        {
          "internalType": "uint256",
          "name": "_length",
          "type": "uint256"
        },
        {
          "internalType": "address",
          "name": "_validator",
          "type": "address"
        },
        {
          "internalType": "string",
          "name": "_pubKey",
          "type": "string"
        }
      ],
      "name": "setCreateNewRentalContract",
      "outputs": [
        {
          "internalType": "address",
          "name": "",
          "type": "address"
        }
      ],
      "stateMutability": "nonpayable",
      "type": "function"
    },
    {
      "inputs": [
        {
          "internalType": "address",
          "name": "contractAddress",
          "type": "address"
        },
        {
          "internalType": "string",
          "name": "_cipherText",
          "type": "string"
        }
      ],
      "name": "setPurchaseRentalContract",
      "outputs": [],
      "stateMutability": "nonpayable",
      "type": "function"
    }
  ],
  "bytecode": "0x60806040523480156200001157600080fd5b506040516200398138038062003981833981810160405281019062000037919062000198565b6000604051620000479062000173565b604051809103906000f08015801562000064573d6000803e3d6000fd5b509050806000806101000a81548173ffffffffffffffffffffffffffffffffffffffff021916908373ffffffffffffffffffffffffffffffffffffffff16021790555082600260006101000a81548173ffffffffffffffffffffffffffffffffffffffff021916908373ffffffffffffffffffffffffffffffffffffffff16021790555081600160006101000a81548173ffffffffffffffffffffffffffffffffffffffff021916908373ffffffffffffffffffffffffffffffffffffffff16021790555082600560006101000a81548173ffffffffffffffffffffffffffffffffffffffff021916908373ffffffffffffffffffffffffffffffffffffffff16021790555050505062000232565b6127ca80620011b783390190565b600081519050620001928162000218565b92915050565b60008060408385031215620001b257620001b162000213565b5b6000620001c28582860162000181565b9250506020620001d58582860162000181565b9150509250929050565b6000620001ec82620001f3565b9050919050565b600073ffffffffffffffffffffffffffffffffffffffff82169050919050565b600080fd5b6200022381620001df565b81146200022f57600080fd5b50565b610f7580620002426000396000f3fe608060405234801561001057600080fd5b506004361061004c5760003560e01c806353da020614610051578063739a835314610081578063867126861461009d57806399acac8c146100cd575b600080fd5b61006b6004803603810190610066919061088a565b6100eb565b6040516100789190610ad2565b60405180910390f35b61009b60048036038101906100969190610801565b61012a565b005b6100b760048036038101906100b291906108e4565b61044c565b6040516100c49190610ad2565b60405180910390f35b6100d56105d4565b6040516100e29190610b4d565b60405180910390f35b600481815481106100fb57600080fd5b906000526020600020016000915054906101000a900473ffffffffffffffffffffffffffffffffffffffff1681565b600082905060008173ffffffffffffffffffffffffffffffffffffffff1663a035b1fe6040518163ffffffff1660e01b815260040160206040518083038186803b15801561017757600080fd5b505afa15801561018b573d6000803e3d6000fd5b505050506040513d601f19601f820116820180604052508101906101af91906108b7565b905080600560009054906101000a900473ffffffffffffffffffffffffffffffffffffffff1673ffffffffffffffffffffffffffffffffffffffff1663dd62ed3e33306040518363ffffffff1660e01b815260040161020f929190610aed565b60206040518083038186803b15801561022757600080fd5b505afa15801561023b573d6000803e3d6000fd5b505050506040513d601f19601f8201168201806040525081019061025f91906108b7565b10156102a0576040517f08c379a000000000000000000000000000000000000000000000000000000000815260040161029790610c01565b60405180910390fd5b6000600560009054906101000a900473ffffffffffffffffffffffffffffffffffffffff1673ffffffffffffffffffffffffffffffffffffffff166323b872dd3387856040518463ffffffff1660e01b815260040161030193929190610b16565b602060405180830381600087803b15801561031b57600080fd5b505af115801561032f573d6000803e3d6000fd5b505050506040513d601f19601f82011682018060405250810190610353919061085d565b905080610395576040517f08c379a000000000000000000000000000000000000000000000000000000000815260040161038c90610bc1565b60405180910390fd5b8273ffffffffffffffffffffffffffffffffffffffff1663ddcb1bf285336040518363ffffffff1660e01b81526004016103d0929190610b91565b600060405180830381600087803b1580156103ea57600080fd5b505af11580156103fe573d6000803e3d6000fd5b505050508473ffffffffffffffffffffffffffffffffffffffff167fbf1df41b401a1bb8d9bd03fb6fe59b6ced0e61a76cdd3d3d511b4d06eb2cdebe60405160405180910390a25050505050565b60008061047860008054906101000a900473ffffffffffffffffffffffffffffffffffffffff16610668565b90508073ffffffffffffffffffffffffffffffffffffffff16633a5d42138989898933600260009054906101000a900473ffffffffffffffffffffffffffffffffffffffff16308c6040518963ffffffff1660e01b81526004016104e3989796959493929190610c21565b600060405180830381600087803b1580156104fd57600080fd5b505af1158015610511573d6000803e3d6000fd5b505050506004819080600181540180825580915050600190039060005260206000200160009091909190916101000a81548173ffffffffffffffffffffffffffffffffffffffff021916908373ffffffffffffffffffffffffffffffffffffffff1602179055508073ffffffffffffffffffffffffffffffffffffffff167f1b08e1646439b7521399d47f93ab6b1ebc92803e155d0b2f2ad2d4702a050804846040516105be9190610b6f565b60405180910390a2809150509695505050505050565b60606000600480548060200260200160405190810160405280929190818152602001828054801561065a57602002820191906000526020600020905b8160009054906101000a900473ffffffffffffffffffffffffffffffffffffffff1673ffffffffffffffffffffffffffffffffffffffff1681526020019060010190808311610610575b505050505090508091505090565b60006040517f3d602d80600a3d3981f3363d3d373d3d3d363d7300000000000000000000000081528260601b60148201527f5af43d82803e903d91602b57fd5bf3000000000000000000000000000000000060288201526037816000f0915050600073ffffffffffffffffffffffffffffffffffffffff168173ffffffffffffffffffffffffffffffffffffffff161415610738576040517f08c379a000000000000000000000000000000000000000000000000000000000815260040161072f90610be1565b60405180910390fd5b919050565b600061075061074b84610cc4565b610c9f565b90508281526020810184848401111561076c5761076b610e39565b5b610777848285610d92565b509392505050565b60008135905061078e81610efa565b92915050565b6000815190506107a381610f11565b92915050565b600082601f8301126107be576107bd610e34565b5b81356107ce84826020860161073d565b91505092915050565b6000813590506107e681610f28565b92915050565b6000815190506107fb81610f28565b92915050565b6000806040838503121561081857610817610e43565b5b60006108268582860161077f565b925050602083013567ffffffffffffffff81111561084757610846610e3e565b5b610853858286016107a9565b9150509250929050565b60006020828403121561087357610872610e43565b5b600061088184828501610794565b91505092915050565b6000602082840312156108a05761089f610e43565b5b60006108ae848285016107d7565b91505092915050565b6000602082840312156108cd576108cc610e43565b5b60006108db848285016107ec565b91505092915050565b60008060008060008060c0878903121561090157610900610e43565b5b600061090f89828a016107d7565b965050602061092089828a016107d7565b955050604061093189828a016107d7565b945050606061094289828a016107d7565b935050608061095389828a0161077f565b92505060a087013567ffffffffffffffff81111561097457610973610e3e565b5b61098089828a016107a9565b9150509295509295509295565b600061099983836109a5565b60208301905092915050565b6109ae81610d4a565b82525050565b6109bd81610d4a565b82525050565b60006109ce82610d05565b6109d88185610d28565b93506109e383610cf5565b8060005b83811015610a145781516109fb888261098d565b9750610a0683610d1b565b9250506001810190506109e7565b5085935050505092915050565b6000610a2c82610d10565b610a368185610d39565b9350610a46818560208601610da1565b610a4f81610e48565b840191505092915050565b6000610a67601683610d39565b9150610a7282610e59565b602082019050919050565b6000610a8a601683610d39565b9150610a9582610e82565b602082019050919050565b6000610aad602683610d39565b9150610ab882610eab565b604082019050919050565b610acc81610d88565b82525050565b6000602082019050610ae760008301846109b4565b92915050565b6000604082019050610b0260008301856109b4565b610b0f60208301846109b4565b9392505050565b6000606082019050610b2b60008301866109b4565b610b3860208301856109b4565b610b456040830184610ac3565b949350505050565b60006020820190508181036000830152610b6781846109c3565b905092915050565b60006020820190508181036000830152610b898184610a21565b905092915050565b60006040820190508181036000830152610bab8185610a21565b9050610bba60208301846109b4565b9392505050565b60006020820190508181036000830152610bda81610a5a565b9050919050565b60006020820190508181036000830152610bfa81610a7d565b9050919050565b60006020820190508181036000830152610c1a81610aa0565b9050919050565b600061010082019050610c37600083018b610ac3565b610c44602083018a610ac3565b610c516040830189610ac3565b610c5e6060830188610ac3565b610c6b60808301876109b4565b610c7860a08301866109b4565b610c8560c08301856109b4565b610c9260e08301846109b4565b9998505050505050505050565b6000610ca9610cba565b9050610cb58282610dd4565b919050565b6000604051905090565b600067ffffffffffffffff821115610cdf57610cde610e05565b5b610ce882610e48565b9050602081019050919050565b6000819050602082019050919050565b600081519050919050565b600081519050919050565b6000602082019050919050565b600082825260208201905092915050565b600082825260208201905092915050565b6000610d5582610d68565b9050919050565b60008115159050919050565b600073ffffffffffffffffffffffffffffffffffffffff82169050919050565b6000819050919050565b82818337600083830152505050565b60005b83811015610dbf578082015181840152602081019050610da4565b83811115610dce576000848401525b50505050565b610ddd82610e48565b810181811067ffffffffffffffff82111715610dfc57610dfb610e05565b5b80604052505050565b7f4e487b7100000000000000000000000000000000000000000000000000000000600052604160045260246000fd5b600080fd5b600080fd5b600080fd5b600080fd5b6000601f19601f8301169050919050565b7f6c756d6569726e207472616e666572206661696c656400000000000000000000600082015250565b7f455243313136373a20637265617465206661696c656400000000000000000000600082015250565b7f6e6f7420617574686f72697a656420746f207370656e6420726571756972656460008201527f2066756e64730000000000000000000000000000000000000000000000000000602082015250565b610f0381610d4a565b8114610f0e57600080fd5b50565b610f1a81610d5c565b8114610f2557600080fd5b50565b610f3181610d88565b8114610f3c57600080fd5b5056fea2646970667358221220c3971147e0bbe27085e17a115eef362ec4b8bcea2aa0132ee5dba0d85ed337aa64736f6c63430008070033608060405234801561001057600080fd5b50600180819055506127a3806100276000396000f3fe608060405234801561001057600080fd5b50600436106101215760003560e01c80638b7e4b13116100ad578063c5095d6811610071578063c5095d68146102c4578063ca3225fa146102e2578063ce0c722a14610308578063ddcb1bf214610326578063f1a6e3011461034257610121565b80638b7e4b13146102305780638e2e6d5d1461024e578063a035b1fe1461026a578063a4d66daf14610288578063c20906ac146102a657610121565b80631f7b6d32116100f45780631f7b6d321461019e5780633a5d4213146101bc5780637150d8ae146101d8578063719e6b5b146101f657806385209ee01461021257610121565b806308551a5314610126578063089aa8a2146101445780630a61e2d91461016257806316713b3714610180575b600080fd5b61012e61035e565b60405161013b9190611ca2565b60405180910390f35b61014c610384565b6040516101599190611ca2565b60405180910390f35b61016a6103aa565b6040516101779190611f57565b60405180910390f35b6101886103b0565b6040516101959190611f57565b60405180910390f35b6101a66103b6565b6040516101b39190611f57565b60405180910390f35b6101d660048036038101906101d19190611944565b6103bc565b005b6101e06105bb565b6040516101ed9190611ca2565b60405180910390f35b610210600480360381019061020b9190611845565b6105e1565b005b61021a610737565b6040516102279190611ce6565b60405180910390f35b61023861074a565b6040516102459190611d95565b60405180910390f35b610268600480360381019061026391906118ea565b6107d8565b005b610272610b88565b60405161027f9190611f57565b60405180910390f35b610290610b8e565b60405161029d9190611f57565b60405180910390f35b6102ae610b94565b6040516102bb9190611f57565b60405180910390f35b6102cc610b9a565b6040516102d99190611f57565b60405180910390f35b6102ea610ba0565b6040516102ff99989796959493929190611d01565b60405180910390f35b610310610cbe565b60405161031d9190611ca2565b60405180910390f35b610340600480360381019061033b919061188e565b610ce4565b005b61035c600480360381019061035791906119fa565b610f0c565b005b600d60009054906101000a900473ffffffffffffffffffffffffffffffffffffffff1681565b600260009054906101000a900473ffffffffffffffffffffffffffffffffffffffff1681565b60045481565b60055481565b600a5481565b600060019054906101000a900460ff166103e45760008054906101000a900460ff16156103ed565b6103ec61110f565b5b61042c576040517f08c379a000000000000000000000000000000000000000000000000000000000815260040161042390611eb7565b60405180910390fd5b60008060019054906101000a900460ff16159050801561047c576001600060016101000a81548160ff02191690831515021790555060016000806101000a81548160ff0219169083151502179055505b88600781905550876008819055508660098190555085600a8190555084600d60006101000a81548173ffffffffffffffffffffffffffffffffffffffff021916908373ffffffffffffffffffffffffffffffffffffffff16021790555082600e60006101000a81548173ffffffffffffffffffffffffffffffffffffffff021916908373ffffffffffffffffffffffffffffffffffffffff16021790555081600f60006101000a81548173ffffffffffffffffffffffffffffffffffffffff021916908373ffffffffffffffffffffffffffffffffffffffff1602179055506000600660146101000a81548160ff0219169083600181111561058157610580612213565b5b021790555061058f84611120565b80156105b05760008060016101000a81548160ff0219169083151502179055505b505050505050505050565b600c60009054906101000a900473ffffffffffffffffffffffffffffffffffffffff1681565b600c60009054906101000a900473ffffffffffffffffffffffffffffffffffffffff1673ffffffffffffffffffffffffffffffffffffffff163373ffffffffffffffffffffffffffffffffffffffff1614610671576040517f08c379a000000000000000000000000000000000000000000000000000000000815260040161066890611db7565b60405180910390fd5b60018081111561068457610683612213565b5b600660149054906101000a900460ff1660018111156106a6576106a5612213565b5b146106e6576040517f08c379a00000000000000000000000000000000000000000000000000000000081526004016106dd90611ef7565b60405180910390fd5b80601090805190602001906106fc9291906116b1565b507f2301ef7d9f42b857543faf9e285b5807e028d4ae99810ea7fe0aadda3a717e9d8160405161072c9190611d95565b60405180910390a150565b600660149054906101000a900460ff1681565b6010805461075790612152565b80601f016020809104026020016040519081016040528092919081815260200182805461078390612152565b80156107d05780601f106107a5576101008083540402835291602001916107d0565b820191906000526020600020905b8154815290600101906020018083116107b357829003601f168201915b505050505081565b600081141561092657600c60009054906101000a900473ffffffffffffffffffffffffffffffffffffffff1673ffffffffffffffffffffffffffffffffffffffff163373ffffffffffffffffffffffffffffffffffffffff16148061088a5750600f60009054906101000a900473ffffffffffffffffffffffffffffffffffffffff1673ffffffffffffffffffffffffffffffffffffffff163373ffffffffffffffffffffffffffffffffffffffff16145b6108c9576040517f08c379a00000000000000000000000000000000000000000000000000000000081526004016108c090611e37565b60405180910390fd5b60006108d3611164565b90506108ec816007546108e6919061206f565b826111ba565b6108f46113c0565b7ff5e1a452bb76d7335225182a97ad694be2c7b4b5d75dcffb67ddf15db95f484460405160405180910390a150610b85565b60018114156109e157600d60009054906101000a900473ffffffffffffffffffffffffffffffffffffffff1673ffffffffffffffffffffffffffffffffffffffff163373ffffffffffffffffffffffffffffffffffffffff16146109bf576040517f08c379a00000000000000000000000000000000000000000000000000000000081526004016109b690611f17565b60405180910390fd5b6109dc6109ca611164565b6007546109d7919061206f565b611476565b610b84565b60028114806109f05750600381145b15610b3f57600a54600b5442610a06919061206f565b1015610a47576040517f08c379a0000000000000000000000000000000000000000000000000000000008152600401610a3e90611dd7565b60405180910390fd5b6003811415610b0657610b05600660009054906101000a900473ffffffffffffffffffffffffffffffffffffffff1673ffffffffffffffffffffffffffffffffffffffff166370a08231306040518263ffffffff1660e01b8152600401610aae9190611ca2565b60206040518083038186803b158015610ac657600080fd5b505afa158015610ada573d6000803e3d6000fd5b505050506040513d601f19601f82011682018060405250810190610afe9190611917565b60006111ba565b5b610b0e6113c0565b7ff5e1a452bb76d7335225182a97ad694be2c7b4b5d75dcffb67ddf15db95f484460405160405180910390a1610b83565b60048110610b82576040517f08c379a0000000000000000000000000000000000000000000000000000000008152600401610b7990611e97565b60405180910390fd5b5b5b5b50565b60075481565b60085481565b60095481565b600b5481565b6000806000806000806000806060600660149054906101000a900460ff16600754600854600954600a54600b54600c60009054906101000a900473ffffffffffffffffffffffffffffffffffffffff16600d60009054906101000a900473ffffffffffffffffffffffffffffffffffffffff166010808054610c2190612152565b80601f0160208091040260200160405190810160405280929190818152602001828054610c4d90612152565b8015610c9a5780601f10610c6f57610100808354040283529160200191610c9a565b820191906000526020600020905b815481529060010190602001808311610c7d57829003601f168201915b50505050509050985098509850985098509850985098509850909192939495969798565b600360009054906101000a900473ffffffffffffffffffffffffffffffffffffffff1681565b60006001811115610cf857610cf7612213565b5b600660149054906101000a900460ff166001811115610d1a57610d19612213565b5b14610d5a576040517f08c379a0000000000000000000000000000000000000000000000000000000008152600401610d5190611e57565b60405180910390fd5b600e60009054906101000a900473ffffffffffffffffffffffffffffffffffffffff1673ffffffffffffffffffffffffffffffffffffffff163373ffffffffffffffffffffffffffffffffffffffff1614610dea576040517f08c379a0000000000000000000000000000000000000000000000000000000008152600401610de190611e77565b60405180910390fd5b8160109080519060200190610e009291906116b1565b5080600c60006101000a81548173ffffffffffffffffffffffffffffffffffffffff021916908373ffffffffffffffffffffffffffffffffffffffff16021790555042600b819055506001600660146101000a81548160ff02191690836001811115610e6f57610e6e612213565b5b0217905550610ec5600d60009054906101000a900473ffffffffffffffffffffffffffffffffffffffff16600c60009054906101000a900473ffffffffffffffffffffffffffffffffffffffff16600754611600565b3373ffffffffffffffffffffffffffffffffffffffff167f0c00d1d6cea0bd55f7d3b6e92ef60237b117b050185fc2816c708fd45f45e5bb60405160405180910390a25050565b6000600b5442610f1c919061206f565b9050600d60009054906101000a900473ffffffffffffffffffffffffffffffffffffffff1673ffffffffffffffffffffffffffffffffffffffff163373ffffffffffffffffffffffffffffffffffffffff1614610fae576040517f08c379a0000000000000000000000000000000000000000000000000000000008152600401610fa590611ed7565b60405180910390fd5b600180811115610fc157610fc0612213565b5b600660149054906101000a900460ff166001811115610fe357610fe2612213565b5b14611023576040517f08c379a000000000000000000000000000000000000000000000000000000000815260040161101a90611df7565b60405180910390fd5b60028214806110325750600382145b611071576040517f08c379a000000000000000000000000000000000000000000000000000000000815260040161106890611e17565b60405180910390fd5b600a548110156110b6576040517f08c379a00000000000000000000000000000000000000000000000000000000081526004016110ad90611dd7565b60405180910390fd5b6110bf826107d8565b85600781905550846008819055508360098190555082600a819055507f03e052767f275c0c51cc93a76255d42498341feb7a5beef7cc11fd57c5b6681860405160405180910390a1505050505050565b600061111a3061168e565b15905090565b80600660006101000a81548173ffffffffffffffffffffffffffffffffffffffff021916908373ffffffffffffffffffffffffffffffffffffffff16021790555050565b600080600b5442611175919061206f565b9050600a5481116111b057600a5481600a54611191919061206f565b60075461119e9190612015565b6111a89190611fe4565b9150506111b7565b6007549150505b90565b60026001541415611200576040517f08c379a00000000000000000000000000000000000000000000000000000000081526004016111f790611f37565b60405180910390fd5b6002600181905550600660009054906101000a900473ffffffffffffffffffffffffffffffffffffffff1673ffffffffffffffffffffffffffffffffffffffff1663a9059cbb600360009054906101000a900473ffffffffffffffffffffffffffffffffffffffff16846040518363ffffffff1660e01b8152600401611287929190611cbd565b602060405180830381600087803b1580156112a157600080fd5b505af11580156112b5573d6000803e3d6000fd5b505050506040513d601f19601f820116820180604052508101906112d99190611818565b50600081146113b557600660009054906101000a900473ffffffffffffffffffffffffffffffffffffffff1673ffffffffffffffffffffffffffffffffffffffff1663a9059cbb600260009054906101000a900473ffffffffffffffffffffffffffffffffffffffff16836040518363ffffffff1660e01b8152600401611361929190611cbd565b602060405180830381600087803b15801561137b57600080fd5b505af115801561138f573d6000803e3d6000fd5b505050506040513d601f19601f820116820180604052508101906113b39190611818565b505b600180819055505050565b600d60009054906101000a900473ffffffffffffffffffffffffffffffffffffffff16600c60006101000a81548173ffffffffffffffffffffffffffffffffffffffff021916908373ffffffffffffffffffffffffffffffffffffffff16021790555060405180602001604052806000815250601090805190602001906114489291906116b1565b506000600660146101000a81548160ff0219169083600181111561146f5761146e612213565b5b0217905550565b600660009054906101000a900473ffffffffffffffffffffffffffffffffffffffff1673ffffffffffffffffffffffffffffffffffffffff1663a9059cbb600360009054906101000a900473ffffffffffffffffffffffffffffffffffffffff1683600660009054906101000a900473ffffffffffffffffffffffffffffffffffffffff1673ffffffffffffffffffffffffffffffffffffffff166370a08231306040518263ffffffff1660e01b81526004016115339190611ca2565b60206040518083038186803b15801561154b57600080fd5b505afa15801561155f573d6000803e3d6000fd5b505050506040513d601f19601f820116820180604052508101906115839190611917565b61158d919061206f565b6040518363ffffffff1660e01b81526004016115aa929190611cbd565b602060405180830381600087803b1580156115c457600080fd5b505af11580156115d8573d6000803e3d6000fd5b505050506040513d601f19601f820116820180604052508101906115fc9190611818565b5050565b82600360006101000a81548173ffffffffffffffffffffffffffffffffffffffff021916908373ffffffffffffffffffffffffffffffffffffffff16021790555081600260006101000a81548173ffffffffffffffffffffffffffffffffffffffff021916908373ffffffffffffffffffffffffffffffffffffffff16021790555080600481905550505050565b6000808273ffffffffffffffffffffffffffffffffffffffff163b119050919050565b8280546116bd90612152565b90600052602060002090601f0160209004810192826116df5760008555611726565b82601f106116f857805160ff1916838001178555611726565b82800160010185558215611726579182015b8281111561172557825182559160200191906001019061170a565b5b5090506117339190611737565b5090565b5b80821115611750576000816000905550600101611738565b5090565b600061176761176284611f97565b611f72565b905082815260208101848484011115611783576117826122a5565b5b61178e848285612110565b509392505050565b6000813590506117a581612728565b92915050565b6000815190506117ba8161273f565b92915050565b600082601f8301126117d5576117d46122a0565b5b81356117e5848260208601611754565b91505092915050565b6000813590506117fd81612756565b92915050565b60008151905061181281612756565b92915050565b60006020828403121561182e5761182d6122af565b5b600061183c848285016117ab565b91505092915050565b60006020828403121561185b5761185a6122af565b5b600082013567ffffffffffffffff811115611879576118786122aa565b5b611885848285016117c0565b91505092915050565b600080604083850312156118a5576118a46122af565b5b600083013567ffffffffffffffff8111156118c3576118c26122aa565b5b6118cf858286016117c0565b92505060206118e085828601611796565b9150509250929050565b600060208284031215611900576118ff6122af565b5b600061190e848285016117ee565b91505092915050565b60006020828403121561192d5761192c6122af565b5b600061193b84828501611803565b91505092915050565b600080600080600080600080610100898b031215611965576119646122af565b5b60006119738b828c016117ee565b98505060206119848b828c016117ee565b97505060406119958b828c016117ee565b96505060606119a68b828c016117ee565b95505060806119b78b828c01611796565b94505060a06119c88b828c01611796565b93505060c06119d98b828c01611796565b92505060e06119ea8b828c01611796565b9150509295985092959890939650565b600080600080600060a08688031215611a1657611a156122af565b5b6000611a24888289016117ee565b9550506020611a35888289016117ee565b9450506040611a46888289016117ee565b9350506060611a57888289016117ee565b9250506080611a68888289016117ee565b9150509295509295909350565b611a7e816120a3565b82525050565b611a8d816120fe565b82525050565b6000611a9e82611fc8565b611aa88185611fd3565b9350611ab881856020860161211f565b611ac1816122b4565b840191505092915050565b6000611ad9604383611fd3565b9150611ae4826122c5565b606082019050919050565b6000611afc602a83611fd3565b9150611b078261233a565b604082019050919050565b6000611b1f602b83611fd3565b9150611b2a82612389565b604082019050919050565b6000611b42602883611fd3565b9150611b4d826123d8565b604082019050919050565b6000611b65603b83611fd3565b9150611b7082612427565b604082019050919050565b6000611b88602583611fd3565b9150611b9382612476565b604082019050919050565b6000611bab603a83611fd3565b9150611bb6826124c5565b604082019050919050565b6000611bce602983611fd3565b9150611bd982612514565b604082019050919050565b6000611bf1602e83611fd3565b9150611bfc82612563565b604082019050919050565b6000611c14604383611fd3565b9150611c1f826125b2565b606082019050919050565b6000611c37602883611fd3565b9150611c4282612627565b604082019050919050565b6000611c5a604183611fd3565b9150611c6582612676565b606082019050919050565b6000611c7d601f83611fd3565b9150611c88826126eb565b602082019050919050565b611c9c816120f4565b82525050565b6000602082019050611cb76000830184611a75565b92915050565b6000604082019050611cd26000830185611a75565b611cdf6020830184611c93565b9392505050565b6000602082019050611cfb6000830184611a84565b92915050565b600061012082019050611d17600083018c611a84565b611d24602083018b611c93565b611d31604083018a611c93565b611d3e6060830189611c93565b611d4b6080830188611c93565b611d5860a0830187611c93565b611d6560c0830186611a75565b611d7260e0830185611a75565b818103610100830152611d858184611a93565b90509a9950505050505050505050565b60006020820190508181036000830152611daf8184611a93565b905092915050565b60006020820190508181036000830152611dd081611acc565b9050919050565b60006020820190508181036000830152611df081611aef565b9050919050565b60006020820190508181036000830152611e1081611b12565b9050919050565b60006020820190508181036000830152611e3081611b35565b9050919050565b60006020820190508181036000830152611e5081611b58565b9050919050565b60006020820190508181036000830152611e7081611b7b565b9050919050565b60006020820190508181036000830152611e9081611b9e565b9050919050565b60006020820190508181036000830152611eb081611bc1565b9050919050565b60006020820190508181036000830152611ed081611be4565b9050919050565b60006020820190508181036000830152611ef081611c07565b9050919050565b60006020820190508181036000830152611f1081611c2a565b9050919050565b60006020820190508181036000830152611f3081611c4d565b9050919050565b60006020820190508181036000830152611f5081611c70565b9050919050565b6000602082019050611f6c6000830184611c93565b92915050565b6000611f7c611f8d565b9050611f888282612184565b919050565b6000604051905090565b600067ffffffffffffffff821115611fb257611fb1612271565b5b611fbb826122b4565b9050602081019050919050565b600081519050919050565b600082825260208201905092915050565b6000611fef826120f4565b9150611ffa836120f4565b92508261200a576120096121e4565b5b828204905092915050565b6000612020826120f4565b915061202b836120f4565b9250817fffffffffffffffffffffffffffffffffffffffffffffffffffffffffffffffff0483118215151615612064576120636121b5565b5b828202905092915050565b600061207a826120f4565b9150612085836120f4565b925082821015612098576120976121b5565b5b828203905092915050565b60006120ae826120d4565b9050919050565b60008115159050919050565b60008190506120cf82612714565b919050565b600073ffffffffffffffffffffffffffffffffffffffff82169050919050565b6000819050919050565b6000612109826120c1565b9050919050565b82818337600083830152505050565b60005b8381101561213d578082015181840152602081019050612122565b8381111561214c576000848401525b50505050565b6000600282049050600182168061216a57607f821691505b6020821081141561217e5761217d612242565b5b50919050565b61218d826122b4565b810181811067ffffffffffffffff821117156121ac576121ab612271565b5b80604052505050565b7f4e487b7100000000000000000000000000000000000000000000000000000000600052601160045260246000fd5b7f4e487b7100000000000000000000000000000000000000000000000000000000600052601260045260246000fd5b7f4e487b7100000000000000000000000000000000000000000000000000000000600052602160045260246000fd5b7f4e487b7100000000000000000000000000000000000000000000000000000000600052602260045260246000fd5b7f4e487b7100000000000000000000000000000000000000000000000000000000600052604160045260246000fd5b600080fd5b600080fd5b600080fd5b600080fd5b6000601f19601f8301169050919050565b7f74686973206163636f756e74206973206e6f7420617574686f72697a6564207460008201527f6f2075706461746520746865206369706865727465787420696e666f726d617460208201527f696f6e0000000000000000000000000000000000000000000000000000000000604082015250565b7f74686520636f6e7472616374206861732079657420746f20626520636172726960008201527f656420746f207465726d00000000000000000000000000000000000000000000602082015250565b7f74686973206973206163636f756e74206973206e6f7420696e2074686520727560008201527f6e6e696e67207374617465000000000000000000000000000000000000000000602082015250565b7f796f752063616e206f6e6c792075736520636c6f73656f7574206f7074696f6e60008201527f732032206f722033000000000000000000000000000000000000000000000000602082015250565b7f74686973206163636f756e74206973206e6f7420617574686f72697a6564207460008201527f6f207472696767657220616e206561726c7920636c6f73656f75740000000000602082015250565b7f636f6e7472616374206973206e6f7420696e20616e20617661696c61626c652060008201527f7374617465000000000000000000000000000000000000000000000000000000602082015250565b7f746869732061646472657373206973206e6f7420617070726f76656420746f2060008201527f63616c6c207468652070757263686173652066756e6374696f6e000000000000602082015250565b7f796f75206d757374206d616b6520612073656c656374696f6e2062657477656560008201527f6e203020616e6420330000000000000000000000000000000000000000000000602082015250565b7f496e697469616c697a61626c653a20636f6e747261637420697320616c72656160008201527f647920696e697469616c697a6564000000000000000000000000000000000000602082015250565b7f74686973206973206163636f756e74206973206e6f7420617574686f72697a6560008201527f6420746f207570646174652074686520636f6e747261637420706172616d657460208201527f6572730000000000000000000000000000000000000000000000000000000000604082015250565b7f74686520636f6e7472616374206973206e6f7420696e207468652072756e6e6960008201527f6e67207374617465000000000000000000000000000000000000000000000000602082015250565b7f74686973206163636f756e74206973206e6f7420617574686f72697a6564207460008201527f6f20747269676765722061206d69642d636f6e747261637420636c6f73656f7560208201527f7400000000000000000000000000000000000000000000000000000000000000604082015250565b7f5265656e7472616e637947756172643a207265656e7472616e742063616c6c00600082015250565b6002811061272557612724612213565b5b50565b612731816120a3565b811461273c57600080fd5b50565b612748816120b5565b811461275357600080fd5b50565b61275f816120f4565b811461276a57600080fd5b5056fea26469706673582212208ac43b50cf132f58d19cf09f58d766182a8c01958210b5540b611513e2d1b72364736f6c63430008070033",
  "linkReferences": {},
  "deployedLinkReferences": {}
}