{
	"contractName": "CloneFactory",
	"abi": [
		{
			"inputs": [
				{
					"internalType": "address",
					"name": "_lmn",
					"type": "address"
				},
				{
					"internalType": "address",
					"name": "_validator",
					"type": "address"
				},
				{
					"internalType": "address",
					"name": "_proxy",
					"type": "address"
				}
			],
			"stateMutability": "nonpayable",
			"type": "constructor"
		},
		{
			"anonymous": false,
			"inputs": [
				{
					"indexed": true,
					"internalType": "address",
					"name": "_address",
					"type": "address"
				}
			],
			"name": "clonefactoryContractPurchased",
			"type": "event"
		},
		{
			"anonymous": false,
			"inputs": [
				{
					"indexed": true,
					"internalType": "address",
					"name": "_address",
					"type": "address"
				}
			],
			"name": "contractCreated",
			"type": "event"
		},
		{
			"inputs": [
				{
					"internalType": "uint256",
					"name": "",
					"type": "uint256"
				}
			],
			"name": "rentalContracts",
			"outputs": [
				{
					"internalType": "address",
					"name": "",
					"type": "address"
				}
			],
			"stateMutability": "view",
			"type": "function",
			"constant": true
		},
		{
			"inputs": [
				{
					"internalType": "uint256",
					"name": "_price",
					"type": "uint256"
				},
				{
					"internalType": "uint256",
					"name": "_limit",
					"type": "uint256"
				},
				{
					"internalType": "uint256",
					"name": "_speed",
					"type": "uint256"
				},
				{
					"internalType": "uint256",
					"name": "_length",
					"type": "uint256"
				},
				{
					"internalType": "address",
					"name": "_validator",
					"type": "address"
				}
			],
			"name": "setCreateNewRentalContract",
			"outputs": [
				{
					"internalType": "address",
					"name": "",
					"type": "address"
				}
			],
			"stateMutability": "nonpayable",
			"type": "function"
		},
		{
			"inputs": [
				{
					"internalType": "address",
					"name": "contractAddress",
					"type": "address"
				},
				{
					"internalType": "string",
					"name": "_cipherText",
					"type": "string"
				}
			],
			"name": "setPurchaseRentalContract",
			"outputs": [],
			"stateMutability": "nonpayable",
			"type": "function"
		},
		{
			"inputs": [],
			"name": "getContractList",
			"outputs": [
				{
					"internalType": "address[]",
					"name": "",
					"type": "address[]"
				}
			],
			"stateMutability": "view",
			"type": "function",
			"constant": true
		}
	],
	"bytecode": "0x60806040523480156200001157600080fd5b5060405162003558380380620035588339818101604052810190620000379190620001da565b60006040516200004790620001b5565b604051809103906000f08015801562000064573d6000803e3d6000fd5b509050806000806101000a81548173ffffffffffffffffffffffffffffffffffffffff021916908373ffffffffffffffffffffffffffffffffffffffff16021790555083600360006101000a81548173ffffffffffffffffffffffffffffffffffffffff021916908373ffffffffffffffffffffffffffffffffffffffff16021790555082600160006101000a81548173ffffffffffffffffffffffffffffffffffffffff021916908373ffffffffffffffffffffffffffffffffffffffff16021790555081600260006101000a81548173ffffffffffffffffffffffffffffffffffffffff021916908373ffffffffffffffffffffffffffffffffffffffff16021790555083600660006101000a81548173ffffffffffffffffffffffffffffffffffffffff021916908373ffffffffffffffffffffffffffffffffffffffff1602179055505050505062000289565b612456806200110283390190565b600081519050620001d4816200026f565b92915050565b600080600060608486031215620001f657620001f56200026a565b5b60006200020686828701620001c3565b93505060206200021986828701620001c3565b92505060406200022c86828701620001c3565b9150509250925092565b600062000243826200024a565b9050919050565b600073ffffffffffffffffffffffffffffffffffffffff82169050919050565b600080fd5b6200027a8162000236565b81146200028657600080fd5b50565b610e6980620002996000396000f3fe608060405234801561001057600080fd5b506004361061004c5760003560e01c806353da020614610051578063739a83531461008157806399acac8c1461009d578063dc7a5644146100bb575b600080fd5b61006b6004803603810190610066919061083a565b6100eb565b6040516100789190610a31565b60405180910390f35b61009b600480360381019061009691906107b1565b61012a565b005b6100a5610408565b6040516100b29190610aac565b60405180910390f35b6100d560048036038101906100d09190610894565b61049c565b6040516100e29190610a31565b60405180910390f35b600581815481106100fb57600080fd5b906000526020600020016000915054906101000a900473ffffffffffffffffffffffffffffffffffffffff1681565b600082905060008173ffffffffffffffffffffffffffffffffffffffff1663a035b1fe6040518163ffffffff1660e01b815260040160206040518083038186803b15801561017757600080fd5b505afa15801561018b573d6000803e3d6000fd5b505050506040513d601f19601f820116820180604052508101906101af9190610867565b905080600660009054906101000a900473ffffffffffffffffffffffffffffffffffffffff1673ffffffffffffffffffffffffffffffffffffffff1663dd62ed3e33306040518363ffffffff1660e01b815260040161020f929190610a4c565b60206040518083038186803b15801561022757600080fd5b505afa15801561023b573d6000803e3d6000fd5b505050506040513d601f19601f8201168201806040525081019061025f9190610867565b10156102a0576040517f08c379a000000000000000000000000000000000000000000000000000000000815260040161029790610b1e565b60405180910390fd5b600660009054906101000a900473ffffffffffffffffffffffffffffffffffffffff1673ffffffffffffffffffffffffffffffffffffffff166323b872dd3386846040518463ffffffff1660e01b81526004016102ff93929190610a75565b602060405180830381600087803b15801561031957600080fd5b505af115801561032d573d6000803e3d6000fd5b505050506040513d601f19601f82011682018060405250810190610351919061080d565b508173ffffffffffffffffffffffffffffffffffffffff1663ddcb1bf284336040518363ffffffff1660e01b815260040161038d929190610ace565b600060405180830381600087803b1580156103a757600080fd5b505af11580156103bb573d6000803e3d6000fd5b505050508373ffffffffffffffffffffffffffffffffffffffff167fbf1df41b401a1bb8d9bd03fb6fe59b6ced0e61a76cdd3d3d511b4d06eb2cdebe60405160405180910390a250505050565b60606000600580548060200260200160405190810160405280929190818152602001828054801561048e57602002820191906000526020600020905b8160009054906101000a900473ffffffffffffffffffffffffffffffffffffffff1673ffffffffffffffffffffffffffffffffffffffff1681526020019060010190808311610444575b505050505090508091505090565b6000806104c860008054906101000a900473ffffffffffffffffffffffffffffffffffffffff16610618565b90508073ffffffffffffffffffffffffffffffffffffffff16633a5d42138888888833600360009054906101000a900473ffffffffffffffffffffffffffffffffffffffff16308b6040518963ffffffff1660e01b8152600401610533989796959493929190610b3e565b600060405180830381600087803b15801561054d57600080fd5b505af1158015610561573d6000803e3d6000fd5b505050506005819080600181540180825580915050600190039060005260206000200160009091909190916101000a81548173ffffffffffffffffffffffffffffffffffffffff021916908373ffffffffffffffffffffffffffffffffffffffff1602179055508073ffffffffffffffffffffffffffffffffffffffff167ffcf9a0c9dedbfcd1a047374855fc36baaf605bd4f4837802a0cc938ba1b5f30260405160405180910390a28091505095945050505050565b60006040517f3d602d80600a3d3981f3363d3d373d3d3d363d7300000000000000000000000081528260601b60148201527f5af43d82803e903d91602b57fd5bf3000000000000000000000000000000000060288201526037816000f0915050600073ffffffffffffffffffffffffffffffffffffffff168173ffffffffffffffffffffffffffffffffffffffff1614156106e8576040517f08c379a00000000000000000000000000000000000000000000000000000000081526004016106df90610afe565b60405180910390fd5b919050565b60006107006106fb84610be1565b610bbc565b90508281526020810184848401111561071c5761071b610d56565b5b610727848285610caf565b509392505050565b60008135905061073e81610dee565b92915050565b60008151905061075381610e05565b92915050565b600082601f83011261076e5761076d610d51565b5b813561077e8482602086016106ed565b91505092915050565b60008135905061079681610e1c565b92915050565b6000815190506107ab81610e1c565b92915050565b600080604083850312156107c8576107c7610d60565b5b60006107d68582860161072f565b925050602083013567ffffffffffffffff8111156107f7576107f6610d5b565b5b61080385828601610759565b9150509250929050565b60006020828403121561082357610822610d60565b5b600061083184828501610744565b91505092915050565b6000602082840312156108505761084f610d60565b5b600061085e84828501610787565b91505092915050565b60006020828403121561087d5761087c610d60565b5b600061088b8482850161079c565b91505092915050565b600080600080600060a086880312156108b0576108af610d60565b5b60006108be88828901610787565b95505060206108cf88828901610787565b94505060406108e088828901610787565b93505060606108f188828901610787565b92505060806109028882890161072f565b9150509295509295909350565b600061091b8383610927565b60208301905092915050565b61093081610c67565b82525050565b61093f81610c67565b82525050565b600061095082610c22565b61095a8185610c45565b935061096583610c12565b8060005b8381101561099657815161097d888261090f565b975061098883610c38565b925050600181019050610969565b5085935050505092915050565b60006109ae82610c2d565b6109b88185610c56565b93506109c8818560208601610cbe565b6109d181610d65565b840191505092915050565b60006109e9601683610c56565b91506109f482610d76565b602082019050919050565b6000610a0c602683610c56565b9150610a1782610d9f565b604082019050919050565b610a2b81610ca5565b82525050565b6000602082019050610a466000830184610936565b92915050565b6000604082019050610a616000830185610936565b610a6e6020830184610936565b9392505050565b6000606082019050610a8a6000830186610936565b610a976020830185610936565b610aa46040830184610a22565b949350505050565b60006020820190508181036000830152610ac68184610945565b905092915050565b60006040820190508181036000830152610ae881856109a3565b9050610af76020830184610936565b9392505050565b60006020820190508181036000830152610b17816109dc565b9050919050565b60006020820190508181036000830152610b37816109ff565b9050919050565b600061010082019050610b54600083018b610a22565b610b61602083018a610a22565b610b6e6040830189610a22565b610b7b6060830188610a22565b610b886080830187610936565b610b9560a0830186610936565b610ba260c0830185610936565b610baf60e0830184610936565b9998505050505050505050565b6000610bc6610bd7565b9050610bd28282610cf1565b919050565b6000604051905090565b600067ffffffffffffffff821115610bfc57610bfb610d22565b5b610c0582610d65565b9050602081019050919050565b6000819050602082019050919050565b600081519050919050565b600081519050919050565b6000602082019050919050565b600082825260208201905092915050565b600082825260208201905092915050565b6000610c7282610c85565b9050919050565b60008115159050919050565b600073ffffffffffffffffffffffffffffffffffffffff82169050919050565b6000819050919050565b82818337600083830152505050565b60005b83811015610cdc578082015181840152602081019050610cc1565b83811115610ceb576000848401525b50505050565b610cfa82610d65565b810181811067ffffffffffffffff82111715610d1957610d18610d22565b5b80604052505050565b7f4e487b7100000000000000000000000000000000000000000000000000000000600052604160045260246000fd5b600080fd5b600080fd5b600080fd5b600080fd5b6000601f19601f8301169050919050565b7f455243313136373a20637265617465206661696c656400000000000000000000600082015250565b7f6e6f7420617574686f72697a656420746f207370656e6420726571756972656460008201527f2066756e64730000000000000000000000000000000000000000000000000000602082015250565b610df781610c67565b8114610e0257600080fd5b50565b610e0e81610c79565b8114610e1957600080fd5b50565b610e2581610ca5565b8114610e3057600080fd5b5056fea2646970667358221220a9a1d34f638741b61bdf772f48e8b07ac63a43d334c07de89415f253f9b0d82c64736f6c63430008070033608060405234801561001057600080fd5b50612436806100206000396000f3fe608060405234801561001057600080fd5b50600436106101165760003560e01c80638b7e4b13116100a2578063c20906ac11610071578063c20906ac1461029b578063c5095d68146102b9578063ce0c722a146102d7578063ddcb1bf2146102f5578063f1a6e3011461031157610116565b80638b7e4b13146102255780638e2e6d5d14610243578063a035b1fe1461025f578063a4d66daf1461027d57610116565b80631f7b6d32116100e95780631f7b6d32146101935780633a5d4213146101b15780637150d8ae146101cd578063719e6b5b146101eb57806385209ee01461020757610116565b806308551a531461011b578063089aa8a2146101395780630a61e2d91461015757806316713b3714610175575b600080fd5b61012361032d565b6040516101309190611a12565b60405180910390f35b610141610353565b60405161014e9190611a12565b60405180910390f35b61015f610379565b60405161016c9190611c13565b60405180910390f35b61017d61037f565b60405161018a9190611c13565b60405180910390f35b61019b610385565b6040516101a89190611c13565b60405180910390f35b6101cb60048036038101906101c691906116d7565b61038b565b005b6101d561057f565b6040516101e29190611a12565b60405180910390f35b610205600480360381019061020091906115d8565b6105a5565b005b61020f6106fb565b60405161021c9190611a56565b60405180910390f35b61022d61070e565b60405161023a9190611a71565b60405180910390f35b61025d6004803603810190610258919061167d565b61079c565b005b610267610b16565b6040516102749190611c13565b60405180910390f35b610285610b1c565b6040516102929190611c13565b60405180910390f35b6102a3610b22565b6040516102b09190611c13565b60405180910390f35b6102c1610b28565b6040516102ce9190611c13565b60405180910390f35b6102df610b2e565b6040516102ec9190611a12565b60405180910390f35b61030f600480360381019061030a9190611621565b610b54565b005b61032b6004803603810190610326919061178d565b610d7c565b005b600c60009054906101000a900473ffffffffffffffffffffffffffffffffffffffff1681565b600060029054906101000a900473ffffffffffffffffffffffffffffffffffffffff1681565b60035481565b60045481565b60095481565b600060019054906101000a900460ff16806103b1575060008054906101000a900460ff16155b6103f0576040517f08c379a00000000000000000000000000000000000000000000000000000000081526004016103e790611b93565b60405180910390fd5b60008060019054906101000a900460ff161590508015610440576001600060016101000a81548160ff02191690831515021790555060016000806101000a81548160ff0219169083151502179055505b8860068190555087600781905550866008819055508560098190555084600c60006101000a81548173ffffffffffffffffffffffffffffffffffffffff021916908373ffffffffffffffffffffffffffffffffffffffff16021790555082600d60006101000a81548173ffffffffffffffffffffffffffffffffffffffff021916908373ffffffffffffffffffffffffffffffffffffffff16021790555081600e60006101000a81548173ffffffffffffffffffffffffffffffffffffffff021916908373ffffffffffffffffffffffffffffffffffffffff1602179055506000600560146101000a81548160ff0219169083600181111561054557610544611ecf565b5b021790555061055384610f27565b80156105745760008060016101000a81548160ff0219169083151502179055505b505050505050505050565b600b60009054906101000a900473ffffffffffffffffffffffffffffffffffffffff1681565b600b60009054906101000a900473ffffffffffffffffffffffffffffffffffffffff1673ffffffffffffffffffffffffffffffffffffffff163373ffffffffffffffffffffffffffffffffffffffff1614610635576040517f08c379a000000000000000000000000000000000000000000000000000000000815260040161062c90611a93565b60405180910390fd5b60018081111561064857610647611ecf565b5b600560149054906101000a900460ff16600181111561066a57610669611ecf565b5b146106aa576040517f08c379a00000000000000000000000000000000000000000000000000000000081526004016106a190611bd3565b60405180910390fd5b80600f90805190602001906106c0929190611444565b507f2301ef7d9f42b857543faf9e285b5807e028d4ae99810ea7fe0aadda3a717e9d816040516106f09190611a71565b60405180910390a150565b600560149054906101000a900460ff1681565b600f805461071b90611e0e565b80601f016020809104026020016040519081016040528092919081815260200182805461074790611e0e565b80156107945780601f1061076957610100808354040283529160200191610794565b820191906000526020600020905b81548152906001019060200180831161077757829003601f168201915b505050505081565b600081141561092357600b60009054906101000a900473ffffffffffffffffffffffffffffffffffffffff1673ffffffffffffffffffffffffffffffffffffffff163373ffffffffffffffffffffffffffffffffffffffff16148061084e5750600e60009054906101000a900473ffffffffffffffffffffffffffffffffffffffff1673ffffffffffffffffffffffffffffffffffffffff163373ffffffffffffffffffffffffffffffffffffffff16145b61088d576040517f08c379a000000000000000000000000000000000000000000000000000000000815260040161088490611b13565b60405180910390fd5b6000600a544261089d9190611d2b565b90506000600954826009546108b29190611d2b565b6006546108bf9190611cd1565b6108c99190611ca0565b90506000816006546108db9190611d2b565b90506108e78183610fce565b6108ef611176565b7ff5e1a452bb76d7335225182a97ad694be2c7b4b5d75dcffb67ddf15db95f484460405160405180910390a1505050610b13565b6001811415610a0a576000600a544261093c9190611d2b565b90506000600954826009546109519190611d2b565b60065461095e9190611cd1565b6109689190611ca0565b9050600c60009054906101000a900473ffffffffffffffffffffffffffffffffffffffff1673ffffffffffffffffffffffffffffffffffffffff163373ffffffffffffffffffffffffffffffffffffffff16146109fa576040517f08c379a00000000000000000000000000000000000000000000000000000000081526004016109f190611bf3565b60405180910390fd5b610a038161122c565b5050610b12565b6002811480610a195750600381145b15610acd576000600a5442610a2e9190611d2b565b9050600954811015610a75576040517f08c379a0000000000000000000000000000000000000000000000000000000008152600401610a6c90611ab3565b60405180910390fd5b6003821415610a93576000806006549050610a908183610fce565b50505b610a9b611176565b7ff5e1a452bb76d7335225182a97ad694be2c7b4b5d75dcffb67ddf15db95f484460405160405180910390a150610b11565b60048110610b10576040517f08c379a0000000000000000000000000000000000000000000000000000000008152600401610b0790611b73565b60405180910390fd5b5b5b5b50565b60065481565b60075481565b60085481565b600a5481565b600160009054906101000a900473ffffffffffffffffffffffffffffffffffffffff1681565b60006001811115610b6857610b67611ecf565b5b600560149054906101000a900460ff166001811115610b8a57610b89611ecf565b5b14610bca576040517f08c379a0000000000000000000000000000000000000000000000000000000008152600401610bc190611b33565b60405180910390fd5b600d60009054906101000a900473ffffffffffffffffffffffffffffffffffffffff1673ffffffffffffffffffffffffffffffffffffffff163373ffffffffffffffffffffffffffffffffffffffff1614610c5a576040517f08c379a0000000000000000000000000000000000000000000000000000000008152600401610c5190611b53565b60405180910390fd5b81600f9080519060200190610c70929190611444565b5080600b60006101000a81548173ffffffffffffffffffffffffffffffffffffffff021916908373ffffffffffffffffffffffffffffffffffffffff16021790555042600a819055506001600560146101000a81548160ff02191690836001811115610cdf57610cde611ecf565b5b0217905550610d35600c60009054906101000a900473ffffffffffffffffffffffffffffffffffffffff16600b60009054906101000a900473ffffffffffffffffffffffffffffffffffffffff166006546113b6565b3373ffffffffffffffffffffffffffffffffffffffff167f0c00d1d6cea0bd55f7d3b6e92ef60237b117b050185fc2816c708fd45f45e5bb60405160405180910390a25050565b600c60009054906101000a900473ffffffffffffffffffffffffffffffffffffffff1673ffffffffffffffffffffffffffffffffffffffff163373ffffffffffffffffffffffffffffffffffffffff1614610e0c576040517f08c379a0000000000000000000000000000000000000000000000000000000008152600401610e0390611bb3565b60405180910390fd5b600180811115610e1f57610e1e611ecf565b5b600560149054906101000a900460ff166001811115610e4157610e40611ecf565b5b14610e81576040517f08c379a0000000000000000000000000000000000000000000000000000000008152600401610e7890611ad3565b60405180910390fd5b6002811480610e905750600381145b610ecf576040517f08c379a0000000000000000000000000000000000000000000000000000000008152600401610ec690611af3565b60405180910390fd5b84600681905550836007819055508260088190555081600981905550610ef48161079c565b7f03e052767f275c0c51cc93a76255d42498341feb7a5beef7cc11fd57c5b6681860405160405180910390a15050505050565b80600260006101000a81548173ffffffffffffffffffffffffffffffffffffffff021916908373ffffffffffffffffffffffffffffffffffffffff160217905550600260009054906101000a900473ffffffffffffffffffffffffffffffffffffffff16600560006101000a81548173ffffffffffffffffffffffffffffffffffffffff021916908373ffffffffffffffffffffffffffffffffffffffff16021790555050565b600560009054906101000a900473ffffffffffffffffffffffffffffffffffffffff1673ffffffffffffffffffffffffffffffffffffffff1663a9059cbb600160009054906101000a900473ffffffffffffffffffffffffffffffffffffffff16846040518363ffffffff1660e01b815260040161104d929190611a2d565b602060405180830381600087803b15801561106757600080fd5b505af115801561107b573d6000803e3d6000fd5b505050506040513d601f19601f8201168201806040525081019061109f91906115ab565b50600560009054906101000a900473ffffffffffffffffffffffffffffffffffffffff1673ffffffffffffffffffffffffffffffffffffffff1663a9059cbb600060029054906101000a900473ffffffffffffffffffffffffffffffffffffffff16836040518363ffffffff1660e01b815260040161111f929190611a2d565b602060405180830381600087803b15801561113957600080fd5b505af115801561114d573d6000803e3d6000fd5b505050506040513d601f19601f8201168201806040525081019061117191906115ab565b505050565b600c60009054906101000a900473ffffffffffffffffffffffffffffffffffffffff16600b60006101000a81548173ffffffffffffffffffffffffffffffffffffffff021916908373ffffffffffffffffffffffffffffffffffffffff16021790555060405180602001604052806000815250600f90805190602001906111fe929190611444565b506000600560146101000a81548160ff0219169083600181111561122557611224611ecf565b5b0217905550565b600560009054906101000a900473ffffffffffffffffffffffffffffffffffffffff1673ffffffffffffffffffffffffffffffffffffffff1663a9059cbb600160009054906101000a900473ffffffffffffffffffffffffffffffffffffffff1683600560009054906101000a900473ffffffffffffffffffffffffffffffffffffffff1673ffffffffffffffffffffffffffffffffffffffff166370a08231306040518263ffffffff1660e01b81526004016112e99190611a12565b60206040518083038186803b15801561130157600080fd5b505afa158015611315573d6000803e3d6000fd5b505050506040513d601f19601f8201168201806040525081019061133991906116aa565b6113439190611d2b565b6040518363ffffffff1660e01b8152600401611360929190611a2d565b602060405180830381600087803b15801561137a57600080fd5b505af115801561138e573d6000803e3d6000fd5b505050506040513d601f19601f820116820180604052508101906113b291906115ab565b5050565b82600160006101000a81548173ffffffffffffffffffffffffffffffffffffffff021916908373ffffffffffffffffffffffffffffffffffffffff16021790555081600060026101000a81548173ffffffffffffffffffffffffffffffffffffffff021916908373ffffffffffffffffffffffffffffffffffffffff16021790555080600381905550505050565b82805461145090611e0e565b90600052602060002090601f01602090048101928261147257600085556114b9565b82601f1061148b57805160ff19168380011785556114b9565b828001600101855582156114b9579182015b828111156114b857825182559160200191906001019061149d565b5b5090506114c691906114ca565b5090565b5b808211156114e35760008160009055506001016114cb565b5090565b60006114fa6114f584611c53565b611c2e565b90508281526020810184848401111561151657611515611f61565b5b611521848285611dcc565b509392505050565b600081359050611538816123bb565b92915050565b60008151905061154d816123d2565b92915050565b600082601f83011261156857611567611f5c565b5b81356115788482602086016114e7565b91505092915050565b600081359050611590816123e9565b92915050565b6000815190506115a5816123e9565b92915050565b6000602082840312156115c1576115c0611f6b565b5b60006115cf8482850161153e565b91505092915050565b6000602082840312156115ee576115ed611f6b565b5b600082013567ffffffffffffffff81111561160c5761160b611f66565b5b61161884828501611553565b91505092915050565b6000806040838503121561163857611637611f6b565b5b600083013567ffffffffffffffff81111561165657611655611f66565b5b61166285828601611553565b925050602061167385828601611529565b9150509250929050565b60006020828403121561169357611692611f6b565b5b60006116a184828501611581565b91505092915050565b6000602082840312156116c0576116bf611f6b565b5b60006116ce84828501611596565b91505092915050565b600080600080600080600080610100898b0312156116f8576116f7611f6b565b5b60006117068b828c01611581565b98505060206117178b828c01611581565b97505060406117288b828c01611581565b96505060606117398b828c01611581565b955050608061174a8b828c01611529565b94505060a061175b8b828c01611529565b93505060c061176c8b828c01611529565b92505060e061177d8b828c01611529565b9150509295985092959890939650565b600080600080600060a086880312156117a9576117a8611f6b565b5b60006117b788828901611581565b95505060206117c888828901611581565b94505060406117d988828901611581565b93505060606117ea88828901611581565b92505060806117fb88828901611581565b9150509295509295909350565b61181181611d5f565b82525050565b61182081611dba565b82525050565b600061183182611c84565b61183b8185611c8f565b935061184b818560208601611ddb565b61185481611f70565b840191505092915050565b600061186c604383611c8f565b915061187782611f81565b606082019050919050565b600061188f602a83611c8f565b915061189a82611ff6565b604082019050919050565b60006118b2602b83611c8f565b91506118bd82612045565b604082019050919050565b60006118d5602883611c8f565b91506118e082612094565b604082019050919050565b60006118f8603b83611c8f565b9150611903826120e3565b604082019050919050565b600061191b602583611c8f565b915061192682612132565b604082019050919050565b600061193e603a83611c8f565b915061194982612181565b604082019050919050565b6000611961602983611c8f565b915061196c826121d0565b604082019050919050565b6000611984602e83611c8f565b915061198f8261221f565b604082019050919050565b60006119a7604383611c8f565b91506119b28261226e565b606082019050919050565b60006119ca602883611c8f565b91506119d5826122e3565b604082019050919050565b60006119ed604183611c8f565b91506119f882612332565b606082019050919050565b611a0c81611db0565b82525050565b6000602082019050611a276000830184611808565b92915050565b6000604082019050611a426000830185611808565b611a4f6020830184611a03565b9392505050565b6000602082019050611a6b6000830184611817565b92915050565b60006020820190508181036000830152611a8b8184611826565b905092915050565b60006020820190508181036000830152611aac8161185f565b9050919050565b60006020820190508181036000830152611acc81611882565b9050919050565b60006020820190508181036000830152611aec816118a5565b9050919050565b60006020820190508181036000830152611b0c816118c8565b9050919050565b60006020820190508181036000830152611b2c816118eb565b9050919050565b60006020820190508181036000830152611b4c8161190e565b9050919050565b60006020820190508181036000830152611b6c81611931565b9050919050565b60006020820190508181036000830152611b8c81611954565b9050919050565b60006020820190508181036000830152611bac81611977565b9050919050565b60006020820190508181036000830152611bcc8161199a565b9050919050565b60006020820190508181036000830152611bec816119bd565b9050919050565b60006020820190508181036000830152611c0c816119e0565b9050919050565b6000602082019050611c286000830184611a03565b92915050565b6000611c38611c49565b9050611c448282611e40565b919050565b6000604051905090565b600067ffffffffffffffff821115611c6e57611c6d611f2d565b5b611c7782611f70565b9050602081019050919050565b600081519050919050565b600082825260208201905092915050565b6000611cab82611db0565b9150611cb683611db0565b925082611cc657611cc5611ea0565b5b828204905092915050565b6000611cdc82611db0565b9150611ce783611db0565b9250817fffffffffffffffffffffffffffffffffffffffffffffffffffffffffffffffff0483118215151615611d2057611d1f611e71565b5b828202905092915050565b6000611d3682611db0565b9150611d4183611db0565b925082821015611d5457611d53611e71565b5b828203905092915050565b6000611d6a82611d90565b9050919050565b60008115159050919050565b6000819050611d8b826123a7565b919050565b600073ffffffffffffffffffffffffffffffffffffffff82169050919050565b6000819050919050565b6000611dc582611d7d565b9050919050565b82818337600083830152505050565b60005b83811015611df9578082015181840152602081019050611dde565b83811115611e08576000848401525b50505050565b60006002820490506001821680611e2657607f821691505b60208210811415611e3a57611e39611efe565b5b50919050565b611e4982611f70565b810181811067ffffffffffffffff82111715611e6857611e67611f2d565b5b80604052505050565b7f4e487b7100000000000000000000000000000000000000000000000000000000600052601160045260246000fd5b7f4e487b7100000000000000000000000000000000000000000000000000000000600052601260045260246000fd5b7f4e487b7100000000000000000000000000000000000000000000000000000000600052602160045260246000fd5b7f4e487b7100000000000000000000000000000000000000000000000000000000600052602260045260246000fd5b7f4e487b7100000000000000000000000000000000000000000000000000000000600052604160045260246000fd5b600080fd5b600080fd5b600080fd5b600080fd5b6000601f19601f8301169050919050565b7f74686973206163636f756e74206973206e6f7420617574686f72697a6564207460008201527f6f2075706461746520746865206369706865727465787420696e666f726d617460208201527f696f6e0000000000000000000000000000000000000000000000000000000000604082015250565b7f74686520636f6e7472616374206861732079657420746f20626520636172726960008201527f656420746f207465726d00000000000000000000000000000000000000000000602082015250565b7f74686973206973206163636f756e74206973206e6f7420696e2074686520727560008201527f6e6e696e67207374617465000000000000000000000000000000000000000000602082015250565b7f796f752063616e206f6e6c792075736520636c6f73656f7574206f7074696f6e60008201527f732032206f722033000000000000000000000000000000000000000000000000602082015250565b7f74686973206163636f756e74206973206e6f7420617574686f72697a6564207460008201527f6f207472696767657220616e206561726c7920636c6f73656f75740000000000602082015250565b7f636f6e7472616374206973206e6f7420696e20616e20617661696c61626c652060008201527f7374617465000000000000000000000000000000000000000000000000000000602082015250565b7f746869732061646472657373206973206e6f7420617070726f76656420746f2060008201527f63616c6c207468652070757263686173652066756e6374696f6e000000000000602082015250565b7f796f75206d757374206d616b6520612073656c656374696f6e2062657477656560008201527f6e203020616e6420330000000000000000000000000000000000000000000000602082015250565b7f496e697469616c697a61626c653a20636f6e747261637420697320616c72656160008201527f647920696e697469616c697a6564000000000000000000000000000000000000602082015250565b7f74686973206973206163636f756e74206973206e6f7420617574686f72697a6560008201527f6420746f207570646174652074686520636f6e747261637420706172616d657460208201527f6572730000000000000000000000000000000000000000000000000000000000604082015250565b7f74686520636f6e7472616374206973206e6f7420696e207468652072756e6e6960008201527f6e67207374617465000000000000000000000000000000000000000000000000602082015250565b7f74686973206163636f756e74206973206e6f7420617574686f72697a6564207460008201527f6f20747269676765722061206d69642d636f6e747261637420636c6f73656f7560208201527f7400000000000000000000000000000000000000000000000000000000000000604082015250565b600281106123b8576123b7611ecf565b5b50565b6123c481611d5f565b81146123cf57600080fd5b50565b6123db81611d71565b81146123e657600080fd5b50565b6123f281611db0565b81146123fd57600080fd5b5056fea264697066735822122082e35ff58367f437283141f215b9fb641e26b550113e399dfb647305840ec37764736f6c63430008070033",
	"immutableReferences": {},
	"source": "//SPDX-License-Identifier: MIT\n\npragma solidity >0.8.0;\n\nimport \"@openzeppelin/contracts/proxy/Clones.sol\";\nimport './Implementation.sol';\nimport './LumerinToken.sol';\n\n/// @title CloneFactory\n/// @author Josh Kean (Lumerin)\n/// @notice Variables passed into contract initializer are subject to change based on the design of the hashrate contract\n\n//CloneFactory now responsible for minting, purchasing, and tracking contracts\ncontract CloneFactory {\n\taddress baseImplementation;\n\taddress validator;\n\taddress proxy;\n\taddress lmnDeploy;\n\taddress webfacingAddress;\n\taddress[] public rentalContracts; //dynamically allocated list of rental contracts\n\tLumerin lumerin;\n\n\tconstructor(address _lmn, address _validator, address _proxy) {\n\t\tImplementation _imp = new Implementation();\n\t\tbaseImplementation = address(_imp);\n\t\tlmnDeploy = _lmn; //deployed address of lumeirn token\n\t\tvalidator = _validator;\n\t\tproxy = _proxy;\n\t\tlumerin = Lumerin(_lmn);\n\t}\n\n\tevent contractCreated(address indexed _address); //emitted whenever a contract is created\n\tevent clonefactoryContractPurchased(address indexed _address); //emitted whenever a contract is purchased\n\n\t//function to create a new Implementation contract\n\tfunction setCreateNewRentalContract(\n\t\tuint _price,\n\t\tuint _limit,\n\t\tuint _speed,\n\t\tuint _length,\n\t\taddress _validator\n\t) external returns(address){\n\t\taddress _newContract = Clones.clone(baseImplementation);\n\t\tImplementation(_newContract).initialize(_price, _limit, _speed, _length, msg.sender, lmnDeploy, address(this), _validator);\n\t\trentalContracts.push(_newContract); //add clone to list of contracts\n\t\temit contractCreated(_newContract);\n\t\treturn _newContract;\n\t}\n\n\n\t//function to purchase a hashrate contract\n\t//requires the clonefactory to be able to spend tokens on behalf of the purchaser\n\tfunction setPurchaseRentalContract(\n\t\taddress contractAddress,\n\t\tstring memory _cipherText\n\t) external {\n\t\tImplementation targetContract = Implementation(contractAddress);\n\t\tuint _price = targetContract.price();\n\t\trequire(lumerin.allowance(msg.sender, address(this)) >= _price, \"not authorized to spend required funds\");\n\t\tlumerin.transferFrom(msg.sender, contractAddress, _price);\n\t\ttargetContract.setPurchaseContract(\n\t\t\t_cipherText, msg.sender\n\t\t);\n\t\temit clonefactoryContractPurchased(contractAddress);\n\t}\n\n\n\tfunction getContractList() public view returns(address[] memory) {\n\t\taddress[] memory _rentalContracts = rentalContracts;\n\t\treturn _rentalContracts;\n\t}\n\n}\n",
	"sourcePath": "/Users/joshkean/Documents/smart_contracts/validator/contracts/CloneFactory.sol",
	"compiler": {
		"name": "solc",
		"version": "0.8.7+commit.e28d00a7.Emscripten.clang"
	},
	"schemaVersion": "3.4.2",
	"updatedAt": "2022-01-03T18:14:02.826Z",
	"networkType": "ethereum",
	"devdoc": {
		"author": "Josh Kean (Lumerin)",
		"kind": "dev",
		"methods": {},
		"title": "CloneFactory",
		"version": 1
	},
	"userdoc": {
		"kind": "user",
		"methods": {},
		"notice": "Variables passed into contract initializer are subject to change based on the design of the hashrate contract",
		"version": 1
	}
}