{
	"contractName": "Implementation",
	"abi": [
		{
			"anonymous": false,
			"inputs": [
				{
					"indexed": false,
					"internalType": "address",
					"name": "caller",
					"type": "address"
				}
			],
			"name": "contractClosed",
			"type": "event"
		},
		{
			"anonymous": false,
			"inputs": [
				{
					"indexed": false,
					"internalType": "address",
					"name": "_buyer",
					"type": "address"
				}
			],
			"name": "contractPurchased",
			"type": "event"
		},
		{
			"inputs": [],
			"name": "buyer",
			"outputs": [
				{
					"internalType": "address",
					"name": "",
					"type": "address"
				}
			],
			"stateMutability": "view",
			"type": "function"
		},
		{
			"inputs": [],
			"name": "contractState",
			"outputs": [
				{
					"internalType": "enum Implementation.ContractState",
					"name": "",
					"type": "uint8"
				}
			],
			"stateMutability": "view",
			"type": "function"
		},
		{
			"inputs": [],
			"name": "contractTotal",
			"outputs": [
				{
					"internalType": "uint256",
					"name": "",
					"type": "uint256"
				}
			],
			"stateMutability": "view",
			"type": "function"
		},
		{
			"inputs": [],
			"name": "encryptedPoolData",
			"outputs": [
				{
					"internalType": "string",
					"name": "",
					"type": "string"
				}
			],
			"stateMutability": "view",
			"type": "function"
		},
		{
			"inputs": [],
			"name": "escrow_purchaser",
			"outputs": [
				{
					"internalType": "address",
					"name": "",
					"type": "address"
				}
			],
			"stateMutability": "view",
			"type": "function"
		},
		{
			"inputs": [],
			"name": "escrow_seller",
			"outputs": [
				{
					"internalType": "address",
					"name": "",
					"type": "address"
				}
			],
			"stateMutability": "view",
			"type": "function"
		},
		{
			"inputs": [],
			"name": "length",
			"outputs": [
				{
					"internalType": "uint256",
					"name": "",
					"type": "uint256"
				}
			],
			"stateMutability": "view",
			"type": "function"
		},
		{
			"inputs": [],
			"name": "limit",
			"outputs": [
				{
					"internalType": "uint256",
					"name": "",
					"type": "uint256"
				}
			],
			"stateMutability": "view",
			"type": "function"
		},
		{
			"inputs": [],
			"name": "port",
			"outputs": [
				{
					"internalType": "uint256",
					"name": "",
					"type": "uint256"
				}
			],
			"stateMutability": "view",
			"type": "function"
		},
		{
			"inputs": [],
			"name": "price",
			"outputs": [
				{
					"internalType": "uint256",
					"name": "",
					"type": "uint256"
				}
			],
			"stateMutability": "view",
			"type": "function"
		},
		{
			"inputs": [],
			"name": "receivedTotal",
			"outputs": [
				{
					"internalType": "uint256",
					"name": "",
					"type": "uint256"
				}
			],
			"stateMutability": "view",
			"type": "function"
		},
		{
			"inputs": [],
			"name": "seller",
			"outputs": [
				{
					"internalType": "address",
					"name": "",
					"type": "address"
				}
			],
			"stateMutability": "view",
			"type": "function"
		},
		{
			"inputs": [],
			"name": "speed",
			"outputs": [
				{
					"internalType": "uint256",
					"name": "",
					"type": "uint256"
				}
			],
			"stateMutability": "view",
			"type": "function"
		},
		{
			"inputs": [],
			"name": "startingBlockTimestamp",
			"outputs": [
				{
					"internalType": "uint256",
					"name": "",
					"type": "uint256"
				}
			],
			"stateMutability": "view",
			"type": "function"
		},
		{
			"inputs": [],
			"name": "validationFee",
			"outputs": [
				{
					"internalType": "uint256",
					"name": "",
					"type": "uint256"
				}
			],
			"stateMutability": "view",
			"type": "function"
		},
		{
			"inputs": [
				{
					"internalType": "uint256",
					"name": "_price",
					"type": "uint256"
				},
				{
					"internalType": "uint256",
					"name": "_limit",
					"type": "uint256"
				},
				{
					"internalType": "uint256",
					"name": "_speed",
					"type": "uint256"
				},
				{
					"internalType": "uint256",
					"name": "_length",
					"type": "uint256"
				},
				{
					"internalType": "uint256",
					"name": "_validationFee",
					"type": "uint256"
				},
				{
					"internalType": "address",
					"name": "_seller",
					"type": "address"
				},
				{
					"internalType": "address",
					"name": "_contractManager",
					"type": "address"
				},
				{
					"internalType": "address",
					"name": "_lmn",
					"type": "address"
				}
			],
			"name": "initialize",
			"outputs": [],
			"stateMutability": "nonpayable",
			"type": "function"
		},
		{
			"inputs": [
				{
					"internalType": "string",
					"name": "_encryptedPoolData",
					"type": "string"
				},
				{
					"internalType": "address",
					"name": "_buyer",
					"type": "address"
				},
				{
					"internalType": "address",
					"name": "_validator",
					"type": "address"
				},
				{
					"internalType": "bool",
					"name": "_withValidator",
					"type": "bool"
				}
			],
			"name": "setPurchaseContract",
			"outputs": [],
			"stateMutability": "payable",
			"type": "function"
		},
		{
			"inputs": [],
			"name": "setContractCloseOut",
			"outputs": [],
			"stateMutability": "nonpayable",
			"type": "function"
		},
		{
			"inputs": [],
			"name": "setFundContract",
			"outputs": [],
			"stateMutability": "nonpayable",
			"type": "function"
		}
	],
	"bytecode": "0x608060405234801561001057600080fd5b50611e08806100206000396000f3fe6080604052600436106101145760003560e01c80638331ed49116100a0578063b6293b3411610064578063b6293b341461034e578063c20906ac14610365578063c5095d6814610390578063ce0c722a146103bb578063f8bbf27e146103e657610114565b80638331ed491461028657806385209ee0146102a25780638b7e4b13146102cd578063a035b1fe146102f8578063a4d66daf1461032357610114565b80631f7b6d32116100e75780631f7b6d32146101c557806326b3c68b146101f05780634897b9ac1461021b5780637150d8ae1461023257806374a348121461025d57610114565b806308551a5314610119578063089aa8a2146101445780630a61e2d91461016f57806316713b371461019a575b600080fd5b34801561012557600080fd5b5061012e610411565b60405161013b9190611716565b60405180910390f35b34801561015057600080fd5b50610159610437565b6040516101669190611716565b60405180910390f35b34801561017b57600080fd5b5061018461045d565b6040516101919190611857565b60405180910390f35b3480156101a657600080fd5b506101af610463565b6040516101bc9190611857565b60405180910390f35b3480156101d157600080fd5b506101da610469565b6040516101e79190611857565b60405180910390f35b3480156101fc57600080fd5b5061020561046f565b6040516102129190611857565b60405180910390f35b34801561022757600080fd5b50610230610475565b005b34801561023e57600080fd5b506102476105db565b6040516102549190611716565b60405180910390f35b34801561026957600080fd5b50610284600480360381019061027f9190611528565b610601565b005b6102a0600480360381019061029b9190611478565b6107bb565b005b3480156102ae57600080fd5b506102b7610ad4565b6040516102c4919061175a565b60405180910390f35b3480156102d957600080fd5b506102e2610ae7565b6040516102ef9190611775565b60405180910390f35b34801561030457600080fd5b5061030d610b75565b60405161031a9190611857565b60405180910390f35b34801561032f57600080fd5b50610338610b7b565b6040516103459190611857565b60405180910390f35b34801561035a57600080fd5b50610363610b81565b005b34801561037157600080fd5b5061037a610cb4565b6040516103879190611857565b60405180910390f35b34801561039c57600080fd5b506103a5610cba565b6040516103b29190611857565b60405180910390f35b3480156103c757600080fd5b506103d0610cc0565b6040516103dd9190611716565b60405180910390f35b3480156103f257600080fd5b506103fb610ce6565b6040516104089190611857565b60405180910390f35b600e60009054906101000a900473ffffffffffffffffffffffffffffffffffffffff1681565b600060029054906101000a900473ffffffffffffffffffffffffffffffffffffffff1681565b60035481565b60045481565b60095481565b600a5481565b60011515601260003373ffffffffffffffffffffffffffffffffffffffff1673ffffffffffffffffffffffffffffffffffffffff16815260200190815260200160002060009054906101000a900460ff16151514610508576040517f08c379a00000000000000000000000000000000000000000000000000000000081526004016104ff90611797565b60405180910390fd5b6000600c5442610518919061196f565b9050600080600954831061052f576000915061055a565b60095483600954610540919061196f565b60065461054d9190611915565b61055791906118e4565b91505b81600654610568919061196f565b90506105748183610cec565b6003600560146101000a81548160ff0219169083600381111561059a57610599611b13565b5b02179055507faadd128c35976a01ffffa9dfb8d363b3358597ce6b30248bcf25e80bd3af4512336040516105ce9190611716565b60405180910390a1505050565b600d60009054906101000a900473ffffffffffffffffffffffffffffffffffffffff1681565b600060019054906101000a900460ff1680610627575060008054906101000a900460ff16155b610666576040517f08c379a000000000000000000000000000000000000000000000000000000000815260040161065d90611817565b60405180910390fd5b60008060019054906101000a900460ff1615905080156106b6576001600060016101000a81548160ff02191690831515021790555060016000806101000a81548160ff0219169083151502179055505b8860068190555087600781905550866008819055508560098190555083600e60006101000a81548173ffffffffffffffffffffffffffffffffffffffff021916908373ffffffffffffffffffffffffffffffffffffffff16021790555084600b8190555082600f60006101000a81548173ffffffffffffffffffffffffffffffffffffffff021916908373ffffffffffffffffffffffffffffffffffffffff1602179055506000600560146101000a81548160ff0219169083600381111561078157610780611b13565b5b021790555061078f82610e94565b80156107b05760008060016101000a81548160ff0219169083151502179055505b505050505050505050565b600060038111156107cf576107ce611b13565b5b600560149054906101000a900460ff1660038111156107f1576107f0611b13565b5b14610831576040517f08c379a0000000000000000000000000000000000000000000000000000000008152600401610828906117d7565b60405180910390fd5b83601190805190602001906108479291906112cf565b5082600d60006101000a81548173ffffffffffffffffffffffffffffffffffffffff021916908373ffffffffffffffffffffffffffffffffffffffff16021790555081600f60006101000a81548173ffffffffffffffffffffffffffffffffffffffff021916908373ffffffffffffffffffffffffffffffffffffffff16021790555061091b600e60009054906101000a900473ffffffffffffffffffffffffffffffffffffffff16600d60009054906101000a900473ffffffffffffffffffffffffffffffffffffffff16600654610f3b565b6001151581151514156109c5576001601260008473ffffffffffffffffffffffffffffffffffffffff1673ffffffffffffffffffffffffffffffffffffffff16815260200190815260200160002060006101000a81548160ff021916908315150217905550600b5434146109c4576040517f08c379a00000000000000000000000000000000000000000000000000000000081526004016109bb90611837565b60405180910390fd5b5b6001601260008573ffffffffffffffffffffffffffffffffffffffff1673ffffffffffffffffffffffffffffffffffffffff16815260200190815260200160002060006101000a81548160ff021916908315150217905550600160126000600e60009054906101000a900473ffffffffffffffffffffffffffffffffffffffff1673ffffffffffffffffffffffffffffffffffffffff1673ffffffffffffffffffffffffffffffffffffffff16815260200190815260200160002060006101000a81548160ff0219169083151502179055507f0c00d1d6cea0bd55f7d3b6e92ef60237b117b050185fc2816c708fd45f45e5bb33604051610ac69190611716565b60405180910390a150505050565b600560149054906101000a900460ff1681565b60118054610af490611a52565b80601f0160208091040260200160405190810160405280929190818152602001828054610b2090611a52565b8015610b6d5780601f10610b4257610100808354040283529160200191610b6d565b820191906000526020600020905b815481529060010190602001808311610b5057829003601f168201915b505050505081565b60065481565b60075481565b6000610b8b610fc9565b14610bcb576040517f08c379a0000000000000000000000000000000000000000000000000000000008152600401610bc2906117b7565b60405180910390fd5b6001151560126000600d60009054906101000a900473ffffffffffffffffffffffffffffffffffffffff1673ffffffffffffffffffffffffffffffffffffffff1673ffffffffffffffffffffffffffffffffffffffff16815260200190815260200160002060009054906101000a900460ff16151514610c80576040517f08c379a0000000000000000000000000000000000000000000000000000000008152600401610c77906117f7565b60405180910390fd5b42600c819055506002600560146101000a81548160ff02191690836003811115610cad57610cac611b13565b5b0217905550565b60085481565b600c5481565b600160009054906101000a900473ffffffffffffffffffffffffffffffffffffffff1681565b600b5481565b600560009054906101000a900473ffffffffffffffffffffffffffffffffffffffff1673ffffffffffffffffffffffffffffffffffffffff1663a9059cbb600160009054906101000a900473ffffffffffffffffffffffffffffffffffffffff16846040518363ffffffff1660e01b8152600401610d6b929190611731565b602060405180830381600087803b158015610d8557600080fd5b505af1158015610d99573d6000803e3d6000fd5b505050506040513d601f19601f82011682018060405250810190610dbd919061144b565b50600560009054906101000a900473ffffffffffffffffffffffffffffffffffffffff1673ffffffffffffffffffffffffffffffffffffffff1663a9059cbb600060029054906101000a900473ffffffffffffffffffffffffffffffffffffffff16836040518363ffffffff1660e01b8152600401610e3d929190611731565b602060405180830381600087803b158015610e5757600080fd5b505af1158015610e6b573d6000803e3d6000fd5b505050506040513d601f19601f82011682018060405250810190610e8f919061144b565b505050565b80600260006101000a81548173ffffffffffffffffffffffffffffffffffffffff021916908373ffffffffffffffffffffffffffffffffffffffff160217905550600260009054906101000a900473ffffffffffffffffffffffffffffffffffffffff16600560006101000a81548173ffffffffffffffffffffffffffffffffffffffff021916908373ffffffffffffffffffffffffffffffffffffffff16021790555050565b82600160006101000a81548173ffffffffffffffffffffffffffffffffffffffff021916908373ffffffffffffffffffffffffffffffffffffffff16021790555081600060026101000a81548173ffffffffffffffffffffffffffffffffffffffff021916908373ffffffffffffffffffffffffffffffffffffffff16021790555080600381905550505050565b6000600354600560009054906101000a900473ffffffffffffffffffffffffffffffffffffffff1673ffffffffffffffffffffffffffffffffffffffff166370a08231306040518263ffffffff1660e01b81526004016110299190611716565b60206040518083038186803b15801561104157600080fd5b505afa158015611055573d6000803e3d6000fd5b505050506040513d601f19601f8201168201806040525081019061107991906114fb565b111561121157600560009054906101000a900473ffffffffffffffffffffffffffffffffffffffff1673ffffffffffffffffffffffffffffffffffffffff1663a9059cbb600060029054906101000a900473ffffffffffffffffffffffffffffffffffffffff16600354600560009054906101000a900473ffffffffffffffffffffffffffffffffffffffff1673ffffffffffffffffffffffffffffffffffffffff166370a08231306040518263ffffffff1660e01b815260040161113e9190611716565b60206040518083038186803b15801561115657600080fd5b505afa15801561116a573d6000803e3d6000fd5b505050506040513d601f19601f8201168201806040525081019061118e91906114fb565b611198919061196f565b6040518363ffffffff1660e01b81526004016111b5929190611731565b602060405180830381600087803b1580156111cf57600080fd5b505af11580156111e3573d6000803e3d6000fd5b505050506040513d601f19601f82011682018060405250810190611207919061144b565b50600090506112cc565b600560009054906101000a900473ffffffffffffffffffffffffffffffffffffffff1673ffffffffffffffffffffffffffffffffffffffff166370a08231306040518263ffffffff1660e01b815260040161126c9190611716565b60206040518083038186803b15801561128457600080fd5b505afa158015611298573d6000803e3d6000fd5b505050506040513d601f19601f820116820180604052508101906112bc91906114fb565b6003546112c9919061196f565b90505b90565b8280546112db90611a52565b90600052602060002090601f0160209004810192826112fd5760008555611344565b82601f1061131657805160ff1916838001178555611344565b82800160010185558215611344579182015b82811115611343578251825591602001919060010190611328565b5b5090506113519190611355565b5090565b5b8082111561136e576000816000905550600101611356565b5090565b600061138561138084611897565b611872565b9050828152602081018484840111156113a1576113a0611ba5565b5b6113ac848285611a10565b509392505050565b6000813590506113c381611d8d565b92915050565b6000813590506113d881611da4565b92915050565b6000815190506113ed81611da4565b92915050565b600082601f83011261140857611407611ba0565b5b8135611418848260208601611372565b91505092915050565b60008135905061143081611dbb565b92915050565b60008151905061144581611dbb565b92915050565b60006020828403121561146157611460611baf565b5b600061146f848285016113de565b91505092915050565b6000806000806080858703121561149257611491611baf565b5b600085013567ffffffffffffffff8111156114b0576114af611baa565b5b6114bc878288016113f3565b94505060206114cd878288016113b4565b93505060406114de878288016113b4565b92505060606114ef878288016113c9565b91505092959194509250565b60006020828403121561151157611510611baf565b5b600061151f84828501611436565b91505092915050565b600080600080600080600080610100898b03121561154957611548611baf565b5b60006115578b828c01611421565b98505060206115688b828c01611421565b97505060406115798b828c01611421565b965050606061158a8b828c01611421565b955050608061159b8b828c01611421565b94505060a06115ac8b828c016113b4565b93505060c06115bd8b828c016113b4565b92505060e06115ce8b828c016113b4565b9150509295985092959890939650565b6115e7816119a3565b82525050565b6115f6816119fe565b82525050565b6000611607826118c8565b61161181856118d3565b9350611621818560208601611a1f565b61162a81611bb4565b840191505092915050565b60006116426031836118d3565b915061164d82611bc5565b604082019050919050565b6000611665602e836118d3565b915061167082611c14565b604082019050919050565b60006116886025836118d3565b915061169382611c63565b604082019050919050565b60006116ab6023836118d3565b91506116b682611cb2565b604082019050919050565b60006116ce602e836118d3565b91506116d982611d01565b604082019050919050565b60006116f16017836118d3565b91506116fc82611d50565b602082019050919050565b611710816119f4565b82525050565b600060208201905061172b60008301846115de565b92915050565b600060408201905061174660008301856115de565b6117536020830184611707565b9392505050565b600060208201905061176f60008301846115ed565b92915050565b6000602082019050818103600083015261178f81846115fc565b905092915050565b600060208201905081810360008301526117b081611635565b9050919050565b600060208201905081810360008301526117d081611658565b9050919050565b600060208201905081810360008301526117f08161167b565b9050919050565b600060208201905081810360008301526118108161169e565b9050919050565b60006020820190508181036000830152611830816116c1565b9050919050565b60006020820190508181036000830152611850816116e4565b9050919050565b600060208201905061186c6000830184611707565b92915050565b600061187c61188d565b90506118888282611a84565b919050565b6000604051905090565b600067ffffffffffffffff8211156118b2576118b1611b71565b5b6118bb82611bb4565b9050602081019050919050565b600081519050919050565b600082825260208201905092915050565b60006118ef826119f4565b91506118fa836119f4565b92508261190a57611909611ae4565b5b828204905092915050565b6000611920826119f4565b915061192b836119f4565b9250817fffffffffffffffffffffffffffffffffffffffffffffffffffffffffffffffff048311821515161561196457611963611ab5565b5b828202905092915050565b600061197a826119f4565b9150611985836119f4565b92508282101561199857611997611ab5565b5b828203905092915050565b60006119ae826119d4565b9050919050565b60008115159050919050565b60008190506119cf82611d79565b919050565b600073ffffffffffffffffffffffffffffffffffffffff82169050919050565b6000819050919050565b6000611a09826119c1565b9050919050565b82818337600083830152505050565b60005b83811015611a3d578082015181840152602081019050611a22565b83811115611a4c576000848401525b50505050565b60006002820490506001821680611a6a57607f821691505b60208210811415611a7e57611a7d611b42565b5b50919050565b611a8d82611bb4565b810181811067ffffffffffffffff82111715611aac57611aab611b71565b5b80604052505050565b7f4e487b7100000000000000000000000000000000000000000000000000000000600052601160045260246000fd5b7f4e487b7100000000000000000000000000000000000000000000000000000000600052601260045260246000fd5b7f4e487b7100000000000000000000000000000000000000000000000000000000600052602160045260246000fd5b7f4e487b7100000000000000000000000000000000000000000000000000000000600052602260045260246000fd5b7f4e487b7100000000000000000000000000000000000000000000000000000000600052604160045260246000fd5b600080fd5b600080fd5b600080fd5b600080fd5b6000601f19601f8301169050919050565b7f746869732061646472657373206973206e6f7420616c6c6f77656420746f206360008201527f616c6c20746869732066756e6374696f6e000000000000000000000000000000602082015250565b7f6c756d6572696e20746f6b656e73206e65656420746f2062652073656e74207460008201527f6f2074686520636f6e7472616374000000000000000000000000000000000000602082015250565b7f636f6e7472616374206973206e6f7420696e20616e20617661696c61626c652060008201527f7374617465000000000000000000000000000000000000000000000000000000602082015250565b7f74686520636f6e747261637420686173206e6f74206265656e2070757263686160008201527f7365640000000000000000000000000000000000000000000000000000000000602082015250565b7f496e697469616c697a61626c653a20636f6e747261637420697320616c72656160008201527f647920696e697469616c697a6564000000000000000000000000000000000000602082015250565b7f76616c69646174696f6e20666565206e6f742073656e74000000000000000000600082015250565b60048110611d8a57611d89611b13565b5b50565b611d96816119a3565b8114611da157600080fd5b50565b611dad816119b5565b8114611db857600080fd5b50565b611dc4816119f4565b8114611dcf57600080fd5b5056fea2646970667358221220e37fe0c8a06751bcef76547e2cc416b335e3231765a02be54aa0513e3b9ee04964736f6c63430008070033",
	"immutableReferences": {},
	"source": "//SPDX-License-Identifier: UNLICENSED\n\npragma solidity >0.8.0;\n\nimport \"@openzeppelin/contracts/proxy/utils/Initializable.sol\";\nimport \"./Escrow.sol\";\n\n\n//MyToken is place holder for actual lumerin token, purely for testing purposes\ncontract Implementation is Initializable, Escrow{\n  enum ContractState {\n    Available,\n    Active,\n    Running,\n    Complete\n  }\n\n  ContractState public contractState; \n  uint public price; //cost to purchase contract\n  uint public limit; //max th provided\n  uint public speed; //th/s of contract\n  uint public length; //how long the contract will last in seconds\n  uint public port; //port provided by buyer\n  uint public validationFee; //validator fee, may not be included in the contract depending on future state of documentation\n  uint public startingBlockTimestamp; //the timestamp of the block when the contract was purchased\n  address public buyer; //address of the current purchaser of the contract\n  address public seller; //address of the seller of the contract\n  address contractManager; //should be hardcoded somewhere...\n  address penaltyTarget; //will only have a value assigned if a a penalty is called\n  string public encryptedPoolData; //encrypted data for pool target info\n\n  mapping(address => bool) approved;\n\n  function initialize(\n    uint _price,\n    uint _limit,\n    uint _speed,\n    uint _length,\n    uint _validationFee,\n    address _seller,\n    address _contractManager,\n    address _lmn\n  ) public initializer(){\n    price = _price;\n    limit = _limit;\n    speed = _speed;\n    length = _length;\n    seller = _seller;\n    validationFee = _validationFee;\n    contractManager = _contractManager;\n    contractState = ContractState.Available;\n    setParameters(_lmn);\n  }\n\n\n  modifier onlyApproved() { //look into replacing this in open zeppelin\n    require(approved[msg.sender] == true, \"this address is not allowed to call this function\");\n    _;\n  }\n\n  event contractPurchased(address _buyer);\n  event contractClosed(address caller);\n  \n\n  //need to remove lmn from contract call, also need to remove from webfacing\n  function setPurchaseContract( string memory _encryptedPoolData, address _buyer, address _validator, bool _withValidator) \n    payable external {\n    require(contractState == ContractState.Available, \"contract is not in an available state\");\n    encryptedPoolData = _encryptedPoolData;\n    buyer = _buyer;\n    contractManager = _validator;\n    createEscrow(seller, buyer, price);\n    if (_withValidator == true) {\n      approved[_validator] = true;\n      require(msg.value == validationFee, \"validation fee not sent\");\n    } \n\tapproved[_buyer] = true;\n\tapproved[seller] = true;\n    emit contractPurchased(msg.sender); //might need to replace this with an additional passed in variable for the contract purchaser\n  }\n\n\n  //this is the closeout function which will be called upon successful completion of the contract\n  function setContractCloseOut() external onlyApproved {\n    uint durationOfContract = block.timestamp - startingBlockTimestamp;\n    uint buyerPayOut;\n    uint sellerPayOut;\n    if (durationOfContract >= length) {\n      buyerPayOut = 0;\n    } else {\n      buyerPayOut = uint(price*uint(length-durationOfContract))/uint(length); \n    }\n    sellerPayOut = price - buyerPayOut;\n    withdrawFunds(sellerPayOut, buyerPayOut);\n    contractState = ContractState.Complete;\n    emit contractClosed(msg.sender);\n  }\n\n  //function which checks to see if lumerin has been sent to the contracts address\n  //this call is necessary since somebody could fund a contract with lumerin before setPurchaseContract\n  //and then another person could call the setPurchaseContract function, essentially \"stealing\" the contract\n  function setFundContract() external {\n    //if escrow is fully funded, set contract state to running\n    require(dueAmount() == 0, \"lumerin tokens need to be sent to the contract\");\n    require(approved[buyer] == true, \"the contract has not been purchased\");\n    startingBlockTimestamp = block.timestamp;\n    contractState = ContractState.Running;\n  }\n}\n\n",
	"sourcePath": "/Users/joshkean/Documents/deployments/support_contracts/validator/contracts/Implementation.sol",
	"compiler": {
		"name": "solc",
		"version": "0.8.7+commit.e28d00a7.Emscripten.clang"
	},
	"schemaVersion": "3.4.2",
	"updatedAt": "2021-11-03T23:58:52.557Z",
	"devdoc": {
		"kind": "dev",
		"methods": {},
		"version": 1
	},
	"userdoc": {
		"kind": "user",
		"methods": {},
		"version": 1
	}
}