{
  "contractName": "Implementation",
  "abi": [
    {
      "anonymous": false,
      "inputs": [
        {
          "indexed": false,
          "internalType": "string",
          "name": "newCipherText",
          "type": "string"
        }
      ],
      "name": "cipherTextUpdated",
      "type": "event"
    },
    {
      "anonymous": false,
      "inputs": [],
      "name": "contractClosed",
      "type": "event"
    },
    {
      "anonymous": false,
      "inputs": [
        {
          "indexed": true,
          "internalType": "address",
          "name": "_buyer",
          "type": "address"
        }
      ],
      "name": "contractPurchased",
      "type": "event"
    },
    {
      "anonymous": false,
      "inputs": [],
      "name": "purchaseInfoUpdated",
      "type": "event"
    },
    {
      "inputs": [],
      "name": "buyer",
      "outputs": [
        {
          "internalType": "address",
          "name": "",
          "type": "address"
        }
      ],
      "stateMutability": "view",
      "type": "function"
    },
    {
      "inputs": [],
      "name": "contractState",
      "outputs": [
        {
          "internalType": "enum Implementation.ContractState",
          "name": "",
          "type": "uint8"
        }
      ],
      "stateMutability": "view",
      "type": "function"
    },
    {
      "inputs": [],
      "name": "contractTotal",
      "outputs": [
        {
          "internalType": "uint256",
          "name": "",
          "type": "uint256"
        }
      ],
      "stateMutability": "view",
      "type": "function"
    },
    {
      "inputs": [],
      "name": "encryptedPoolData",
      "outputs": [
        {
          "internalType": "string",
          "name": "",
          "type": "string"
        }
      ],
      "stateMutability": "view",
      "type": "function"
    },
    {
      "inputs": [],
      "name": "escrow_purchaser",
      "outputs": [
        {
          "internalType": "address",
          "name": "",
          "type": "address"
        }
      ],
      "stateMutability": "view",
      "type": "function"
    },
    {
      "inputs": [],
      "name": "escrow_seller",
      "outputs": [
        {
          "internalType": "address",
          "name": "",
          "type": "address"
        }
      ],
      "stateMutability": "view",
      "type": "function"
    },
    {
      "inputs": [],
      "name": "length",
      "outputs": [
        {
          "internalType": "uint256",
          "name": "",
          "type": "uint256"
        }
      ],
      "stateMutability": "view",
      "type": "function"
    },
    {
      "inputs": [],
      "name": "limit",
      "outputs": [
        {
          "internalType": "uint256",
          "name": "",
          "type": "uint256"
        }
      ],
      "stateMutability": "view",
      "type": "function"
    },
    {
      "inputs": [],
      "name": "price",
      "outputs": [
        {
          "internalType": "uint256",
          "name": "",
          "type": "uint256"
        }
      ],
      "stateMutability": "view",
      "type": "function"
    },
    {
      "inputs": [],
      "name": "receivedTotal",
      "outputs": [
        {
          "internalType": "uint256",
          "name": "",
          "type": "uint256"
        }
      ],
      "stateMutability": "view",
      "type": "function"
    },
    {
      "inputs": [],
      "name": "seller",
      "outputs": [
        {
          "internalType": "address",
          "name": "",
          "type": "address"
        }
      ],
      "stateMutability": "view",
      "type": "function"
    },
    {
      "inputs": [],
      "name": "speed",
      "outputs": [
        {
          "internalType": "uint256",
          "name": "",
          "type": "uint256"
        }
      ],
      "stateMutability": "view",
      "type": "function"
    },
    {
      "inputs": [],
      "name": "startingBlockTimestamp",
      "outputs": [
        {
          "internalType": "uint256",
          "name": "",
          "type": "uint256"
        }
      ],
      "stateMutability": "view",
      "type": "function"
    },
    {
      "inputs": [
        {
          "internalType": "uint256",
          "name": "_price",
          "type": "uint256"
        },
        {
          "internalType": "uint256",
          "name": "_limit",
          "type": "uint256"
        },
        {
          "internalType": "uint256",
          "name": "_speed",
          "type": "uint256"
        },
        {
          "internalType": "uint256",
          "name": "_length",
          "type": "uint256"
        },
        {
          "internalType": "address",
          "name": "_seller",
          "type": "address"
        },
        {
          "internalType": "address",
          "name": "_lmn",
          "type": "address"
        },
        {
          "internalType": "address",
          "name": "_cloneFactory",
          "type": "address"
        },
        {
          "internalType": "address",
          "name": "_validator",
          "type": "address"
        }
      ],
      "name": "initialize",
      "outputs": [],
      "stateMutability": "nonpayable",
      "type": "function"
    },
    {
      "inputs": [],
      "name": "getPublicVariables",
      "outputs": [
        {
          "internalType": "enum Implementation.ContractState",
          "name": "",
          "type": "uint8"
        },
        {
          "internalType": "uint256",
          "name": "",
          "type": "uint256"
        },
        {
          "internalType": "uint256",
          "name": "",
          "type": "uint256"
        },
        {
          "internalType": "uint256",
          "name": "",
          "type": "uint256"
        },
        {
          "internalType": "uint256",
          "name": "",
          "type": "uint256"
        },
        {
          "internalType": "uint256",
          "name": "",
          "type": "uint256"
        },
        {
          "internalType": "address",
          "name": "",
          "type": "address"
        },
        {
          "internalType": "address",
          "name": "",
          "type": "address"
        },
        {
          "internalType": "string",
          "name": "",
          "type": "string"
        }
      ],
      "stateMutability": "view",
      "type": "function"
    },
    {
      "inputs": [
        {
          "internalType": "string",
          "name": "_encryptedPoolData",
          "type": "string"
        },
        {
          "internalType": "address",
          "name": "_buyer",
          "type": "address"
        }
      ],
      "name": "setPurchaseContract",
      "outputs": [],
      "stateMutability": "nonpayable",
      "type": "function"
    },
    {
      "inputs": [
        {
          "internalType": "string",
          "name": "_newEncryptedPoolData",
          "type": "string"
        }
      ],
      "name": "setUpdateMiningInformation",
      "outputs": [],
      "stateMutability": "nonpayable",
      "type": "function"
    },
    {
      "inputs": [
        {
          "internalType": "uint256",
          "name": "_price",
          "type": "uint256"
        },
        {
          "internalType": "uint256",
          "name": "_limit",
          "type": "uint256"
        },
        {
          "internalType": "uint256",
          "name": "_speed",
          "type": "uint256"
        },
        {
          "internalType": "uint256",
          "name": "_length",
          "type": "uint256"
        },
        {
          "internalType": "uint256",
          "name": "_closeoutType",
          "type": "uint256"
        }
      ],
      "name": "setUpdatePurchaseInformation",
      "outputs": [],
      "stateMutability": "nonpayable",
      "type": "function"
    },
    {
      "inputs": [
        {
          "internalType": "uint256",
          "name": "closeOutType",
          "type": "uint256"
        }
      ],
      "name": "setContractCloseOut",
      "outputs": [],
      "stateMutability": "nonpayable",
      "type": "function"
    }
  ],
  "bytecode": "0x608060405234801561001057600080fd5b50600180819055506126a7806100276000396000f3fe608060405234801561001057600080fd5b50600436106101215760003560e01c80638b7e4b13116100ad578063c5095d6811610071578063c5095d68146102c4578063ca3225fa146102e2578063ce0c722a14610308578063ddcb1bf214610326578063f1a6e3011461034257610121565b80638b7e4b13146102305780638e2e6d5d1461024e578063a035b1fe1461026a578063a4d66daf14610288578063c20906ac146102a657610121565b80631f7b6d32116100f45780631f7b6d321461019e5780633a5d4213146101bc5780637150d8ae146101d8578063719e6b5b146101f657806385209ee01461021257610121565b806308551a5314610126578063089aa8a2146101445780630a61e2d91461016257806316713b3714610180575b600080fd5b61012e61035e565b60405161013b9190611ba6565b60405180910390f35b61014c610384565b6040516101599190611ba6565b60405180910390f35b61016a6103aa565b6040516101779190611e5b565b60405180910390f35b6101886103b0565b6040516101959190611e5b565b60405180910390f35b6101a66103b6565b6040516101b39190611e5b565b60405180910390f35b6101d660048036038101906101d19190611848565b6103bc565b005b6101e06105b0565b6040516101ed9190611ba6565b60405180910390f35b610210600480360381019061020b9190611749565b6105d6565b005b61021a61072c565b6040516102279190611bea565b60405180910390f35b61023861073f565b6040516102459190611c99565b60405180910390f35b610268600480360381019061026391906117ee565b6107cd565b005b610272610ad5565b60405161027f9190611e5b565b60405180910390f35b610290610adb565b60405161029d9190611e5b565b60405180910390f35b6102ae610ae1565b6040516102bb9190611e5b565b60405180910390f35b6102cc610ae7565b6040516102d99190611e5b565b60405180910390f35b6102ea610aed565b6040516102ff99989796959493929190611c05565b60405180910390f35b610310610c0b565b60405161031d9190611ba6565b60405180910390f35b610340600480360381019061033b9190611792565b610c31565b005b61035c600480360381019061035791906118fe565b610e59565b005b600d60009054906101000a900473ffffffffffffffffffffffffffffffffffffffff1681565b600260009054906101000a900473ffffffffffffffffffffffffffffffffffffffff1681565b60045481565b60055481565b600a5481565b600060019054906101000a900460ff16806103e2575060008054906101000a900460ff16155b610421576040517f08c379a000000000000000000000000000000000000000000000000000000000815260040161041890611dbb565b60405180910390fd5b60008060019054906101000a900460ff161590508015610471576001600060016101000a81548160ff02191690831515021790555060016000806101000a81548160ff0219169083151502179055505b88600781905550876008819055508660098190555085600a8190555084600d60006101000a81548173ffffffffffffffffffffffffffffffffffffffff021916908373ffffffffffffffffffffffffffffffffffffffff16021790555082600e60006101000a81548173ffffffffffffffffffffffffffffffffffffffff021916908373ffffffffffffffffffffffffffffffffffffffff16021790555081600f60006101000a81548173ffffffffffffffffffffffffffffffffffffffff021916908373ffffffffffffffffffffffffffffffffffffffff1602179055506000600660146101000a81548160ff0219169083600181111561057657610575612117565b5b02179055506105848461105c565b80156105a55760008060016101000a81548160ff0219169083151502179055505b505050505050505050565b600c60009054906101000a900473ffffffffffffffffffffffffffffffffffffffff1681565b600c60009054906101000a900473ffffffffffffffffffffffffffffffffffffffff1673ffffffffffffffffffffffffffffffffffffffff163373ffffffffffffffffffffffffffffffffffffffff1614610666576040517f08c379a000000000000000000000000000000000000000000000000000000000815260040161065d90611cbb565b60405180910390fd5b60018081111561067957610678612117565b5b600660149054906101000a900460ff16600181111561069b5761069a612117565b5b146106db576040517f08c379a00000000000000000000000000000000000000000000000000000000081526004016106d290611dfb565b60405180910390fd5b80601090805190602001906106f19291906115b5565b507f2301ef7d9f42b857543faf9e285b5807e028d4ae99810ea7fe0aadda3a717e9d816040516107219190611c99565b60405180910390a150565b600660149054906101000a900460ff1681565b6010805461074c90612056565b80601f016020809104026020016040519081016040528092919081815260200182805461077890612056565b80156107c55780601f1061079a576101008083540402835291602001916107c5565b820191906000526020600020905b8154815290600101906020018083116107a857829003601f168201915b505050505081565b600081141561091b57600c60009054906101000a900473ffffffffffffffffffffffffffffffffffffffff1673ffffffffffffffffffffffffffffffffffffffff163373ffffffffffffffffffffffffffffffffffffffff16148061087f5750600f60009054906101000a900473ffffffffffffffffffffffffffffffffffffffff1673ffffffffffffffffffffffffffffffffffffffff163373ffffffffffffffffffffffffffffffffffffffff16145b6108be576040517f08c379a00000000000000000000000000000000000000000000000000000000081526004016108b590611d3b565b60405180910390fd5b60006108c86110a0565b90506108e1816007546108db9190611f73565b826110e1565b6108e96112e7565b7ff5e1a452bb76d7335225182a97ad694be2c7b4b5d75dcffb67ddf15db95f484460405160405180910390a150610ad2565b60018114156109d657600d60009054906101000a900473ffffffffffffffffffffffffffffffffffffffff1673ffffffffffffffffffffffffffffffffffffffff163373ffffffffffffffffffffffffffffffffffffffff16146109b4576040517f08c379a00000000000000000000000000000000000000000000000000000000081526004016109ab90611e1b565b60405180910390fd5b6109d16109bf6110a0565b6007546109cc9190611f73565b61139d565b610ad1565b60028114806109e55750600381145b15610a8c57600a54600b54426109fb9190611f73565b1015610a3c576040517f08c379a0000000000000000000000000000000000000000000000000000000008152600401610a3390611cdb565b60405180910390fd5b6003811415610a5357610a5260075460006110e1565b5b610a5b6112e7565b7ff5e1a452bb76d7335225182a97ad694be2c7b4b5d75dcffb67ddf15db95f484460405160405180910390a1610ad0565b60048110610acf576040517f08c379a0000000000000000000000000000000000000000000000000000000008152600401610ac690611d9b565b60405180910390fd5b5b5b5b50565b60075481565b60085481565b60095481565b600b5481565b6000806000806000806000806060600660149054906101000a900460ff16600754600854600954600a54600b54600c60009054906101000a900473ffffffffffffffffffffffffffffffffffffffff16600d60009054906101000a900473ffffffffffffffffffffffffffffffffffffffff166010808054610b6e90612056565b80601f0160208091040260200160405190810160405280929190818152602001828054610b9a90612056565b8015610be75780601f10610bbc57610100808354040283529160200191610be7565b820191906000526020600020905b815481529060010190602001808311610bca57829003601f168201915b50505050509050985098509850985098509850985098509850909192939495969798565b600360009054906101000a900473ffffffffffffffffffffffffffffffffffffffff1681565b60006001811115610c4557610c44612117565b5b600660149054906101000a900460ff166001811115610c6757610c66612117565b5b14610ca7576040517f08c379a0000000000000000000000000000000000000000000000000000000008152600401610c9e90611d5b565b60405180910390fd5b600e60009054906101000a900473ffffffffffffffffffffffffffffffffffffffff1673ffffffffffffffffffffffffffffffffffffffff163373ffffffffffffffffffffffffffffffffffffffff1614610d37576040517f08c379a0000000000000000000000000000000000000000000000000000000008152600401610d2e90611d7b565b60405180910390fd5b8160109080519060200190610d4d9291906115b5565b5080600c60006101000a81548173ffffffffffffffffffffffffffffffffffffffff021916908373ffffffffffffffffffffffffffffffffffffffff16021790555042600b819055506001600660146101000a81548160ff02191690836001811115610dbc57610dbb612117565b5b0217905550610e12600d60009054906101000a900473ffffffffffffffffffffffffffffffffffffffff16600c60009054906101000a900473ffffffffffffffffffffffffffffffffffffffff16600754611527565b3373ffffffffffffffffffffffffffffffffffffffff167f0c00d1d6cea0bd55f7d3b6e92ef60237b117b050185fc2816c708fd45f45e5bb60405160405180910390a25050565b6000600b5442610e699190611f73565b9050600d60009054906101000a900473ffffffffffffffffffffffffffffffffffffffff1673ffffffffffffffffffffffffffffffffffffffff163373ffffffffffffffffffffffffffffffffffffffff1614610efb576040517f08c379a0000000000000000000000000000000000000000000000000000000008152600401610ef290611ddb565b60405180910390fd5b600180811115610f0e57610f0d612117565b5b600660149054906101000a900460ff166001811115610f3057610f2f612117565b5b14610f70576040517f08c379a0000000000000000000000000000000000000000000000000000000008152600401610f6790611cfb565b60405180910390fd5b6002821480610f7f5750600382145b610fbe576040517f08c379a0000000000000000000000000000000000000000000000000000000008152600401610fb590611d1b565b60405180910390fd5b600a54811015611003576040517f08c379a0000000000000000000000000000000000000000000000000000000008152600401610ffa90611cdb565b60405180910390fd5b61100c826107cd565b85600781905550846008819055508360098190555082600a819055507f03e052767f275c0c51cc93a76255d42498341feb7a5beef7cc11fd57c5b6681860405160405180910390a1505050505050565b80600660006101000a81548173ffffffffffffffffffffffffffffffffffffffff021916908373ffffffffffffffffffffffffffffffffffffffff16021790555050565b600080600b54426110b19190611f73565b9050600a5481600a546110c49190611f73565b6007546110d19190611f19565b6110db9190611ee8565b91505090565b60026001541415611127576040517f08c379a000000000000000000000000000000000000000000000000000000000815260040161111e90611e3b565b60405180910390fd5b6002600181905550600660009054906101000a900473ffffffffffffffffffffffffffffffffffffffff1673ffffffffffffffffffffffffffffffffffffffff1663a9059cbb600360009054906101000a900473ffffffffffffffffffffffffffffffffffffffff16846040518363ffffffff1660e01b81526004016111ae929190611bc1565b602060405180830381600087803b1580156111c857600080fd5b505af11580156111dc573d6000803e3d6000fd5b505050506040513d601f19601f82011682018060405250810190611200919061171c565b50600081146112dc57600660009054906101000a900473ffffffffffffffffffffffffffffffffffffffff1673ffffffffffffffffffffffffffffffffffffffff1663a9059cbb600260009054906101000a900473ffffffffffffffffffffffffffffffffffffffff16836040518363ffffffff1660e01b8152600401611288929190611bc1565b602060405180830381600087803b1580156112a257600080fd5b505af11580156112b6573d6000803e3d6000fd5b505050506040513d601f19601f820116820180604052508101906112da919061171c565b505b600180819055505050565b600d60009054906101000a900473ffffffffffffffffffffffffffffffffffffffff16600c60006101000a81548173ffffffffffffffffffffffffffffffffffffffff021916908373ffffffffffffffffffffffffffffffffffffffff160217905550604051806020016040528060008152506010908051906020019061136f9291906115b5565b506000600660146101000a81548160ff0219169083600181111561139657611395612117565b5b0217905550565b600660009054906101000a900473ffffffffffffffffffffffffffffffffffffffff1673ffffffffffffffffffffffffffffffffffffffff1663a9059cbb600360009054906101000a900473ffffffffffffffffffffffffffffffffffffffff1683600660009054906101000a900473ffffffffffffffffffffffffffffffffffffffff1673ffffffffffffffffffffffffffffffffffffffff166370a08231306040518263ffffffff1660e01b815260040161145a9190611ba6565b60206040518083038186803b15801561147257600080fd5b505afa158015611486573d6000803e3d6000fd5b505050506040513d601f19601f820116820180604052508101906114aa919061181b565b6114b49190611f73565b6040518363ffffffff1660e01b81526004016114d1929190611bc1565b602060405180830381600087803b1580156114eb57600080fd5b505af11580156114ff573d6000803e3d6000fd5b505050506040513d601f19601f82011682018060405250810190611523919061171c565b5050565b82600360006101000a81548173ffffffffffffffffffffffffffffffffffffffff021916908373ffffffffffffffffffffffffffffffffffffffff16021790555081600260006101000a81548173ffffffffffffffffffffffffffffffffffffffff021916908373ffffffffffffffffffffffffffffffffffffffff16021790555080600481905550505050565b8280546115c190612056565b90600052602060002090601f0160209004810192826115e3576000855561162a565b82601f106115fc57805160ff191683800117855561162a565b8280016001018555821561162a579182015b8281111561162957825182559160200191906001019061160e565b5b509050611637919061163b565b5090565b5b8082111561165457600081600090555060010161163c565b5090565b600061166b61166684611e9b565b611e76565b905082815260208101848484011115611687576116866121a9565b5b611692848285612014565b509392505050565b6000813590506116a98161262c565b92915050565b6000815190506116be81612643565b92915050565b600082601f8301126116d9576116d86121a4565b5b81356116e9848260208601611658565b91505092915050565b6000813590506117018161265a565b92915050565b6000815190506117168161265a565b92915050565b600060208284031215611732576117316121b3565b5b6000611740848285016116af565b91505092915050565b60006020828403121561175f5761175e6121b3565b5b600082013567ffffffffffffffff81111561177d5761177c6121ae565b5b611789848285016116c4565b91505092915050565b600080604083850312156117a9576117a86121b3565b5b600083013567ffffffffffffffff8111156117c7576117c66121ae565b5b6117d3858286016116c4565b92505060206117e48582860161169a565b9150509250929050565b600060208284031215611804576118036121b3565b5b6000611812848285016116f2565b91505092915050565b600060208284031215611831576118306121b3565b5b600061183f84828501611707565b91505092915050565b600080600080600080600080610100898b031215611869576118686121b3565b5b60006118778b828c016116f2565b98505060206118888b828c016116f2565b97505060406118998b828c016116f2565b96505060606118aa8b828c016116f2565b95505060806118bb8b828c0161169a565b94505060a06118cc8b828c0161169a565b93505060c06118dd8b828c0161169a565b92505060e06118ee8b828c0161169a565b9150509295985092959890939650565b600080600080600060a0868803121561191a576119196121b3565b5b6000611928888289016116f2565b9550506020611939888289016116f2565b945050604061194a888289016116f2565b935050606061195b888289016116f2565b925050608061196c888289016116f2565b9150509295509295909350565b61198281611fa7565b82525050565b61199181612002565b82525050565b60006119a282611ecc565b6119ac8185611ed7565b93506119bc818560208601612023565b6119c5816121b8565b840191505092915050565b60006119dd604383611ed7565b91506119e8826121c9565b606082019050919050565b6000611a00602a83611ed7565b9150611a0b8261223e565b604082019050919050565b6000611a23602b83611ed7565b9150611a2e8261228d565b604082019050919050565b6000611a46602883611ed7565b9150611a51826122dc565b604082019050919050565b6000611a69603b83611ed7565b9150611a748261232b565b604082019050919050565b6000611a8c602583611ed7565b9150611a978261237a565b604082019050919050565b6000611aaf603a83611ed7565b9150611aba826123c9565b604082019050919050565b6000611ad2602983611ed7565b9150611add82612418565b604082019050919050565b6000611af5602e83611ed7565b9150611b0082612467565b604082019050919050565b6000611b18604383611ed7565b9150611b23826124b6565b606082019050919050565b6000611b3b602883611ed7565b9150611b468261252b565b604082019050919050565b6000611b5e604183611ed7565b9150611b698261257a565b606082019050919050565b6000611b81601f83611ed7565b9150611b8c826125ef565b602082019050919050565b611ba081611ff8565b82525050565b6000602082019050611bbb6000830184611979565b92915050565b6000604082019050611bd66000830185611979565b611be36020830184611b97565b9392505050565b6000602082019050611bff6000830184611988565b92915050565b600061012082019050611c1b600083018c611988565b611c28602083018b611b97565b611c35604083018a611b97565b611c426060830189611b97565b611c4f6080830188611b97565b611c5c60a0830187611b97565b611c6960c0830186611979565b611c7660e0830185611979565b818103610100830152611c898184611997565b90509a9950505050505050505050565b60006020820190508181036000830152611cb38184611997565b905092915050565b60006020820190508181036000830152611cd4816119d0565b9050919050565b60006020820190508181036000830152611cf4816119f3565b9050919050565b60006020820190508181036000830152611d1481611a16565b9050919050565b60006020820190508181036000830152611d3481611a39565b9050919050565b60006020820190508181036000830152611d5481611a5c565b9050919050565b60006020820190508181036000830152611d7481611a7f565b9050919050565b60006020820190508181036000830152611d9481611aa2565b9050919050565b60006020820190508181036000830152611db481611ac5565b9050919050565b60006020820190508181036000830152611dd481611ae8565b9050919050565b60006020820190508181036000830152611df481611b0b565b9050919050565b60006020820190508181036000830152611e1481611b2e565b9050919050565b60006020820190508181036000830152611e3481611b51565b9050919050565b60006020820190508181036000830152611e5481611b74565b9050919050565b6000602082019050611e706000830184611b97565b92915050565b6000611e80611e91565b9050611e8c8282612088565b919050565b6000604051905090565b600067ffffffffffffffff821115611eb657611eb5612175565b5b611ebf826121b8565b9050602081019050919050565b600081519050919050565b600082825260208201905092915050565b6000611ef382611ff8565b9150611efe83611ff8565b925082611f0e57611f0d6120e8565b5b828204905092915050565b6000611f2482611ff8565b9150611f2f83611ff8565b9250817fffffffffffffffffffffffffffffffffffffffffffffffffffffffffffffffff0483118215151615611f6857611f676120b9565b5b828202905092915050565b6000611f7e82611ff8565b9150611f8983611ff8565b925082821015611f9c57611f9b6120b9565b5b828203905092915050565b6000611fb282611fd8565b9050919050565b60008115159050919050565b6000819050611fd382612618565b919050565b600073ffffffffffffffffffffffffffffffffffffffff82169050919050565b6000819050919050565b600061200d82611fc5565b9050919050565b82818337600083830152505050565b60005b83811015612041578082015181840152602081019050612026565b83811115612050576000848401525b50505050565b6000600282049050600182168061206e57607f821691505b6020821081141561208257612081612146565b5b50919050565b612091826121b8565b810181811067ffffffffffffffff821117156120b0576120af612175565b5b80604052505050565b7f4e487b7100000000000000000000000000000000000000000000000000000000600052601160045260246000fd5b7f4e487b7100000000000000000000000000000000000000000000000000000000600052601260045260246000fd5b7f4e487b7100000000000000000000000000000000000000000000000000000000600052602160045260246000fd5b7f4e487b7100000000000000000000000000000000000000000000000000000000600052602260045260246000fd5b7f4e487b7100000000000000000000000000000000000000000000000000000000600052604160045260246000fd5b600080fd5b600080fd5b600080fd5b600080fd5b6000601f19601f8301169050919050565b7f74686973206163636f756e74206973206e6f7420617574686f72697a6564207460008201527f6f2075706461746520746865206369706865727465787420696e666f726d617460208201527f696f6e0000000000000000000000000000000000000000000000000000000000604082015250565b7f74686520636f6e7472616374206861732079657420746f20626520636172726960008201527f656420746f207465726d00000000000000000000000000000000000000000000602082015250565b7f74686973206973206163636f756e74206973206e6f7420696e2074686520727560008201527f6e6e696e67207374617465000000000000000000000000000000000000000000602082015250565b7f796f752063616e206f6e6c792075736520636c6f73656f7574206f7074696f6e60008201527f732032206f722033000000000000000000000000000000000000000000000000602082015250565b7f74686973206163636f756e74206973206e6f7420617574686f72697a6564207460008201527f6f207472696767657220616e206561726c7920636c6f73656f75740000000000602082015250565b7f636f6e7472616374206973206e6f7420696e20616e20617661696c61626c652060008201527f7374617465000000000000000000000000000000000000000000000000000000602082015250565b7f746869732061646472657373206973206e6f7420617070726f76656420746f2060008201527f63616c6c207468652070757263686173652066756e6374696f6e000000000000602082015250565b7f796f75206d757374206d616b6520612073656c656374696f6e2062657477656560008201527f6e203020616e6420330000000000000000000000000000000000000000000000602082015250565b7f496e697469616c697a61626c653a20636f6e747261637420697320616c72656160008201527f647920696e697469616c697a6564000000000000000000000000000000000000602082015250565b7f74686973206973206163636f756e74206973206e6f7420617574686f72697a6560008201527f6420746f207570646174652074686520636f6e747261637420706172616d657460208201527f6572730000000000000000000000000000000000000000000000000000000000604082015250565b7f74686520636f6e7472616374206973206e6f7420696e207468652072756e6e6960008201527f6e67207374617465000000000000000000000000000000000000000000000000602082015250565b7f74686973206163636f756e74206973206e6f7420617574686f72697a6564207460008201527f6f20747269676765722061206d69642d636f6e747261637420636c6f73656f7560208201527f7400000000000000000000000000000000000000000000000000000000000000604082015250565b7f5265656e7472616e637947756172643a207265656e7472616e742063616c6c00600082015250565b6002811061262957612628612117565b5b50565b61263581611fa7565b811461264057600080fd5b50565b61264c81611fb9565b811461265757600080fd5b50565b61266381611ff8565b811461266e57600080fd5b5056fea26469706673582212203043ec46b0cc3229faa806cacb27e01ff6a15163ef19c18f5ea767d78be2e4af64736f6c63430008070033",
  "immutableReferences": {},
  "source": "//SPDX-License-Identifier: UNLICENSED\n\npragma solidity >0.8.0;\n\nimport \"@openzeppelin/contracts/proxy/utils/Initializable.sol\";\nimport \"./Escrow.sol\";\n\n//MyToken is place holder for actual lumerin token, purely for testing purposes\ncontract Implementation is Initializable, Escrow {\n    enum ContractState {\n        Available,\n        Running\n    }\n\n    ContractState public contractState;\n    uint256 public price; //cost to purchase contract\n    uint256 public limit; //variable used to aid in the lumerin nodes decision making\n    uint256 public speed; //th/s of contract\n    uint256 public length; //how long the contract will last in seconds\n    uint256 public startingBlockTimestamp; //the timestamp of the block when the contract was purchased\n    address public buyer; //address of the current purchaser of the contract\n    address public seller; //address of the seller of the contract\n    address cloneFactory; //used to limit where the purchase can be made\n    address validator; //validator to be used. Can be set to 0 address if validator not being used\n    string public encryptedPoolData; //encrypted data for pool target info\n\n    event contractPurchased(address indexed _buyer); //make indexed\n    event contractClosed();\n    event purchaseInfoUpdated();\n    event cipherTextUpdated(string newCipherText);\n\n    function initialize(\n        uint256 _price,\n        uint256 _limit,\n        uint256 _speed,\n        uint256 _length,\n        address _seller,\n        address _lmn,\n        address _cloneFactory, //used to restrict purchasing power to only the clonefactory\n        address _validator\n    ) public initializer {\n        price = _price;\n        limit = _limit;\n        speed = _speed;\n        length = _length;\n        seller = _seller;\n        cloneFactory = _cloneFactory;\n        validator = _validator;\n        contractState = ContractState.Available;\n        setParameters(_lmn);\n    }\n\n    function getPublicVariables()\n        public\n        view\n        returns (\n            ContractState,\n            uint256,\n            uint256,\n            uint256,\n            uint256,\n            uint256,\n            address,\n            address,\n            string memory\n        )\n    {\n        return (\n            contractState,\n            price,\n            limit,\n            speed,\n            length,\n            startingBlockTimestamp,\n            buyer,\n            seller,\n            encryptedPoolData\n        );\n    }\n\n    //function that the clone factory calls to purchase the contract\n    function setPurchaseContract(\n        string memory _encryptedPoolData,\n        address _buyer\n    ) public {\n        require(\n            contractState == ContractState.Available,\n            \"contract is not in an available state\"\n        );\n        require(\n            msg.sender == cloneFactory,\n            \"this address is not approved to call the purchase function\"\n        );\n        encryptedPoolData = _encryptedPoolData;\n        buyer = _buyer;\n        startingBlockTimestamp = block.timestamp;\n        contractState = ContractState.Running;\n        createEscrow(seller, buyer, price);\n        emit contractPurchased(msg.sender);\n    }\n\n    //allows the buyers to update their mining pool information\n    //during the lifecycle of the contract\n    function setUpdateMiningInformation(string memory _newEncryptedPoolData)\n        external\n    {\n        require(\n            msg.sender == buyer,\n            \"this account is not authorized to update the ciphertext information\"\n        );\n        require(\n            contractState == ContractState.Running,\n            \"the contract is not in the running state\"\n        );\n        encryptedPoolData = _newEncryptedPoolData;\n        emit cipherTextUpdated(_newEncryptedPoolData);\n    }\n\n    //function which can edit the cost, length, and hashrate of a given contract\n    function setUpdatePurchaseInformation(\n        uint256 _price,\n        uint256 _limit,\n        uint256 _speed,\n        uint256 _length,\n        uint256 _closeoutType\n    ) external {\n        uint256 durationOfContract = block.timestamp - startingBlockTimestamp;\n        require(\n            msg.sender == seller,\n            \"this is account is not authorized to update the contract parameters\"\n        );\n        require(\n            contractState == ContractState.Running,\n            \"this is account is not in the running state\"\n        );\n        require(\n            _closeoutType == 2 || _closeoutType == 3,\n            \"you can only use closeout options 2 or 3\"\n        );\n        require(\n            durationOfContract >= length,\n            \"the contract has yet to be carried to term\"\n        );\n        setContractCloseOut(_closeoutType);\n        price = _price;\n        limit = _limit;\n        speed = _speed;\n        length = _length;\n        emit purchaseInfoUpdated();\n    }\n\n    function setContractVariableUpdate() internal {\n        buyer = seller;\n        encryptedPoolData = \"\";\n        contractState = ContractState.Available;\n    }\n\n    function buyerPayoutCalc() internal view returns (uint256) {\n        uint256 durationOfContract = block.timestamp - startingBlockTimestamp;\n        return\n            uint256(price * uint256(length - durationOfContract)) /\n            uint256(length);\n    }\n\n    function setContractCloseOut(uint256 closeOutType) public {\n        if (closeOutType == 0) {\n            //this is a function call to be triggered by the buyer or validator\n            //in the event that a contract needs to be canceled early for any reason\n            require(\n                msg.sender == buyer || msg.sender == validator,\n                \"this account is not authorized to trigger an early closeout\"\n            );\n            uint256 buyerPayout = buyerPayoutCalc();\n            withdrawFunds(price - buyerPayout, buyerPayout);\n            setContractVariableUpdate();\n            emit contractClosed();\n        } else if (closeOutType == 1) {\n            //this is a function call for the seller to withdraw their funds\n            //at any time during the smart contracts lifecycle\n            require(\n                msg.sender == seller,\n                \"this account is not authorized to trigger a mid-contract closeout\"\n            );\n            getDepositContractHodlingsToSeller(price - buyerPayoutCalc());\n        } else if (closeOutType == 2 || closeOutType == 3) {\n            require(\n                block.timestamp - startingBlockTimestamp >= length,\n                \"the contract has yet to be carried to term\"\n            );\n            if (closeOutType == 3) {\n                withdrawFunds(price, 0);\n            }\n            setContractVariableUpdate();\n            emit contractClosed();\n        } else {\n            require(\n                closeOutType < 4,\n                \"you must make a selection between 0 and 3\"\n            );\n        }\n    }\n}\n",
  "sourcePath": "/Users/joshkean/Documents/smart_contracts/ropsten_launch/contracts/Implementation.sol",
  "compiler": {
    "name": "solc",
    "version": "0.8.7+commit.e28d00a7.Emscripten.clang"
  },
  "schemaVersion": "3.4.2",
  "updatedAt": "2022-03-24T15:06:08.378Z",
  "devdoc": {
    "kind": "dev",
    "methods": {},
    "version": 1
  },
  "userdoc": {
    "kind": "user",
    "methods": {},
    "version": 1
  }
}