{
	"contractName": "Implementation",
	"abi": [
		{
			"anonymous": false,
			"inputs": [],
			"name": "contractCanceled",
			"type": "event"
		},
		{
			"anonymous": false,
			"inputs": [],
			"name": "contractClosed",
			"type": "event"
		},
		{
			"anonymous": false,
			"inputs": [
				{
					"indexed": false,
					"internalType": "address",
					"name": "_buyer",
					"type": "address"
				}
			],
			"name": "contractPurchased",
			"type": "event"
		},
		{
			"anonymous": false,
			"inputs": [
				{
					"indexed": false,
					"internalType": "uint256",
					"name": "date",
					"type": "uint256"
				},
				{
					"indexed": false,
					"internalType": "string",
					"name": "val",
					"type": "string"
				}
			],
			"name": "dataEvent",
			"type": "event"
		},
		{
			"inputs": [],
			"name": "buyer",
			"outputs": [
				{
					"internalType": "address",
					"name": "",
					"type": "address"
				}
			],
			"stateMutability": "view",
			"type": "function"
		},
		{
			"inputs": [],
			"name": "contractState",
			"outputs": [
				{
					"internalType": "enum Implementation.ContractState",
					"name": "",
					"type": "uint8"
				}
			],
			"stateMutability": "view",
			"type": "function"
		},
		{
			"inputs": [],
			"name": "contractTotal",
			"outputs": [
				{
					"internalType": "uint256",
					"name": "",
					"type": "uint256"
				}
			],
			"stateMutability": "view",
			"type": "function"
		},
		{
			"inputs": [],
			"name": "currentState",
			"outputs": [
				{
					"internalType": "enum Escrow.State",
					"name": "",
					"type": "uint8"
				}
			],
			"stateMutability": "view",
			"type": "function"
		},
		{
			"inputs": [],
			"name": "dueAmount",
			"outputs": [
				{
					"internalType": "uint256",
					"name": "",
					"type": "uint256"
				}
			],
			"stateMutability": "view",
			"type": "function"
		},
		{
			"inputs": [],
			"name": "escrow_purchaser",
			"outputs": [
				{
					"internalType": "address",
					"name": "",
					"type": "address"
				}
			],
			"stateMutability": "view",
			"type": "function"
		},
		{
			"inputs": [],
			"name": "escrow_seller",
			"outputs": [
				{
					"internalType": "address",
					"name": "",
					"type": "address"
				}
			],
			"stateMutability": "view",
			"type": "function"
		},
		{
			"inputs": [],
			"name": "length",
			"outputs": [
				{
					"internalType": "uint256",
					"name": "",
					"type": "uint256"
				}
			],
			"stateMutability": "view",
			"type": "function"
		},
		{
			"inputs": [],
			"name": "limit",
			"outputs": [
				{
					"internalType": "uint256",
					"name": "",
					"type": "uint256"
				}
			],
			"stateMutability": "view",
			"type": "function"
		},
		{
			"inputs": [],
			"name": "port",
			"outputs": [
				{
					"internalType": "uint256",
					"name": "",
					"type": "uint256"
				}
			],
			"stateMutability": "view",
			"type": "function"
		},
		{
			"inputs": [],
			"name": "price",
			"outputs": [
				{
					"internalType": "uint256",
					"name": "",
					"type": "uint256"
				}
			],
			"stateMutability": "view",
			"type": "function"
		},
		{
			"inputs": [],
			"name": "receivedTotal",
			"outputs": [
				{
					"internalType": "uint256",
					"name": "",
					"type": "uint256"
				}
			],
			"stateMutability": "view",
			"type": "function"
		},
		{
			"inputs": [],
			"name": "seller",
			"outputs": [
				{
					"internalType": "address",
					"name": "",
					"type": "address"
				}
			],
			"stateMutability": "view",
			"type": "function"
		},
		{
			"inputs": [],
			"name": "speed",
			"outputs": [
				{
					"internalType": "uint256",
					"name": "",
					"type": "uint256"
				}
			],
			"stateMutability": "view",
			"type": "function"
		},
		{
			"inputs": [],
			"name": "startingBlockTimestamp",
			"outputs": [
				{
					"internalType": "uint256",
					"name": "",
					"type": "uint256"
				}
			],
			"stateMutability": "view",
			"type": "function"
		},
		{
			"inputs": [],
			"name": "validationFee",
			"outputs": [
				{
					"internalType": "uint256",
					"name": "",
					"type": "uint256"
				}
			],
			"stateMutability": "view",
			"type": "function"
		},
		{
			"inputs": [
				{
					"internalType": "uint256",
					"name": "_price",
					"type": "uint256"
				},
				{
					"internalType": "uint256",
					"name": "_limit",
					"type": "uint256"
				},
				{
					"internalType": "uint256",
					"name": "_speed",
					"type": "uint256"
				},
				{
					"internalType": "uint256",
					"name": "_length",
					"type": "uint256"
				},
				{
					"internalType": "uint256",
					"name": "_validationFee",
					"type": "uint256"
				},
				{
					"internalType": "address",
					"name": "_seller",
					"type": "address"
				},
				{
					"internalType": "address",
					"name": "_contractManager",
					"type": "address"
				},
				{
					"internalType": "address",
					"name": "_lmn",
					"type": "address"
				}
			],
			"name": "initialize",
			"outputs": [],
			"stateMutability": "nonpayable",
			"type": "function"
		},
		{
			"inputs": [],
			"name": "getMiningPoolInformation",
			"outputs": [
				{
					"internalType": "string",
					"name": "",
					"type": "string"
				},
				{
					"internalType": "string",
					"name": "",
					"type": "string"
				},
				{
					"internalType": "string",
					"name": "",
					"type": "string"
				}
			],
			"stateMutability": "view",
			"type": "function"
		},
		{
			"inputs": [
				{
					"internalType": "string",
					"name": "_ipaddress",
					"type": "string"
				},
				{
					"internalType": "string",
					"name": "_username",
					"type": "string"
				},
				{
					"internalType": "string",
					"name": "_password",
					"type": "string"
				},
				{
					"internalType": "address",
					"name": "_buyer",
					"type": "address"
				},
				{
					"internalType": "address",
					"name": "_validator",
					"type": "address"
				},
				{
					"internalType": "bool",
					"name": "_withValidator",
					"type": "bool"
				}
			],
			"name": "setPurchaseContract",
			"outputs": [],
			"stateMutability": "payable",
			"type": "function"
		},
		{
			"inputs": [],
			"name": "setContractCloseOut",
			"outputs": [],
			"stateMutability": "nonpayable",
			"type": "function"
		},
		{
			"inputs": [],
			"name": "setFundContract",
			"outputs": [],
			"stateMutability": "nonpayable",
			"type": "function"
		}
	],
	"bytecode": "0x608060405234801561001057600080fd5b5060008060026101000a81548160ff0219169083600281111561003657610035610040565b5b021790555061006f565b7f4e487b7100000000000000000000000000000000000000000000000000000000600052602160045260246000fd5b61215e8061007e6000396000f3fe60806040526004361061012a5760003560e01c80637150d8ae116100ab578063b6293b341161006f578063b6293b3414610391578063c2042965146103a8578063c20906ac146103d3578063c5095d68146103fe578063ce0c722a14610429578063f8bbf27e146104545761012a565b80637150d8ae146102bc57806374a34812146102e757806385209ee014610310578063a035b1fe1461033b578063a4d66daf146103665761012a565b806316713b37116100f257806316713b37146101f75780631f7b6d321461022257806326b3c68b1461024d5780634897b9ac14610278578063498234851461028f5761012a565b806308551a531461012f578063089aa8a21461015a5780630a61e2d9146101855780630c3f6acf146101b057806311afdfc9146101db575b600080fd5b34801561013b57600080fd5b5061014461047f565b6040516101519190611966565b60405180910390f35b34801561016657600080fd5b5061016f6104a5565b60405161017c9190611966565b60405180910390f35b34801561019157600080fd5b5061019a6104cb565b6040516101a79190611aec565b60405180910390f35b3480156101bc57600080fd5b506101c56104d1565b6040516101d291906119c5565b60405180910390f35b6101f560048036038101906101f09190611615565b6104e4565b005b34801561020357600080fd5b5061020c610838565b6040516102199190611aec565b60405180910390f35b34801561022e57600080fd5b5061023761083e565b6040516102449190611aec565b60405180910390f35b34801561025957600080fd5b50610262610844565b60405161026f9190611aec565b60405180910390f35b34801561028457600080fd5b5061028d61084a565b005b34801561029b57600080fd5b506102a46109a5565b6040516102b3939291906119e0565b60405180910390f35b3480156102c857600080fd5b506102d1610bf2565b6040516102de9190611966565b60405180910390f35b3480156102f357600080fd5b5061030e60048036038101906103099190611723565b610c18565b005b34801561031c57600080fd5b50610325610df5565b60405161033291906119aa565b60405180910390f35b34801561034757600080fd5b50610350610e08565b60405161035d9190611aec565b60405180910390f35b34801561037257600080fd5b5061037b610e0e565b6040516103889190611aec565b60405180910390f35b34801561039d57600080fd5b506103a6610e14565b005b3480156103b457600080fd5b506103bd610fbd565b6040516103ca9190611aec565b60405180910390f35b3480156103df57600080fd5b506103e861107c565b6040516103f59190611aec565b60405180910390f35b34801561040a57600080fd5b50610413611082565b6040516104209190611aec565b60405180910390f35b34801561043557600080fd5b5061043e611088565b60405161044b9190611966565b60405180910390f35b34801561046057600080fd5b506104696110ae565b6040516104769190611aec565b60405180910390f35b600f60009054906101000a900473ffffffffffffffffffffffffffffffffffffffff1681565b600060039054906101000a900473ffffffffffffffffffffffffffffffffffffffff1681565b60045481565b600060029054906101000a900460ff1681565b600060038111156104f8576104f7611e29565b5b600660149054906101000a900460ff16600381111561051a57610519611e29565b5b1461055a576040517f08c379a000000000000000000000000000000000000000000000000000000000815260040161055190611a6c565b60405180910390fd5b856012908051906020019061057092919061146c565b50846013908051906020019061058792919061146c565b50836014908051906020019061059e92919061146c565b5082600e60006101000a81548173ffffffffffffffffffffffffffffffffffffffff021916908373ffffffffffffffffffffffffffffffffffffffff16021790555081601060006101000a81548173ffffffffffffffffffffffffffffffffffffffff021916908373ffffffffffffffffffffffffffffffffffffffff160217905550610672600f60009054906101000a900473ffffffffffffffffffffffffffffffffffffffff16600e60009054906101000a900473ffffffffffffffffffffffffffffffffffffffff166007546110b4565b60011515811515141561071f576001601560008473ffffffffffffffffffffffffffffffffffffffff1673ffffffffffffffffffffffffffffffffffffffff16815260200190815260200160002060006101000a81548160ff0219169083151502179055506064341461071a576040517f08c379a000000000000000000000000000000000000000000000000000000000815260040161071190611aac565b60405180910390fd5b6107f2565b6001601560008573ffffffffffffffffffffffffffffffffffffffff1673ffffffffffffffffffffffffffffffffffffffff16815260200190815260200160002060006101000a81548160ff021916908315150217905550600160156000600f60009054906101000a900473ffffffffffffffffffffffffffffffffffffffff1673ffffffffffffffffffffffffffffffffffffffff1673ffffffffffffffffffffffffffffffffffffffff16815260200190815260200160002060006101000a81548160ff0219169083151502179055505b42600d819055507f0c00d1d6cea0bd55f7d3b6e92ef60237b117b050185fc2816c708fd45f45e5bb336040516108289190611966565b60405180910390a1505050505050565b60055481565b600a5481565b600b5481565b60011515601560003373ffffffffffffffffffffffffffffffffffffffff1673ffffffffffffffffffffffffffffffffffffffff16815260200190815260200160002060009054906101000a900460ff161515146108dd576040517f08c379a00000000000000000000000000000000000000000000000000000000081526004016108d490611a2c565b60405180910390fd5b6000600d54426108ed9190611c60565b9050600080600a548310610904576000915061092f565b600a5483600a546109159190611c60565b6007546109229190611c06565b61092c9190611bd5565b91505b8160075461093d9190611c60565b90506109498183611179565b6003600660146101000a81548160ff0219169083600381111561096f5761096e611e29565b5b02179055507ff5e1a452bb76d7335225182a97ad694be2c7b4b5d75dcffb67ddf15db95f484460405160405180910390a1505050565b606080606060011515601560003373ffffffffffffffffffffffffffffffffffffffff1673ffffffffffffffffffffffffffffffffffffffff16815260200190815260200160002060009054906101000a900460ff16151514610a3d576040517f08c379a0000000000000000000000000000000000000000000000000000000008152600401610a3490611a2c565b60405180910390fd5b601260136014828054610a4f90611d68565b80601f0160208091040260200160405190810160405280929190818152602001828054610a7b90611d68565b8015610ac85780601f10610a9d57610100808354040283529160200191610ac8565b820191906000526020600020905b815481529060010190602001808311610aab57829003601f168201915b50505050509250818054610adb90611d68565b80601f0160208091040260200160405190810160405280929190818152602001828054610b0790611d68565b8015610b545780601f10610b2957610100808354040283529160200191610b54565b820191906000526020600020905b815481529060010190602001808311610b3757829003601f168201915b50505050509150808054610b6790611d68565b80601f0160208091040260200160405190810160405280929190818152602001828054610b9390611d68565b8015610be05780601f10610bb557610100808354040283529160200191610be0565b820191906000526020600020905b815481529060010190602001808311610bc357829003601f168201915b50505050509050925092509250909192565b600e60009054906101000a900473ffffffffffffffffffffffffffffffffffffffff1681565b600060019054906101000a900460ff1680610c3e575060008054906101000a900460ff16155b610c7d576040517f08c379a0000000000000000000000000000000000000000000000000000000008152600401610c7490611a8c565b60405180910390fd5b60008060019054906101000a900460ff161590508015610ccd576001600060016101000a81548160ff02191690831515021790555060016000806101000a81548160ff0219169083151502179055505b88600781905550876008819055508660098190555085600a8190555083600f60006101000a81548173ffffffffffffffffffffffffffffffffffffffff021916908373ffffffffffffffffffffffffffffffffffffffff16021790555084600c8190555082601060006101000a81548173ffffffffffffffffffffffffffffffffffffffff021916908373ffffffffffffffffffffffffffffffffffffffff1602179055506000600660146101000a81548160ff02191690836003811115610d9857610d97611e29565b5b0217905550610dc9601060009054906101000a900473ffffffffffffffffffffffffffffffffffffffff1683611383565b8015610dea5760008060016101000a81548160ff0219169083151502179055505b505050505050505050565b600660149054906101000a900460ff1681565b60075481565b60085481565b6000610e1e610fbd565b14610e5e576040517f08c379a0000000000000000000000000000000000000000000000000000000008152600401610e5590611a4c565b60405180910390fd5b6001151560156000600e60009054906101000a900473ffffffffffffffffffffffffffffffffffffffff1673ffffffffffffffffffffffffffffffffffffffff1673ffffffffffffffffffffffffffffffffffffffff16815260200190815260200160002060009054906101000a900460ff1615151480610f5157506001151560156000601060009054906101000a900473ffffffffffffffffffffffffffffffffffffffff1673ffffffffffffffffffffffffffffffffffffffff1673ffffffffffffffffffffffffffffffffffffffff16815260200190815260200160002060009054906101000a900460ff161515145b610f90576040517f08c379a0000000000000000000000000000000000000000000000000000000008152600401610f8790611acc565b60405180910390fd5b6002600660146101000a81548160ff02191690836003811115610fb657610fb5611e29565b5b0217905550565b6000600660009054906101000a900473ffffffffffffffffffffffffffffffffffffffff1673ffffffffffffffffffffffffffffffffffffffff166370a08231306040518263ffffffff1660e01b815260040161101a9190611966565b60206040518083038186803b15801561103257600080fd5b505afa158015611046573d6000803e3d6000fd5b505050506040513d601f19601f8201168201806040525081019061106a91906116f6565b6004546110779190611c60565b905090565b60095481565b600d5481565b600160009054906101000a900473ffffffffffffffffffffffffffffffffffffffff1681565b600c5481565b82600160006101000a81548173ffffffffffffffffffffffffffffffffffffffff021916908373ffffffffffffffffffffffffffffffffffffffff16021790555081600060036101000a81548173ffffffffffffffffffffffffffffffffffffffff021916908373ffffffffffffffffffffffffffffffffffffffff160217905550806004819055507f88265e9be093ab2ee66f829ad3ca909591f25cd6685323b555215283e78148eb4260405161116c9190611b07565b60405180910390a1505050565b600660009054906101000a900473ffffffffffffffffffffffffffffffffffffffff1673ffffffffffffffffffffffffffffffffffffffff1663a9059cbb600160009054906101000a900473ffffffffffffffffffffffffffffffffffffffff16846040518363ffffffff1660e01b81526004016111f8929190611981565b602060405180830381600087803b15801561121257600080fd5b505af1158015611226573d6000803e3d6000fd5b505050506040513d601f19601f8201168201806040525081019061124a91906115e8565b50600660009054906101000a900473ffffffffffffffffffffffffffffffffffffffff1673ffffffffffffffffffffffffffffffffffffffff1663a9059cbb600060039054906101000a900473ffffffffffffffffffffffffffffffffffffffff16836040518363ffffffff1660e01b81526004016112ca929190611981565b602060405180830381600087803b1580156112e457600080fd5b505af11580156112f8573d6000803e3d6000fd5b505050506040513d601f19601f8201168201806040525081019061131c91906115e8565b506001600060026101000a81548160ff0219169083600281111561134357611342611e29565b5b02179055507f88265e9be093ab2ee66f829ad3ca909591f25cd6685323b555215283e78148eb426040516113779190611b35565b60405180910390a15050565b81600260006101000a81548173ffffffffffffffffffffffffffffffffffffffff021916908373ffffffffffffffffffffffffffffffffffffffff16021790555080600360006101000a81548173ffffffffffffffffffffffffffffffffffffffff021916908373ffffffffffffffffffffffffffffffffffffffff160217905550600360009054906101000a900473ffffffffffffffffffffffffffffffffffffffff16600660006101000a81548173ffffffffffffffffffffffffffffffffffffffff021916908373ffffffffffffffffffffffffffffffffffffffff1602179055505050565b82805461147890611d68565b90600052602060002090601f01602090048101928261149a57600085556114e1565b82601f106114b357805160ff19168380011785556114e1565b828001600101855582156114e1579182015b828111156114e05782518255916020019190600101906114c5565b5b5090506114ee91906114f2565b5090565b5b8082111561150b5760008160009055506001016114f3565b5090565b600061152261151d84611b88565b611b63565b90508281526020810184848401111561153e5761153d611ebb565b5b611549848285611d26565b509392505050565b600081359050611560816120e3565b92915050565b600081359050611575816120fa565b92915050565b60008151905061158a816120fa565b92915050565b600082601f8301126115a5576115a4611eb6565b5b81356115b584826020860161150f565b91505092915050565b6000813590506115cd81612111565b92915050565b6000815190506115e281612111565b92915050565b6000602082840312156115fe576115fd611ec5565b5b600061160c8482850161157b565b91505092915050565b60008060008060008060c0878903121561163257611631611ec5565b5b600087013567ffffffffffffffff8111156116505761164f611ec0565b5b61165c89828a01611590565b965050602087013567ffffffffffffffff81111561167d5761167c611ec0565b5b61168989828a01611590565b955050604087013567ffffffffffffffff8111156116aa576116a9611ec0565b5b6116b689828a01611590565b94505060606116c789828a01611551565b93505060806116d889828a01611551565b92505060a06116e989828a01611566565b9150509295509295509295565b60006020828403121561170c5761170b611ec5565b5b600061171a848285016115d3565b91505092915050565b600080600080600080600080610100898b03121561174457611743611ec5565b5b60006117528b828c016115be565b98505060206117638b828c016115be565b97505060406117748b828c016115be565b96505060606117858b828c016115be565b95505060806117968b828c016115be565b94505060a06117a78b828c01611551565b93505060c06117b88b828c01611551565b92505060e06117c98b828c01611551565b9150509295985092959890939650565b6117e281611c94565b82525050565b6117f181611d02565b82525050565b61180081611d14565b82525050565b600061181182611bb9565b61181b8185611bc4565b935061182b818560208601611d35565b61183481611eca565b840191505092915050565b600061184c600e83611bc4565b915061185782611edb565b602082019050919050565b600061186f603183611bc4565b915061187a82611f04565b604082019050919050565b6000611892602e83611bc4565b915061189d82611f53565b604082019050919050565b60006118b5602583611bc4565b91506118c082611fa2565b604082019050919050565b60006118d8602e83611bc4565b91506118e382611ff1565b604082019050919050565b60006118fb601783611bc4565b915061190682612040565b602082019050919050565b600061191e601a83611bc4565b915061192982612069565b602082019050919050565b6000611941601283611bc4565b915061194c82612092565b602082019050919050565b61196081611cf8565b82525050565b600060208201905061197b60008301846117d9565b92915050565b600060408201905061199660008301856117d9565b6119a36020830184611957565b9392505050565b60006020820190506119bf60008301846117e8565b92915050565b60006020820190506119da60008301846117f7565b92915050565b600060608201905081810360008301526119fa8186611806565b90508181036020830152611a0e8185611806565b90508181036040830152611a228184611806565b9050949350505050565b60006020820190508181036000830152611a4581611862565b9050919050565b60006020820190508181036000830152611a6581611885565b9050919050565b60006020820190508181036000830152611a85816118a8565b9050919050565b60006020820190508181036000830152611aa5816118cb565b9050919050565b60006020820190508181036000830152611ac5816118ee565b9050919050565b60006020820190508181036000830152611ae581611911565b9050919050565b6000602082019050611b016000830184611957565b92915050565b6000604082019050611b1c6000830184611957565b8181036020830152611b2d8161183f565b905092915050565b6000604082019050611b4a6000830184611957565b8181036020830152611b5b81611934565b905092915050565b6000611b6d611b7e565b9050611b798282611d9a565b919050565b6000604051905090565b600067ffffffffffffffff821115611ba357611ba2611e87565b5b611bac82611eca565b9050602081019050919050565b600081519050919050565b600082825260208201905092915050565b6000611be082611cf8565b9150611beb83611cf8565b925082611bfb57611bfa611dfa565b5b828204905092915050565b6000611c1182611cf8565b9150611c1c83611cf8565b9250817fffffffffffffffffffffffffffffffffffffffffffffffffffffffffffffffff0483118215151615611c5557611c54611dcb565b5b828202905092915050565b6000611c6b82611cf8565b9150611c7683611cf8565b925082821015611c8957611c88611dcb565b5b828203905092915050565b6000611c9f82611cd8565b9050919050565b60008115159050919050565b6000819050611cc0826120bb565b919050565b6000819050611cd3826120cf565b919050565b600073ffffffffffffffffffffffffffffffffffffffff82169050919050565b6000819050919050565b6000611d0d82611cb2565b9050919050565b6000611d1f82611cc5565b9050919050565b82818337600083830152505050565b60005b83811015611d53578082015181840152602081019050611d38565b83811115611d62576000848401525b50505050565b60006002820490506001821680611d8057607f821691505b60208210811415611d9457611d93611e58565b5b50919050565b611da382611eca565b810181811067ffffffffffffffff82111715611dc257611dc1611e87565b5b80604052505050565b7f4e487b7100000000000000000000000000000000000000000000000000000000600052601160045260246000fd5b7f4e487b7100000000000000000000000000000000000000000000000000000000600052601260045260246000fd5b7f4e487b7100000000000000000000000000000000000000000000000000000000600052602160045260246000fd5b7f4e487b7100000000000000000000000000000000000000000000000000000000600052602260045260246000fd5b7f4e487b7100000000000000000000000000000000000000000000000000000000600052604160045260246000fd5b600080fd5b600080fd5b600080fd5b600080fd5b6000601f19601f8301169050919050565b7f457363726f772043726561746564000000000000000000000000000000000000600082015250565b7f746869732061646472657373206973206e6f7420616c6c6f77656420746f206360008201527f616c6c20746869732066756e6374696f6e000000000000000000000000000000602082015250565b7f6c756d6572696e20746f6b656e73206e65656420746f2062652073656e74207460008201527f6f2074686520636f6e7472616374000000000000000000000000000000000000602082015250565b7f636f6e7472616374206973206e6f7420696e20616e20617661696c61626c652060008201527f7374617465000000000000000000000000000000000000000000000000000000602082015250565b7f496e697469616c697a61626c653a20636f6e747261637420697320616c72656160008201527f647920696e697469616c697a6564000000000000000000000000000000000000602082015250565b7f76616c69646174696f6e20666565206e6f742073656e74000000000000000000600082015250565b7f74686520627579657220686173206e6f74206265656e20736574000000000000600082015250565b7f436f6e747261637420436f6d706c657465640000000000000000000000000000600082015250565b600481106120cc576120cb611e29565b5b50565b600381106120e0576120df611e29565b5b50565b6120ec81611c94565b81146120f757600080fd5b50565b61210381611ca6565b811461210e57600080fd5b50565b61211a81611cf8565b811461212557600080fd5b5056fea26469706673582212206eff8cb3551bc7378cf6e2fcd59cd0df07296938d6556ee3bc4e193a2a19cf9864736f6c63430008070033",
	"immutableReferences": {},
	"source": "//SPDX-License-Identifier: UNLICENSED\n\npragma solidity >0.8.0;\n\nimport \"@openzeppelin/contracts/proxy/Clones.sol\";\nimport \"@openzeppelin/contracts/proxy/utils/Initializable.sol\";\nimport \"@openzeppelin/contracts/utils/math/Math.sol\";\nimport \"./Escrow.sol\";\n\n\n//MyToken is place holder for actual lumerin token, purely for testing purposes\ncontract Implementation is Initializable, Escrow{\n  enum ContractState {\n    Available,\n    Active,\n    Running,\n    Complete\n  }\n\n  ContractState public contractState; \n  uint public price; //cost to purchase contract\n  uint public limit; //max th provided\n  uint public speed; //th/s of contract\n  uint public length; //how long the contract will last in seconds\n  uint public port; //port provided by buyer\n  uint public validationFee; //validator fee, may not be included in the contract depending on future state of documentation\n  uint public startingBlockTimestamp; //the timestamp of the block when the contract was purchased\n  address public buyer; //address of the current purchaser of the contract\n  address public seller; //address of the seller of the contract\n  address contractManager; //should be hardcoded somewhere...\n  address penaltyTarget; //will only have a value assigned if a a penalty is called\n  string ipaddress; //ipaddress that hashrate power should be credited to\n  string username; //mining pool username\n  string password; //mining pool password\n\n  mapping(address => bool) approved;\n\n  function initialize(\n    uint _price,\n    uint _limit,\n    uint _speed,\n    uint _length,\n    uint _validationFee,\n    address _seller,\n    address _contractManager,\n    address _lmn\n  ) public initializer(){\n    price = _price;\n    limit = _limit;\n    speed = _speed;\n    length = _length;\n    seller = _seller;\n    validationFee = _validationFee;\n    contractManager = _contractManager;\n    contractState = ContractState.Available;\n    setParameters(contractManager, _lmn);\n  }\n\n\n  modifier onlyApproved() { //look into replacing this in open zeppelin\n    require(approved[msg.sender] == true, \"this address is not allowed to call this function\");\n    _;\n  }\n\n  event contractPurchased(address _buyer);\n  event contractClosed();\n  event contractCanceled();\n  \n  //returns the ipaddress, username, and password\n  function getMiningPoolInformation() external view onlyApproved returns (string memory, string memory, string memory) {\n    return (ipaddress, username, password);\n  }\n\n  //need to remove lmn from contract call, also need to remove from webfacing\n  function setPurchaseContract(\n    string memory _ipaddress, \n    string memory _username, \n    string memory _password, \n    address _buyer,\n    address _validator,\n    bool _withValidator\n  ) \n    payable external {\n    require(contractState == ContractState.Available, \"contract is not in an available state\");\n    ipaddress = _ipaddress;\n    username = _username;\n    password = _password;\n    buyer = _buyer;\n    contractManager = _validator;\n    createEscrow(seller, buyer, price);\n    if (_withValidator == true) {\n      approved[_validator] = true;\n      require(msg.value == 100, \"validation fee not sent\");\n    } else {\n      approved[_buyer] = true;\n      approved[seller] = true;\n    }\n    startingBlockTimestamp = block.timestamp;\n    emit contractPurchased(msg.sender); //might need to replace this with an additional passed in variable for the contract purchaser\n  }\n\n\n  //this is the closeout function which will be called upon successful completion of the contract\n  function setContractCloseOut() external onlyApproved {\n    uint durationOfContract = block.timestamp - startingBlockTimestamp;\n    uint buyerPayOut;\n    uint sellerPayOut;\n    if (durationOfContract >= length) {\n      buyerPayOut = 0;\n    } else {\n      buyerPayOut = uint(price*uint(length-durationOfContract))/uint(length); \n    }\n    sellerPayOut = price - buyerPayOut;\n    withdrawFunds(sellerPayOut, buyerPayOut);\n    contractState = ContractState.Complete;\n    emit contractClosed();\n  }\n\n  //function which checks to see if lumerin has been sent to the contracts address\n  function setFundContract() external {\n    //if escrow is fully funded, set contract state to running\n    require(dueAmount() == 0, \"lumerin tokens need to be sent to the contract\");\n    require(approved[buyer] == true || approved[contractManager] == true, \"the buyer has not been set\");\n    contractState = ContractState.Running;\n  }\n}\n\n",
	"sourcePath": "/Users/joshkean/Documents/deployments/support_contracts/validator/contracts/Implementation.sol",
	"compiler": {
		"name": "solc",
		"version": "0.8.7+commit.e28d00a7.Emscripten.clang"
	},
	"schemaVersion": "3.4.2",
	"updatedAt": "2021-10-19T23:03:50.253Z",
	"devdoc": {
		"kind": "dev",
		"methods": {},
		"version": 1
	},
	"userdoc": {
		"kind": "user",
		"methods": {},
		"version": 1
	}
}