{
	"contractName": "Implementation",
	"abi": [
		{
			"anonymous": false,
			"inputs": [
				{
					"indexed": false,
					"internalType": "string",
					"name": "newCipherText",
					"type": "string"
				}
			],
			"name": "cipherTextUpdated",
			"type": "event"
		},
		{
			"anonymous": false,
			"inputs": [],
			"name": "contractClosed",
			"type": "event"
		},
		{
			"anonymous": false,
			"inputs": [
				{
					"indexed": true,
					"internalType": "address",
					"name": "_buyer",
					"type": "address"
				}
			],
			"name": "contractPurchased",
			"type": "event"
		},
		{
			"anonymous": false,
			"inputs": [],
			"name": "purchaseInfoUpdated",
			"type": "event"
		},
		{
			"inputs": [],
			"name": "buyer",
			"outputs": [
				{
					"internalType": "address",
					"name": "",
					"type": "address"
				}
			],
			"stateMutability": "view",
			"type": "function"
		},
		{
			"inputs": [],
			"name": "contractState",
			"outputs": [
				{
					"internalType": "enum Implementation.ContractState",
					"name": "",
					"type": "uint8"
				}
			],
			"stateMutability": "view",
			"type": "function"
		},
		{
			"inputs": [],
			"name": "contractTotal",
			"outputs": [
				{
					"internalType": "uint256",
					"name": "",
					"type": "uint256"
				}
			],
			"stateMutability": "view",
			"type": "function"
		},
		{
			"inputs": [],
			"name": "encryptedPoolData",
			"outputs": [
				{
					"internalType": "string",
					"name": "",
					"type": "string"
				}
			],
			"stateMutability": "view",
			"type": "function"
		},
		{
			"inputs": [],
			"name": "escrow_purchaser",
			"outputs": [
				{
					"internalType": "address",
					"name": "",
					"type": "address"
				}
			],
			"stateMutability": "view",
			"type": "function"
		},
		{
			"inputs": [],
			"name": "escrow_seller",
			"outputs": [
				{
					"internalType": "address",
					"name": "",
					"type": "address"
				}
			],
			"stateMutability": "view",
			"type": "function"
		},
		{
			"inputs": [],
			"name": "length",
			"outputs": [
				{
					"internalType": "uint256",
					"name": "",
					"type": "uint256"
				}
			],
			"stateMutability": "view",
			"type": "function"
		},
		{
			"inputs": [],
			"name": "limit",
			"outputs": [
				{
					"internalType": "uint256",
					"name": "",
					"type": "uint256"
				}
			],
			"stateMutability": "view",
			"type": "function"
		},
		{
			"inputs": [],
			"name": "price",
			"outputs": [
				{
					"internalType": "uint256",
					"name": "",
					"type": "uint256"
				}
			],
			"stateMutability": "view",
			"type": "function"
		},
		{
			"inputs": [],
			"name": "receivedTotal",
			"outputs": [
				{
					"internalType": "uint256",
					"name": "",
					"type": "uint256"
				}
			],
			"stateMutability": "view",
			"type": "function"
		},
		{
			"inputs": [],
			"name": "seller",
			"outputs": [
				{
					"internalType": "address",
					"name": "",
					"type": "address"
				}
			],
			"stateMutability": "view",
			"type": "function"
		},
		{
			"inputs": [],
			"name": "speed",
			"outputs": [
				{
					"internalType": "uint256",
					"name": "",
					"type": "uint256"
				}
			],
			"stateMutability": "view",
			"type": "function"
		},
		{
			"inputs": [],
			"name": "startingBlockTimestamp",
			"outputs": [
				{
					"internalType": "uint256",
					"name": "",
					"type": "uint256"
				}
			],
			"stateMutability": "view",
			"type": "function"
		},
		{
			"inputs": [
				{
					"internalType": "uint256",
					"name": "_price",
					"type": "uint256"
				},
				{
					"internalType": "uint256",
					"name": "_limit",
					"type": "uint256"
				},
				{
					"internalType": "uint256",
					"name": "_speed",
					"type": "uint256"
				},
				{
					"internalType": "uint256",
					"name": "_length",
					"type": "uint256"
				},
				{
					"internalType": "address",
					"name": "_seller",
					"type": "address"
				},
				{
					"internalType": "address",
					"name": "_lmn",
					"type": "address"
				},
				{
					"internalType": "address",
					"name": "_cloneFactory",
					"type": "address"
				},
				{
					"internalType": "address",
					"name": "_validator",
					"type": "address"
				}
			],
			"name": "initialize",
			"outputs": [],
			"stateMutability": "nonpayable",
			"type": "function"
		},
		{
			"inputs": [
				{
					"internalType": "string",
					"name": "_encryptedPoolData",
					"type": "string"
				},
				{
					"internalType": "address",
					"name": "_buyer",
					"type": "address"
				}
			],
			"name": "setPurchaseContract",
			"outputs": [],
			"stateMutability": "nonpayable",
			"type": "function"
		},
		{
			"inputs": [
				{
					"internalType": "string",
					"name": "_newEncryptedPoolData",
					"type": "string"
				}
			],
			"name": "setUpdateMiningInformation",
			"outputs": [],
			"stateMutability": "nonpayable",
			"type": "function"
		},
		{
			"inputs": [
				{
					"internalType": "uint256",
					"name": "_price",
					"type": "uint256"
				},
				{
					"internalType": "uint256",
					"name": "_limit",
					"type": "uint256"
				},
				{
					"internalType": "uint256",
					"name": "_speed",
					"type": "uint256"
				},
				{
					"internalType": "uint256",
					"name": "_length",
					"type": "uint256"
				}
			],
			"name": "setUpdatePurchaseInformation",
			"outputs": [],
			"stateMutability": "nonpayable",
			"type": "function"
		},
		{
			"inputs": [
				{
					"internalType": "uint256",
					"name": "closeOutType",
					"type": "uint256"
				}
			],
			"name": "setContractCloseOut",
			"outputs": [],
			"stateMutability": "nonpayable",
			"type": "function"
		}
	],
	"bytecode": "0x608060405234801561001057600080fd5b50612339806100206000396000f3fe608060405234801561001057600080fd5b50600436106101165760003560e01c80638b7e4b13116100a2578063c20906ac11610071578063c20906ac1461029b578063c5095d68146102b9578063ce0c722a146102d7578063ddcb1bf2146102f5578063fe8e84fa1461031157610116565b80638b7e4b13146102255780638e2e6d5d14610243578063a035b1fe1461025f578063a4d66daf1461027d57610116565b80631f7b6d32116100e95780631f7b6d32146101935780633a5d4213146101b15780637150d8ae146101cd578063719e6b5b146101eb57806385209ee01461020757610116565b806308551a531461011b578063089aa8a2146101395780630a61e2d91461015757806316713b3714610175575b600080fd5b61012361032d565b6040516101309190611984565b60405180910390f35b610141610353565b60405161014e9190611984565b60405180910390f35b61015f610379565b60405161016c9190611b65565b60405180910390f35b61017d61037f565b60405161018a9190611b65565b60405180910390f35b61019b610385565b6040516101a89190611b65565b60405180910390f35b6101cb60048036038101906101c691906116e7565b61038b565b005b6101d561057f565b6040516101e29190611984565b60405180910390f35b61020560048036038101906102009190611581565b6105a5565b005b61020f6106fb565b60405161021c91906119c8565b60405180910390f35b61022d61070e565b60405161023a91906119e3565b60405180910390f35b61025d60048036038101906102589190611626565b61079c565b005b610267610b16565b6040516102749190611b65565b60405180910390f35b610285610b1c565b6040516102929190611b65565b60405180910390f35b6102a3610b22565b6040516102b09190611b65565b60405180910390f35b6102c1610b28565b6040516102ce9190611b65565b60405180910390f35b6102df610b2e565b6040516102ec9190611984565b60405180910390f35b61030f600480360381019061030a91906115ca565b610b54565b005b61032b60048036038101906103269190611680565b610d7c565b005b600c60009054906101000a900473ffffffffffffffffffffffffffffffffffffffff1681565b600060029054906101000a900473ffffffffffffffffffffffffffffffffffffffff1681565b60035481565b60045481565b60095481565b600060019054906101000a900460ff16806103b1575060008054906101000a900460ff16155b6103f0576040517f08c379a00000000000000000000000000000000000000000000000000000000081526004016103e790611ac5565b60405180910390fd5b60008060019054906101000a900460ff161590508015610440576001600060016101000a81548160ff02191690831515021790555060016000806101000a81548160ff0219169083151502179055505b8860068190555087600781905550866008819055508560098190555084600c60006101000a81548173ffffffffffffffffffffffffffffffffffffffff021916908373ffffffffffffffffffffffffffffffffffffffff16021790555082600d60006101000a81548173ffffffffffffffffffffffffffffffffffffffff021916908373ffffffffffffffffffffffffffffffffffffffff16021790555081600e60006101000a81548173ffffffffffffffffffffffffffffffffffffffff021916908373ffffffffffffffffffffffffffffffffffffffff1602179055506000600560146101000a81548160ff0219169083600181111561054557610544611e21565b5b021790555061055384610ed0565b80156105745760008060016101000a81548160ff0219169083151502179055505b505050505050505050565b600b60009054906101000a900473ffffffffffffffffffffffffffffffffffffffff1681565b600b60009054906101000a900473ffffffffffffffffffffffffffffffffffffffff1673ffffffffffffffffffffffffffffffffffffffff163373ffffffffffffffffffffffffffffffffffffffff1614610635576040517f08c379a000000000000000000000000000000000000000000000000000000000815260040161062c90611a05565b60405180910390fd5b60018081111561064857610647611e21565b5b600560149054906101000a900460ff16600181111561066a57610669611e21565b5b146106aa576040517f08c379a00000000000000000000000000000000000000000000000000000000081526004016106a190611b25565b60405180910390fd5b80600f90805190602001906106c09291906113ed565b507f2301ef7d9f42b857543faf9e285b5807e028d4ae99810ea7fe0aadda3a717e9d816040516106f091906119e3565b60405180910390a150565b600560149054906101000a900460ff1681565b600f805461071b90611d60565b80601f016020809104026020016040519081016040528092919081815260200182805461074790611d60565b80156107945780601f1061076957610100808354040283529160200191610794565b820191906000526020600020905b81548152906001019060200180831161077757829003601f168201915b505050505081565b600081141561092357600b60009054906101000a900473ffffffffffffffffffffffffffffffffffffffff1673ffffffffffffffffffffffffffffffffffffffff163373ffffffffffffffffffffffffffffffffffffffff16148061084e5750600e60009054906101000a900473ffffffffffffffffffffffffffffffffffffffff1673ffffffffffffffffffffffffffffffffffffffff163373ffffffffffffffffffffffffffffffffffffffff16145b61088d576040517f08c379a000000000000000000000000000000000000000000000000000000000815260040161088490611a45565b60405180910390fd5b6000600a544261089d9190611c7d565b90506000600954826009546108b29190611c7d565b6006546108bf9190611c23565b6108c99190611bf2565b90506000816006546108db9190611c7d565b90506108e78183610f77565b6108ef61111f565b7ff5e1a452bb76d7335225182a97ad694be2c7b4b5d75dcffb67ddf15db95f484460405160405180910390a1505050610b13565b6001811415610a0a576000600a544261093c9190611c7d565b90506000600954826009546109519190611c7d565b60065461095e9190611c23565b6109689190611bf2565b9050600c60009054906101000a900473ffffffffffffffffffffffffffffffffffffffff1673ffffffffffffffffffffffffffffffffffffffff163373ffffffffffffffffffffffffffffffffffffffff16146109fa576040517f08c379a00000000000000000000000000000000000000000000000000000000081526004016109f190611b45565b60405180910390fd5b610a03816111d5565b5050610b12565b6002811480610a195750600381145b15610acd576000600a5442610a2e9190611c7d565b9050600954811015610a75576040517f08c379a0000000000000000000000000000000000000000000000000000000008152600401610a6c90611a25565b60405180910390fd5b6003821415610a93576000806006549050610a908183610f77565b50505b610a9b61111f565b7ff5e1a452bb76d7335225182a97ad694be2c7b4b5d75dcffb67ddf15db95f484460405160405180910390a150610b11565b60048110610b10576040517f08c379a0000000000000000000000000000000000000000000000000000000008152600401610b0790611aa5565b60405180910390fd5b5b5b5b50565b60065481565b60075481565b60085481565b600a5481565b600160009054906101000a900473ffffffffffffffffffffffffffffffffffffffff1681565b60006001811115610b6857610b67611e21565b5b600560149054906101000a900460ff166001811115610b8a57610b89611e21565b5b14610bca576040517f08c379a0000000000000000000000000000000000000000000000000000000008152600401610bc190611a65565b60405180910390fd5b600d60009054906101000a900473ffffffffffffffffffffffffffffffffffffffff1673ffffffffffffffffffffffffffffffffffffffff163373ffffffffffffffffffffffffffffffffffffffff1614610c5a576040517f08c379a0000000000000000000000000000000000000000000000000000000008152600401610c5190611a85565b60405180910390fd5b81600f9080519060200190610c709291906113ed565b5080600b60006101000a81548173ffffffffffffffffffffffffffffffffffffffff021916908373ffffffffffffffffffffffffffffffffffffffff16021790555042600a819055506001600560146101000a81548160ff02191690836001811115610cdf57610cde611e21565b5b0217905550610d35600c60009054906101000a900473ffffffffffffffffffffffffffffffffffffffff16600b60009054906101000a900473ffffffffffffffffffffffffffffffffffffffff1660065461135f565b3373ffffffffffffffffffffffffffffffffffffffff167f0c00d1d6cea0bd55f7d3b6e92ef60237b117b050185fc2816c708fd45f45e5bb60405160405180910390a25050565b600c60009054906101000a900473ffffffffffffffffffffffffffffffffffffffff1673ffffffffffffffffffffffffffffffffffffffff163373ffffffffffffffffffffffffffffffffffffffff1614610e0c576040517f08c379a0000000000000000000000000000000000000000000000000000000008152600401610e0390611ae5565b60405180910390fd5b60006001811115610e2057610e1f611e21565b5b600560149054906101000a900460ff166001811115610e4257610e41611e21565b5b14610e82576040517f08c379a0000000000000000000000000000000000000000000000000000000008152600401610e7990611b05565b60405180910390fd5b836006819055508260078190555081600881905550806009819055507f03e052767f275c0c51cc93a76255d42498341feb7a5beef7cc11fd57c5b6681860405160405180910390a150505050565b80600260006101000a81548173ffffffffffffffffffffffffffffffffffffffff021916908373ffffffffffffffffffffffffffffffffffffffff160217905550600260009054906101000a900473ffffffffffffffffffffffffffffffffffffffff16600560006101000a81548173ffffffffffffffffffffffffffffffffffffffff021916908373ffffffffffffffffffffffffffffffffffffffff16021790555050565b600560009054906101000a900473ffffffffffffffffffffffffffffffffffffffff1673ffffffffffffffffffffffffffffffffffffffff1663a9059cbb600160009054906101000a900473ffffffffffffffffffffffffffffffffffffffff16846040518363ffffffff1660e01b8152600401610ff692919061199f565b602060405180830381600087803b15801561101057600080fd5b505af1158015611024573d6000803e3d6000fd5b505050506040513d601f19601f820116820180604052508101906110489190611554565b50600560009054906101000a900473ffffffffffffffffffffffffffffffffffffffff1673ffffffffffffffffffffffffffffffffffffffff1663a9059cbb600060029054906101000a900473ffffffffffffffffffffffffffffffffffffffff16836040518363ffffffff1660e01b81526004016110c892919061199f565b602060405180830381600087803b1580156110e257600080fd5b505af11580156110f6573d6000803e3d6000fd5b505050506040513d601f19601f8201168201806040525081019061111a9190611554565b505050565b600c60009054906101000a900473ffffffffffffffffffffffffffffffffffffffff16600b60006101000a81548173ffffffffffffffffffffffffffffffffffffffff021916908373ffffffffffffffffffffffffffffffffffffffff16021790555060405180602001604052806000815250600f90805190602001906111a79291906113ed565b506000600560146101000a81548160ff021916908360018111156111ce576111cd611e21565b5b0217905550565b600560009054906101000a900473ffffffffffffffffffffffffffffffffffffffff1673ffffffffffffffffffffffffffffffffffffffff1663a9059cbb600160009054906101000a900473ffffffffffffffffffffffffffffffffffffffff1683600560009054906101000a900473ffffffffffffffffffffffffffffffffffffffff1673ffffffffffffffffffffffffffffffffffffffff166370a08231306040518263ffffffff1660e01b81526004016112929190611984565b60206040518083038186803b1580156112aa57600080fd5b505afa1580156112be573d6000803e3d6000fd5b505050506040513d601f19601f820116820180604052508101906112e29190611653565b6112ec9190611c7d565b6040518363ffffffff1660e01b815260040161130992919061199f565b602060405180830381600087803b15801561132357600080fd5b505af1158015611337573d6000803e3d6000fd5b505050506040513d601f19601f8201168201806040525081019061135b9190611554565b5050565b82600160006101000a81548173ffffffffffffffffffffffffffffffffffffffff021916908373ffffffffffffffffffffffffffffffffffffffff16021790555081600060026101000a81548173ffffffffffffffffffffffffffffffffffffffff021916908373ffffffffffffffffffffffffffffffffffffffff16021790555080600381905550505050565b8280546113f990611d60565b90600052602060002090601f01602090048101928261141b5760008555611462565b82601f1061143457805160ff1916838001178555611462565b82800160010185558215611462579182015b82811115611461578251825591602001919060010190611446565b5b50905061146f9190611473565b5090565b5b8082111561148c576000816000905550600101611474565b5090565b60006114a361149e84611ba5565b611b80565b9050828152602081018484840111156114bf576114be611eb3565b5b6114ca848285611d1e565b509392505050565b6000813590506114e1816122be565b92915050565b6000815190506114f6816122d5565b92915050565b600082601f83011261151157611510611eae565b5b8135611521848260208601611490565b91505092915050565b600081359050611539816122ec565b92915050565b60008151905061154e816122ec565b92915050565b60006020828403121561156a57611569611ebd565b5b6000611578848285016114e7565b91505092915050565b60006020828403121561159757611596611ebd565b5b600082013567ffffffffffffffff8111156115b5576115b4611eb8565b5b6115c1848285016114fc565b91505092915050565b600080604083850312156115e1576115e0611ebd565b5b600083013567ffffffffffffffff8111156115ff576115fe611eb8565b5b61160b858286016114fc565b925050602061161c858286016114d2565b9150509250929050565b60006020828403121561163c5761163b611ebd565b5b600061164a8482850161152a565b91505092915050565b60006020828403121561166957611668611ebd565b5b60006116778482850161153f565b91505092915050565b6000806000806080858703121561169a57611699611ebd565b5b60006116a88782880161152a565b94505060206116b98782880161152a565b93505060406116ca8782880161152a565b92505060606116db8782880161152a565b91505092959194509250565b600080600080600080600080610100898b03121561170857611707611ebd565b5b60006117168b828c0161152a565b98505060206117278b828c0161152a565b97505060406117388b828c0161152a565b96505060606117498b828c0161152a565b955050608061175a8b828c016114d2565b94505060a061176b8b828c016114d2565b93505060c061177c8b828c016114d2565b92505060e061178d8b828c016114d2565b9150509295985092959890939650565b6117a681611cb1565b82525050565b6117b581611d0c565b82525050565b60006117c682611bd6565b6117d08185611be1565b93506117e0818560208601611d2d565b6117e981611ec2565b840191505092915050565b6000611801604383611be1565b915061180c82611ed3565b606082019050919050565b6000611824602a83611be1565b915061182f82611f48565b604082019050919050565b6000611847603b83611be1565b915061185282611f97565b604082019050919050565b600061186a602583611be1565b915061187582611fe6565b604082019050919050565b600061188d603a83611be1565b915061189882612035565b604082019050919050565b60006118b0602983611be1565b91506118bb82612084565b604082019050919050565b60006118d3602e83611be1565b91506118de826120d3565b604082019050919050565b60006118f6604383611be1565b915061190182612122565b606082019050919050565b6000611919602d83611be1565b915061192482612197565b604082019050919050565b600061193c602883611be1565b9150611947826121e6565b604082019050919050565b600061195f604183611be1565b915061196a82612235565b606082019050919050565b61197e81611d02565b82525050565b6000602082019050611999600083018461179d565b92915050565b60006040820190506119b4600083018561179d565b6119c16020830184611975565b9392505050565b60006020820190506119dd60008301846117ac565b92915050565b600060208201905081810360008301526119fd81846117bb565b905092915050565b60006020820190508181036000830152611a1e816117f4565b9050919050565b60006020820190508181036000830152611a3e81611817565b9050919050565b60006020820190508181036000830152611a5e8161183a565b9050919050565b60006020820190508181036000830152611a7e8161185d565b9050919050565b60006020820190508181036000830152611a9e81611880565b9050919050565b60006020820190508181036000830152611abe816118a3565b9050919050565b60006020820190508181036000830152611ade816118c6565b9050919050565b60006020820190508181036000830152611afe816118e9565b9050919050565b60006020820190508181036000830152611b1e8161190c565b9050919050565b60006020820190508181036000830152611b3e8161192f565b9050919050565b60006020820190508181036000830152611b5e81611952565b9050919050565b6000602082019050611b7a6000830184611975565b92915050565b6000611b8a611b9b565b9050611b968282611d92565b919050565b6000604051905090565b600067ffffffffffffffff821115611bc057611bbf611e7f565b5b611bc982611ec2565b9050602081019050919050565b600081519050919050565b600082825260208201905092915050565b6000611bfd82611d02565b9150611c0883611d02565b925082611c1857611c17611df2565b5b828204905092915050565b6000611c2e82611d02565b9150611c3983611d02565b9250817fffffffffffffffffffffffffffffffffffffffffffffffffffffffffffffffff0483118215151615611c7257611c71611dc3565b5b828202905092915050565b6000611c8882611d02565b9150611c9383611d02565b925082821015611ca657611ca5611dc3565b5b828203905092915050565b6000611cbc82611ce2565b9050919050565b60008115159050919050565b6000819050611cdd826122aa565b919050565b600073ffffffffffffffffffffffffffffffffffffffff82169050919050565b6000819050919050565b6000611d1782611ccf565b9050919050565b82818337600083830152505050565b60005b83811015611d4b578082015181840152602081019050611d30565b83811115611d5a576000848401525b50505050565b60006002820490506001821680611d7857607f821691505b60208210811415611d8c57611d8b611e50565b5b50919050565b611d9b82611ec2565b810181811067ffffffffffffffff82111715611dba57611db9611e7f565b5b80604052505050565b7f4e487b7100000000000000000000000000000000000000000000000000000000600052601160045260246000fd5b7f4e487b7100000000000000000000000000000000000000000000000000000000600052601260045260246000fd5b7f4e487b7100000000000000000000000000000000000000000000000000000000600052602160045260246000fd5b7f4e487b7100000000000000000000000000000000000000000000000000000000600052602260045260246000fd5b7f4e487b7100000000000000000000000000000000000000000000000000000000600052604160045260246000fd5b600080fd5b600080fd5b600080fd5b600080fd5b6000601f19601f8301169050919050565b7f74686973206163636f756e74206973206e6f7420617574686f72697a6564207460008201527f6f2075706461746520746865206369706865727465787420696e666f726d617460208201527f696f6e0000000000000000000000000000000000000000000000000000000000604082015250565b7f74686520636f6e7472616374206861732079657420746f20626520636172726960008201527f656420746f207465726d00000000000000000000000000000000000000000000602082015250565b7f74686973206163636f756e74206973206e6f7420617574686f72697a6564207460008201527f6f207472696767657220616e206561726c7920636c6f73656f75740000000000602082015250565b7f636f6e7472616374206973206e6f7420696e20616e20617661696c61626c652060008201527f7374617465000000000000000000000000000000000000000000000000000000602082015250565b7f746869732061646472657373206973206e6f7420617070726f76656420746f2060008201527f63616c6c207468652070757263686173652066756e6374696f6e000000000000602082015250565b7f796f75206d757374206d616b6520612073656c656374696f6e2062657477656560008201527f6e203020616e6420330000000000000000000000000000000000000000000000602082015250565b7f496e697469616c697a61626c653a20636f6e747261637420697320616c72656160008201527f647920696e697469616c697a6564000000000000000000000000000000000000602082015250565b7f74686973206973206163636f756e74206973206e6f7420617574686f72697a6560008201527f6420746f207570646174652074686520636f6e747261637420706172616d657460208201527f6572730000000000000000000000000000000000000000000000000000000000604082015250565b7f74686973206973206163636f756e74206973206e6f7420696e2074686520617660008201527f61696c61626c6520737461746500000000000000000000000000000000000000602082015250565b7f74686520636f6e7472616374206973206e6f7420696e207468652072756e6e6960008201527f6e67207374617465000000000000000000000000000000000000000000000000602082015250565b7f74686973206163636f756e74206973206e6f7420617574686f72697a6564207460008201527f6f20747269676765722061206d69642d636f6e747261637420636c6f73656f7560208201527f7400000000000000000000000000000000000000000000000000000000000000604082015250565b600281106122bb576122ba611e21565b5b50565b6122c781611cb1565b81146122d257600080fd5b50565b6122de81611cc3565b81146122e957600080fd5b50565b6122f581611d02565b811461230057600080fd5b5056fea264697066735822122004158aced539bd15a0add3bc9354c4c285d4b71058526f649dd6a31cec88b12364736f6c63430008070033",
	"immutableReferences": {},
	"source": "//SPDX-License-Identifier: UNLICENSED\n\npragma solidity >0.8.0;\n\nimport \"@openzeppelin/contracts/proxy/utils/Initializable.sol\";\nimport \"./Escrow.sol\";\n\n\n//MyToken is place holder for actual lumerin token, purely for testing purposes\ncontract Implementation is Initializable, Escrow{\n\tenum ContractState {\n\t\tAvailable,\n\t\tRunning\n\t}\n\n\tContractState public contractState;\n\tuint public price; //cost to purchase contract\n\t//consider deprecating limit variable since it can be obtained from speed and length/duration\n\tuint public limit; //max th provided\n\tuint public speed; //th/s of contract\n\tuint public length; //how long the contract will last in seconds\n\tuint public startingBlockTimestamp; //the timestamp of the block when the contract was purchased\n\taddress public buyer; //address of the current purchaser of the contract\n\taddress public seller; //address of the seller of the contract\n\taddress cloneFactory; //used to limit where the purchase can be made\n\taddress validator; //validator to be used. Can be set to 0 address if validator not being used\n\tstring public encryptedPoolData; //encrypted data for pool target info\n\n\tevent contractPurchased(address indexed _buyer); //make indexed\n\tevent contractClosed();\n\tevent purchaseInfoUpdated();\n\tevent cipherTextUpdated(string newCipherText);\n\n\n\tfunction initialize(\n\t\tuint _price,\n\t\tuint _limit,\n\t\tuint _speed,\n\t\tuint _length,\n\t\taddress _seller,\n\t\taddress _lmn,\n\t\taddress _cloneFactory, //used to restrict purchasing power to only the clonefactory\n\t\taddress _validator\n\t) public initializer(){\n\t\tprice = _price;\n\t\tlimit = _limit;\n\t\tspeed = _speed;\n\t\tlength = _length;\n\t\tseller = _seller;\n\t\tcloneFactory = _cloneFactory;\n\t\tvalidator = _validator;\n\t\tcontractState = ContractState.Available;\n\t\t/*\n\t\tinternal to the escrow contract. Used to initialize lumerin token\n\t\tand move tokens as contract logic dictates\n\t\t*/\n\t\tsetParameters(_lmn);\n\t}\n\n\t//function that the clone factory calls to purchase the contract\n\tfunction setPurchaseContract(\n\t\tstring memory _encryptedPoolData,\n\t\taddress _buyer\n\t)\n\tpublic {\n\t\trequire(contractState == ContractState.Available, \n\t\t\t\"contract is not in an available state\"\n\t\t       );\n\t\trequire(msg.sender == cloneFactory,\n\t\t\t\"this address is not approved to call the purchase function\"\n\t\t       );\n\t\tencryptedPoolData = _encryptedPoolData;\n\t\tbuyer = _buyer;\n\t\tstartingBlockTimestamp = block.timestamp;\n\t\tcontractState = ContractState.Running;\n\t\tcreateEscrow(seller, buyer, price);\n\t\temit contractPurchased(msg.sender);\n\t}\n\n\t//allows the buyers to update their mining pool information\n\t//during the lifecycle of the contract\n\tfunction setUpdateMiningInformation(string memory _newEncryptedPoolData) external {\n\t\trequire(msg.sender == buyer, \n\t\t\t\"this account is not authorized to update the ciphertext information\"\n\t\t       );\n\t\trequire(contractState == ContractState.Running, \n\t\t\t\"the contract is not in the running state\"\n\t\t       );\n\t\tencryptedPoolData = _newEncryptedPoolData;\n\t\temit cipherTextUpdated(_newEncryptedPoolData);\n\t}\n\n\n\t//function which can edit the cost, length, and hashrate of a given contract\n\tfunction setUpdatePurchaseInformation(\n\t\tuint _price,\n\t\tuint _limit,\n\t\tuint _speed,\n\t\tuint _length\n\t) external {\n\t\trequire(msg.sender == seller, \"this is account is not authorized to update the contract parameters\");\n\t\trequire(contractState == ContractState.Available, \"this is account is not in the available state\");\n\t\tprice = _price;\n\t\tlimit = _limit;\n\t\tspeed = _speed;\n\t\tlength = _length;\n\t\temit purchaseInfoUpdated();\n\t}\n\n\n\t//temporarily set buyer to seller until contract is purchased again\n\tfunction setContractVariableUpdate() internal {\n\t\tbuyer = seller;\n\t\tencryptedPoolData = \"\";\n\t\tcontractState = ContractState.Available;\n\t}\n\n\n\tfunction setContractCloseOut(uint closeOutType) external {\n\t\tif (closeOutType == 0) {\n\t\t\trequire(msg.sender == buyer || msg.sender == validator, \"this account is not authorized to trigger an early closeout\");\n\t\t\tuint durationOfContract = block.timestamp - startingBlockTimestamp;\n\t\t\tuint buyerPayOut = uint(price*uint(length-durationOfContract))/uint(length);\n\t\t\tuint sellerPayOut = price - buyerPayOut;\n\t\t\twithdrawFunds(sellerPayOut, buyerPayOut);\n\t\t\tsetContractVariableUpdate();\n\t\t\temit contractClosed();\n\t\t} else if (closeOutType == 1) {\n\t\t\tuint durationOfContract = block.timestamp - startingBlockTimestamp;\n\t\t\tuint buyerPayOut = uint(price*uint(length-durationOfContract))/uint(length);\n\t\t\trequire(msg.sender == seller, \"this account is not authorized to trigger a mid-contract closeout\");\n\t\t\tgetDepositContractHodlingsToSeller(buyerPayOut);\n\t\t} else if (closeOutType == 2 || closeOutType == 3) {\n\t\t\tuint durationOfContract = block.timestamp - startingBlockTimestamp;\n\t\t\trequire(durationOfContract >= length, \"the contract has yet to be carried to term\");\n\t\t\tif (closeOutType == 3) {\n\t\t\t\tuint buyerPayOut = 0;\n\t\t\t\tuint sellerPayOut = price;\n\t\t\t\twithdrawFunds(sellerPayOut, buyerPayOut);\n\t\t\t}\n\t\t\tsetContractVariableUpdate();\n\t\t\temit contractClosed();\n\t\t} else {\n\t\t\trequire(closeOutType < 4, \"you must make a selection between 0 and 3\");\n\t\t}\n\t}\n\n}\n\n",
	"sourcePath": "/Users/joshkean/Documents/smart_contracts/validator/contracts/Implementation.sol",
	"compiler": {
		"name": "solc",
		"version": "0.8.7+commit.e28d00a7.Emscripten.clang"
	},
	"schemaVersion": "3.4.2",
	"updatedAt": "2021-12-27T15:51:12.441Z",
	"devdoc": {
		"kind": "dev",
		"methods": {},
		"version": 1
	},
	"userdoc": {
		"kind": "user",
		"methods": {},
		"version": 1
	}
}