{
	"contractName": "TestingContract",
	"abi": [
		{
			"inputs": [
				{
					"internalType": "address[]",
					"name": "_addresses",
					"type": "address[]"
				}
			],
			"stateMutability": "nonpayable",
			"type": "constructor"
		},
		{
			"inputs": [],
			"name": "getContractList",
			"outputs": [
				{
					"internalType": "address[]",
					"name": "",
					"type": "address[]"
				}
			],
			"stateMutability": "view",
			"type": "function",
			"constant": true
		},
		{
			"inputs": [
				{
					"internalType": "address",
					"name": "_address",
					"type": "address"
				}
			],
			"name": "getAddressPrice",
			"outputs": [
				{
					"internalType": "uint256",
					"name": "",
					"type": "uint256"
				}
			],
			"stateMutability": "view",
			"type": "function",
			"constant": true
		},
		{
			"inputs": [
				{
					"internalType": "address",
					"name": "_address",
					"type": "address"
				}
			],
			"name": "getAddressLimit",
			"outputs": [
				{
					"internalType": "uint256",
					"name": "",
					"type": "uint256"
				}
			],
			"stateMutability": "view",
			"type": "function",
			"constant": true
		},
		{
			"inputs": [
				{
					"internalType": "address",
					"name": "_address",
					"type": "address"
				}
			],
			"name": "getAddressSpeed",
			"outputs": [
				{
					"internalType": "uint256",
					"name": "",
					"type": "uint256"
				}
			],
			"stateMutability": "view",
			"type": "function",
			"constant": true
		},
		{
			"inputs": [
				{
					"internalType": "address",
					"name": "_address",
					"type": "address"
				}
			],
			"name": "getAddressLength",
			"outputs": [
				{
					"internalType": "uint256",
					"name": "",
					"type": "uint256"
				}
			],
			"stateMutability": "view",
			"type": "function",
			"constant": true
		}
	],
	"bytecode": "0x60806040523480156200001157600080fd5b5060405162000d8f38038062000d8f833981810160405281019062000037919062000472565b80600090805190602001906200004f929190620002ff565b5060005b600080549050811015620002f757600a6001826200007291906200051b565b6200007e919062000578565b60016000808481548110620000985762000097620006ca565b5b9060005260206000200160009054906101000a900473ffffffffffffffffffffffffffffffffffffffff1673ffffffffffffffffffffffffffffffffffffffff1673ffffffffffffffffffffffffffffffffffffffff16815260200190815260200160002081905550600a6001826200011291906200051b565b6200011e919062000578565b60026000808481548110620001385762000137620006ca565b5b9060005260206000200160009054906101000a900473ffffffffffffffffffffffffffffffffffffffff1673ffffffffffffffffffffffffffffffffffffffff1673ffffffffffffffffffffffffffffffffffffffff16815260200190815260200160002081905550600a600182620001b291906200051b565b620001be919062000578565b60036000808481548110620001d857620001d7620006ca565b5b9060005260206000200160009054906101000a900473ffffffffffffffffffffffffffffffffffffffff1673ffffffffffffffffffffffffffffffffffffffff1673ffffffffffffffffffffffffffffffffffffffff16815260200190815260200160002081905550600a6001826200025291906200051b565b6200025e919062000578565b60046000808481548110620002785762000277620006ca565b5b9060005260206000200160009054906101000a900473ffffffffffffffffffffffffffffffffffffffff1673ffffffffffffffffffffffffffffffffffffffff1673ffffffffffffffffffffffffffffffffffffffff168152602001908152602001600020819055508080620002ee906200064d565b91505062000053565b505062000767565b8280548282559060005260206000209081019282156200037b579160200282015b828111156200037a5782518260006101000a81548173ffffffffffffffffffffffffffffffffffffffff021916908373ffffffffffffffffffffffffffffffffffffffff1602179055509160200191906001019062000320565b5b5090506200038a91906200038e565b5090565b5b80821115620003a95760008160009055506001016200038f565b5090565b6000620003c4620003be84620004ec565b620004c3565b90508083825260208201905082856020860282011115620003ea57620003e96200072d565b5b60005b858110156200041e578162000403888262000428565b845260208401935060208301925050600181019050620003ed565b5050509392505050565b60008151905062000439816200074d565b92915050565b600082601f83011262000457576200045662000728565b5b815162000469848260208601620003ad565b91505092915050565b6000602082840312156200048b576200048a62000737565b5b600082015167ffffffffffffffff811115620004ac57620004ab62000732565b5b620004ba848285016200043f565b91505092915050565b6000620004cf620004e2565b9050620004dd828262000617565b919050565b6000604051905090565b600067ffffffffffffffff8211156200050a5762000509620006f9565b5b602082029050602081019050919050565b600062000528826200060d565b915062000535836200060d565b9250827fffffffffffffffffffffffffffffffffffffffffffffffffffffffffffffffff038211156200056d576200056c6200069b565b5b828201905092915050565b600062000585826200060d565b915062000592836200060d565b9250817fffffffffffffffffffffffffffffffffffffffffffffffffffffffffffffffff0483118215151615620005ce57620005cd6200069b565b5b828202905092915050565b6000620005e682620005ed565b9050919050565b600073ffffffffffffffffffffffffffffffffffffffff82169050919050565b6000819050919050565b62000622826200073c565b810181811067ffffffffffffffff82111715620006445762000643620006f9565b5b80604052505050565b60006200065a826200060d565b91507fffffffffffffffffffffffffffffffffffffffffffffffffffffffffffffffff82141562000690576200068f6200069b565b5b600182019050919050565b7f4e487b7100000000000000000000000000000000000000000000000000000000600052601160045260246000fd5b7f4e487b7100000000000000000000000000000000000000000000000000000000600052603260045260246000fd5b7f4e487b7100000000000000000000000000000000000000000000000000000000600052604160045260246000fd5b600080fd5b600080fd5b600080fd5b600080fd5b6000601f19601f8301169050919050565b6200075881620005d9565b81146200076457600080fd5b50565b61061880620007776000396000f3fe608060405234801561001057600080fd5b50600436106100575760003560e01c806320c3d37a1461005c5780634848b9861461008c5780637e50de8e146100bc57806399acac8c146100ec578063dff2ef6a1461010a575b600080fd5b6100766004803603810190610071919061037d565b61013a565b6040516100839190610460565b60405180910390f35b6100a660048036038101906100a1919061037d565b610183565b6040516100b39190610460565b60405180910390f35b6100d660048036038101906100d1919061037d565b6101cc565b6040516100e39190610460565b60405180910390f35b6100f4610215565b604051610101919061043e565b60405180910390f35b610124600480360381019061011f919061037d565b61031f565b6040516101319190610460565b60405180910390f35b6000600360008373ffffffffffffffffffffffffffffffffffffffff1673ffffffffffffffffffffffffffffffffffffffff168152602001908152602001600020549050919050565b6000600260008373ffffffffffffffffffffffffffffffffffffffff1673ffffffffffffffffffffffffffffffffffffffff168152602001908152602001600020549050919050565b6000600460008373ffffffffffffffffffffffffffffffffffffffff1673ffffffffffffffffffffffffffffffffffffffff168152602001908152602001600020549050919050565b60606000808054905067ffffffffffffffff81111561023757610236610597565b5b6040519080825280602002602001820160405280156102655781602001602082028036833780820191505090505b50905060005b600080549050811015610317576000818154811061028c5761028b610568565b5b9060005260206000200160009054906101000a900473ffffffffffffffffffffffffffffffffffffffff168282815181106102ca576102c9610568565b5b602002602001019073ffffffffffffffffffffffffffffffffffffffff16908173ffffffffffffffffffffffffffffffffffffffff1681525050808061030f906104f0565b91505061026b565b508091505090565b6000600160008373ffffffffffffffffffffffffffffffffffffffff1673ffffffffffffffffffffffffffffffffffffffff168152602001908152602001600020549050919050565b600081359050610377816105cb565b92915050565b600060208284031215610393576103926105c6565b5b60006103a184828501610368565b91505092915050565b60006103b683836103c2565b60208301905092915050565b6103cb816104b4565b82525050565b60006103dc8261048b565b6103e681856104a3565b93506103f18361047b565b8060005b8381101561042257815161040988826103aa565b975061041483610496565b9250506001810190506103f5565b5085935050505092915050565b610438816104e6565b82525050565b6000602082019050818103600083015261045881846103d1565b905092915050565b6000602082019050610475600083018461042f565b92915050565b6000819050602082019050919050565b600081519050919050565b6000602082019050919050565b600082825260208201905092915050565b60006104bf826104c6565b9050919050565b600073ffffffffffffffffffffffffffffffffffffffff82169050919050565b6000819050919050565b60006104fb826104e6565b91507fffffffffffffffffffffffffffffffffffffffffffffffffffffffffffffffff82141561052e5761052d610539565b5b600182019050919050565b7f4e487b7100000000000000000000000000000000000000000000000000000000600052601160045260246000fd5b7f4e487b7100000000000000000000000000000000000000000000000000000000600052603260045260246000fd5b7f4e487b7100000000000000000000000000000000000000000000000000000000600052604160045260246000fd5b600080fd5b6105d4816104b4565b81146105df57600080fd5b5056fea2646970667358221220e8654edbe473a40fc42c66dff69156f64a9949049b2480e3fc70f6630715532064736f6c63430008070033",
	"immutableReferences": {},
	"source": "pragma solidity > 0.8.0;\n\ncontract TestingContract {\n  address[] contractAddresses;\n\n  mapping(address => uint) getPrice;\n  mapping(address => uint) getLimit;\n  mapping(address => uint) getSpeed;\n  mapping(address => uint) getLength;\n\n\n  constructor(address[] memory _addresses) {\n    contractAddresses = _addresses;\n    for (uint _i = 0; _i < contractAddresses.length; _i++) {\n      getPrice[contractAddresses[_i]] = (_i+1)*10;\n      getLimit[contractAddresses[_i]] = (_i+1)*10;\n      getSpeed[contractAddresses[_i]] = (_i+1)*10;\n      getLength[contractAddresses[_i]] = (_i+1)*10;\n    }\n  }\n\n\n  function getContractList() public view returns (address[] memory) {\n    address[] memory _addresses = new address[](contractAddresses.length);\n    for (uint _i = 0; _i < contractAddresses.length; _i++) {\n      _addresses[_i] = contractAddresses[_i];\n    }\n    return _addresses;\n  }\n\n\n  function getAddressPrice(address _address) public view returns (uint) {\n    return getPrice[_address];\n  }\n\n  function getAddressLimit(address _address) public view returns (uint) {\n    return getLimit[_address];\n  }\n\n  function getAddressSpeed(address _address) public view returns (uint) {\n    return getSpeed[_address];\n  }\n\n  function getAddressLength(address _address) public view returns (uint) {\n    return getLength[_address];\n  }\n\n}\n\n\n\n",
	"sourcePath": "/Users/joshkean/Documents/sandbox/connect_to_aws/contracts/TestingContract.sol",
	"compiler": {
		"name": "solc",
		"version": "0.8.7+commit.e28d00a7.Emscripten.clang"
	},
	"schemaVersion": "3.4.2",
	"updatedAt": "2021-08-25T20:57:51.175Z",
	"networkType": "ethereum",
	"devdoc": {
		"kind": "dev",
		"methods": {},
		"version": 1
	},
	"userdoc": {
		"kind": "user",
		"methods": {},
		"version": 1
	}
}