{
	"contractName": "TestingContract",
	"abi": [
		{
			"inputs": [
				{
					"internalType": "address[]",
					"name": "_addresses",
					"type": "address[]"
				}
			],
			"stateMutability": "nonpayable",
			"type": "constructor"
		},
		{
			"inputs": [
				{
					"internalType": "uint256",
					"name": "",
					"type": "uint256"
				}
			],
			"name": "contractAddresses",
			"outputs": [
				{
					"internalType": "address",
					"name": "",
					"type": "address"
				}
			],
			"stateMutability": "view",
			"type": "function",
			"constant": true
		},
		{
			"inputs": [
				{
					"internalType": "address",
					"name": "",
					"type": "address"
				}
			],
			"name": "contractExists",
			"outputs": [
				{
					"internalType": "bool",
					"name": "",
					"type": "bool"
				}
			],
			"stateMutability": "view",
			"type": "function",
			"constant": true
		},
		{
			"inputs": [
				{
					"internalType": "address",
					"name": "",
					"type": "address"
				}
			],
			"name": "getBuyer",
			"outputs": [
				{
					"internalType": "address",
					"name": "",
					"type": "address"
				}
			],
			"stateMutability": "view",
			"type": "function",
			"constant": true
		},
		{
			"inputs": [
				{
					"internalType": "address",
					"name": "",
					"type": "address"
				}
			],
			"name": "getLength",
			"outputs": [
				{
					"internalType": "uint256",
					"name": "",
					"type": "uint256"
				}
			],
			"stateMutability": "view",
			"type": "function",
			"constant": true
		},
		{
			"inputs": [
				{
					"internalType": "address",
					"name": "",
					"type": "address"
				}
			],
			"name": "getLimit",
			"outputs": [
				{
					"internalType": "uint256",
					"name": "",
					"type": "uint256"
				}
			],
			"stateMutability": "view",
			"type": "function",
			"constant": true
		},
		{
			"inputs": [
				{
					"internalType": "address",
					"name": "",
					"type": "address"
				}
			],
			"name": "getPrice",
			"outputs": [
				{
					"internalType": "uint256",
					"name": "",
					"type": "uint256"
				}
			],
			"stateMutability": "view",
			"type": "function",
			"constant": true
		},
		{
			"inputs": [
				{
					"internalType": "address",
					"name": "",
					"type": "address"
				}
			],
			"name": "getSeller",
			"outputs": [
				{
					"internalType": "address",
					"name": "",
					"type": "address"
				}
			],
			"stateMutability": "view",
			"type": "function",
			"constant": true
		},
		{
			"inputs": [
				{
					"internalType": "address",
					"name": "",
					"type": "address"
				}
			],
			"name": "getSpeed",
			"outputs": [
				{
					"internalType": "uint256",
					"name": "",
					"type": "uint256"
				}
			],
			"stateMutability": "view",
			"type": "function",
			"constant": true
		},
		{
			"inputs": [
				{
					"internalType": "address",
					"name": "",
					"type": "address"
				}
			],
			"name": "getState",
			"outputs": [
				{
					"internalType": "string",
					"name": "",
					"type": "string"
				}
			],
			"stateMutability": "view",
			"type": "function",
			"constant": true
		},
		{
			"inputs": [],
			"name": "getContractList",
			"outputs": [
				{
					"internalType": "address[]",
					"name": "",
					"type": "address[]"
				}
			],
			"stateMutability": "view",
			"type": "function",
			"constant": true
		},
		{
			"inputs": [
				{
					"internalType": "address",
					"name": "_address",
					"type": "address"
				}
			],
			"name": "getAddressPrice",
			"outputs": [
				{
					"internalType": "uint256",
					"name": "",
					"type": "uint256"
				}
			],
			"stateMutability": "view",
			"type": "function",
			"constant": true
		},
		{
			"inputs": [
				{
					"internalType": "address",
					"name": "_address",
					"type": "address"
				}
			],
			"name": "getAddressLimit",
			"outputs": [
				{
					"internalType": "uint256",
					"name": "",
					"type": "uint256"
				}
			],
			"stateMutability": "view",
			"type": "function",
			"constant": true
		},
		{
			"inputs": [
				{
					"internalType": "address",
					"name": "_address",
					"type": "address"
				}
			],
			"name": "getAddressSpeed",
			"outputs": [
				{
					"internalType": "uint256",
					"name": "",
					"type": "uint256"
				}
			],
			"stateMutability": "view",
			"type": "function",
			"constant": true
		},
		{
			"inputs": [
				{
					"internalType": "address",
					"name": "_address",
					"type": "address"
				}
			],
			"name": "getAddressLength",
			"outputs": [
				{
					"internalType": "uint256",
					"name": "",
					"type": "uint256"
				}
			],
			"stateMutability": "view",
			"type": "function",
			"constant": true
		},
		{
			"inputs": [
				{
					"internalType": "address",
					"name": "_address",
					"type": "address"
				}
			],
			"name": "getContractVariables",
			"outputs": [
				{
					"internalType": "uint256[4]",
					"name": "",
					"type": "uint256[4]"
				}
			],
			"stateMutability": "view",
			"type": "function",
			"constant": true
		},
		{
			"inputs": [
				{
					"internalType": "address",
					"name": "_address",
					"type": "address"
				}
			],
			"name": "getContractState",
			"outputs": [
				{
					"internalType": "string",
					"name": "",
					"type": "string"
				}
			],
			"stateMutability": "view",
			"type": "function",
			"constant": true
		},
		{
			"inputs": [
				{
					"internalType": "address",
					"name": "_address",
					"type": "address"
				},
				{
					"internalType": "string",
					"name": "pool_address",
					"type": "string"
				},
				{
					"internalType": "string",
					"name": "username",
					"type": "string"
				},
				{
					"internalType": "string",
					"name": "password",
					"type": "string"
				}
			],
			"name": "setBuyContract",
			"outputs": [],
			"stateMutability": "nonpayable",
			"type": "function"
		}
	],
	"bytecode": "0x60806040523480156200001157600080fd5b5060405162001e8938038062001e89833981810160405281019062000037919062000724565b80600090805190602001906200004f92919062000520565b5060005b6000805490508110156200051857600a600182620000729190620007cd565b6200007e91906200082a565b60026000808481548110620000985762000097620009e1565b5b9060005260206000200160009054906101000a900473ffffffffffffffffffffffffffffffffffffffff1673ffffffffffffffffffffffffffffffffffffffff1673ffffffffffffffffffffffffffffffffffffffff16815260200190815260200160002081905550600a600182620001129190620007cd565b6200011e91906200082a565b60036000808481548110620001385762000137620009e1565b5b9060005260206000200160009054906101000a900473ffffffffffffffffffffffffffffffffffffffff1673ffffffffffffffffffffffffffffffffffffffff1673ffffffffffffffffffffffffffffffffffffffff16815260200190815260200160002081905550600a600182620001b29190620007cd565b620001be91906200082a565b60046000808481548110620001d857620001d7620009e1565b5b9060005260206000200160009054906101000a900473ffffffffffffffffffffffffffffffffffffffff1673ffffffffffffffffffffffffffffffffffffffff1673ffffffffffffffffffffffffffffffffffffffff16815260200190815260200160002081905550600a600182620002529190620007cd565b6200025e91906200082a565b60056000808481548110620002785762000277620009e1565b5b9060005260206000200160009054906101000a900473ffffffffffffffffffffffffffffffffffffffff1673ffffffffffffffffffffffffffffffffffffffff1673ffffffffffffffffffffffffffffffffffffffff168152602001908152602001600020819055506040518060400160405280600981526020017f617661696c61626c65000000000000000000000000000000000000000000000081525060086000808481548110620003315762000330620009e1565b5b9060005260206000200160009054906101000a900473ffffffffffffffffffffffffffffffffffffffff1673ffffffffffffffffffffffffffffffffffffffff1673ffffffffffffffffffffffffffffffffffffffff1681526020019081526020016000209080519060200190620003ab929190620005af565b503360066000808481548110620003c757620003c6620009e1565b5b9060005260206000200160009054906101000a900473ffffffffffffffffffffffffffffffffffffffff1673ffffffffffffffffffffffffffffffffffffffff1673ffffffffffffffffffffffffffffffffffffffff16815260200190815260200160002060006101000a81548173ffffffffffffffffffffffffffffffffffffffff021916908373ffffffffffffffffffffffffffffffffffffffff160217905550600160096000808481548110620004865762000485620009e1565b5b9060005260206000200160009054906101000a900473ffffffffffffffffffffffffffffffffffffffff1673ffffffffffffffffffffffffffffffffffffffff1673ffffffffffffffffffffffffffffffffffffffff16815260200190815260200160002060006101000a81548160ff02191690831515021790555080806200050f9062000935565b91505062000053565b505062000a7e565b8280548282559060005260206000209081019282156200059c579160200282015b828111156200059b5782518260006101000a81548173ffffffffffffffffffffffffffffffffffffffff021916908373ffffffffffffffffffffffffffffffffffffffff1602179055509160200191906001019062000541565b5b509050620005ab919062000640565b5090565b828054620005bd90620008c9565b90600052602060002090601f016020900481019282620005e157600085556200062d565b82601f10620005fc57805160ff19168380011785556200062d565b828001600101855582156200062d579182015b828111156200062c5782518255916020019190600101906200060f565b5b5090506200063c919062000640565b5090565b5b808211156200065b57600081600090555060010162000641565b5090565b60006200067662000670846200079e565b62000775565b905080838252602082019050828560208602820111156200069c576200069b62000a44565b5b60005b85811015620006d05781620006b58882620006da565b8452602084019350602083019250506001810190506200069f565b5050509392505050565b600081519050620006eb8162000a64565b92915050565b600082601f83011262000709576200070862000a3f565b5b81516200071b8482602086016200065f565b91505092915050565b6000602082840312156200073d576200073c62000a4e565b5b600082015167ffffffffffffffff8111156200075e576200075d62000a49565b5b6200076c84828501620006f1565b91505092915050565b60006200078162000794565b90506200078f8282620008ff565b919050565b6000604051905090565b600067ffffffffffffffff821115620007bc57620007bb62000a10565b5b602082029050602081019050919050565b6000620007da82620008bf565b9150620007e783620008bf565b9250827fffffffffffffffffffffffffffffffffffffffffffffffffffffffffffffffff038211156200081f576200081e62000983565b5b828201905092915050565b60006200083782620008bf565b91506200084483620008bf565b9250817fffffffffffffffffffffffffffffffffffffffffffffffffffffffffffffffff048311821515161562000880576200087f62000983565b5b828202905092915050565b600062000898826200089f565b9050919050565b600073ffffffffffffffffffffffffffffffffffffffff82169050919050565b6000819050919050565b60006002820490506001821680620008e257607f821691505b60208210811415620008f957620008f8620009b2565b5b50919050565b6200090a8262000a53565b810181811067ffffffffffffffff821117156200092c576200092b62000a10565b5b80604052505050565b60006200094282620008bf565b91507fffffffffffffffffffffffffffffffffffffffffffffffffffffffffffffffff82141562000978576200097762000983565b5b600182019050919050565b7f4e487b7100000000000000000000000000000000000000000000000000000000600052601160045260246000fd5b7f4e487b7100000000000000000000000000000000000000000000000000000000600052602260045260246000fd5b7f4e487b7100000000000000000000000000000000000000000000000000000000600052603260045260246000fd5b7f4e487b7100000000000000000000000000000000000000000000000000000000600052604160045260246000fd5b600080fd5b600080fd5b600080fd5b600080fd5b6000601f19601f8301169050919050565b62000a6f816200088b565b811462000a7b57600080fd5b50565b6113fb8062000a8e6000396000f3fe608060405234801561001057600080fd5b506004361061010b5760003560e01c806373ee5a86116100a257806399acac8c1161007157806399acac8c1461033c578063a323d29e1461035a578063aad7e3631461038a578063dff2ef6a146103ba578063fe611a07146103ea5761010b565b806373ee5a8614610290578063754af265146102c05780637709bc78146102dc5780637e50de8e1461030c5761010b565b806341976e09116100de57806341976e09146101d05780634848b986146102005780635721e419146102305780636935c34f146102605761010b565b80631bab58f5146101105780631ce28e721461014057806320c3d37a146101705780633263b545146101a0575b600080fd5b61012a60048036038101906101259190610d0e565b61041a565b6040516101379190611022565b60405180910390f35b61015a60048036038101906101559190610d0e565b6104ba565b6040516101679190611064565b60405180910390f35b61018a60048036038101906101859190610d0e565b6104d2565b6040516101979190611064565b60405180910390f35b6101ba60048036038101906101b59190610df6565b61051b565b6040516101c79190610faf565b60405180910390f35b6101ea60048036038101906101e59190610d0e565b61055a565b6040516101f79190611064565b60405180910390f35b61021a60048036038101906102159190610d0e565b610572565b6040516102279190611064565b60405180910390f35b61024a60048036038101906102459190610d0e565b6105bb565b6040516102579190610faf565b60405180910390f35b61027a60048036038101906102759190610d0e565b6105ee565b6040516102879190611064565b60405180910390f35b6102aa60048036038101906102a59190610d0e565b610606565b6040516102b79190610fec565b60405180910390f35b6102da60048036038101906102d59190610d3b565b610732565b005b6102f660048036038101906102f19190610d0e565b6108d2565b6040516103039190611007565b60405180910390f35b61032660048036038101906103219190610d0e565b6108f2565b6040516103339190611064565b60405180910390f35b61034461093b565b6040516103519190610fca565b60405180910390f35b610374600480360381019061036f9190610d0e565b610a45565b6040516103819190610faf565b60405180910390f35b6103a4600480360381019061039f9190610d0e565b610a78565b6040516103b19190611022565b60405180910390f35b6103d460048036038101906103cf9190610d0e565b610b4e565b6040516103e19190611064565b60405180910390f35b61040460048036038101906103ff9190610d0e565b610b97565b6040516104119190611064565b60405180910390f35b60086020528060005260406000206000915090508054610439906111e1565b80601f0160208091040260200160405190810160405280929190818152602001828054610465906111e1565b80156104b25780601f10610487576101008083540402835291602001916104b2565b820191906000526020600020905b81548152906001019060200180831161049557829003601f168201915b505050505081565b60036020528060005260406000206000915090505481565b6000600460008373ffffffffffffffffffffffffffffffffffffffff1673ffffffffffffffffffffffffffffffffffffffff168152602001908152602001600020549050919050565b6000818154811061052b57600080fd5b906000526020600020016000915054906101000a900473ffffffffffffffffffffffffffffffffffffffff1681565b60026020528060005260406000206000915090505481565b6000600360008373ffffffffffffffffffffffffffffffffffffffff1673ffffffffffffffffffffffffffffffffffffffff168152602001908152602001600020549050919050565b60076020528060005260406000206000915054906101000a900473ffffffffffffffffffffffffffffffffffffffff1681565b60046020528060005260406000206000915090505481565b61060e610baf565b6040518060800160405280600260008573ffffffffffffffffffffffffffffffffffffffff1673ffffffffffffffffffffffffffffffffffffffff168152602001908152602001600020548152602001600360008573ffffffffffffffffffffffffffffffffffffffff1673ffffffffffffffffffffffffffffffffffffffff168152602001908152602001600020548152602001600460008573ffffffffffffffffffffffffffffffffffffffff1673ffffffffffffffffffffffffffffffffffffffff168152602001908152602001600020548152602001600560008573ffffffffffffffffffffffffffffffffffffffff1673ffffffffffffffffffffffffffffffffffffffff168152602001908152602001600020548152509050919050565b60011515600960008673ffffffffffffffffffffffffffffffffffffffff1673ffffffffffffffffffffffffffffffffffffffff16815260200190815260200160002060009054906101000a900460ff161515146107c5576040517f08c379a00000000000000000000000000000000000000000000000000000000081526004016107bc90611044565b60405180910390fd5b33600760008673ffffffffffffffffffffffffffffffffffffffff1673ffffffffffffffffffffffffffffffffffffffff16815260200190815260200160002060006101000a81548173ffffffffffffffffffffffffffffffffffffffff021916908373ffffffffffffffffffffffffffffffffffffffff1602179055506040518060400160405280600681526020017f6163746976650000000000000000000000000000000000000000000000000000815250600860008673ffffffffffffffffffffffffffffffffffffffff1673ffffffffffffffffffffffffffffffffffffffff16815260200190815260200160002090805190602001906108cb929190610bd1565b5050505050565b60096020528060005260406000206000915054906101000a900460ff1681565b6000600560008373ffffffffffffffffffffffffffffffffffffffff1673ffffffffffffffffffffffffffffffffffffffff168152602001908152602001600020549050919050565b60606000808054905067ffffffffffffffff81111561095d5761095c61131a565b5b60405190808252806020026020018201604052801561098b5781602001602082028036833780820191505090505b50905060005b600080549050811015610a3d57600081815481106109b2576109b16112eb565b5b9060005260206000200160009054906101000a900473ffffffffffffffffffffffffffffffffffffffff168282815181106109f0576109ef6112eb565b5b602002602001019073ffffffffffffffffffffffffffffffffffffffff16908173ffffffffffffffffffffffffffffffffffffffff16815250508080610a3590611244565b915050610991565b508091505090565b60066020528060005260406000206000915054906101000a900473ffffffffffffffffffffffffffffffffffffffff1681565b606080600860008473ffffffffffffffffffffffffffffffffffffffff1673ffffffffffffffffffffffffffffffffffffffff1681526020019081526020016000208054610ac5906111e1565b80601f0160208091040260200160405190810160405280929190818152602001828054610af1906111e1565b8015610b3e5780601f10610b1357610100808354040283529160200191610b3e565b820191906000526020600020905b815481529060010190602001808311610b2157829003601f168201915b5050505050905080915050919050565b6000600260008373ffffffffffffffffffffffffffffffffffffffff1673ffffffffffffffffffffffffffffffffffffffff168152602001908152602001600020549050919050565b60056020528060005260406000206000915090505481565b6040518060800160405280600490602082028036833780820191505090505090565b828054610bdd906111e1565b90600052602060002090601f016020900481019282610bff5760008555610c46565b82601f10610c1857805160ff1916838001178555610c46565b82800160010185558215610c46579182015b82811115610c45578251825591602001919060010190610c2a565b5b509050610c539190610c57565b5090565b5b80821115610c70576000816000905550600101610c58565b5090565b6000610c87610c82846110a4565b61107f565b905082815260208101848484011115610ca357610ca261134e565b5b610cae84828561119f565b509392505050565b600081359050610cc581611397565b92915050565b600082601f830112610ce057610cdf611349565b5b8135610cf0848260208601610c74565b91505092915050565b600081359050610d08816113ae565b92915050565b600060208284031215610d2457610d23611358565b5b6000610d3284828501610cb6565b91505092915050565b60008060008060808587031215610d5557610d54611358565b5b6000610d6387828801610cb6565b945050602085013567ffffffffffffffff811115610d8457610d83611353565b5b610d9087828801610ccb565b935050604085013567ffffffffffffffff811115610db157610db0611353565b5b610dbd87828801610ccb565b925050606085013567ffffffffffffffff811115610dde57610ddd611353565b5b610dea87828801610ccb565b91505092959194509250565b600060208284031215610e0c57610e0b611358565b5b6000610e1a84828501610cf9565b91505092915050565b6000610e2f8383610e53565b60208301905092915050565b6000610e478383610f91565b60208301905092915050565b610e5c81611157565b82525050565b610e6b81611157565b82525050565b6000610e7c826110ef565b610e86818561112a565b9350610e91836110d5565b8060005b83811015610ec2578151610ea98882610e23565b9750610eb483611110565b925050600181019050610e95565b5085935050505092915050565b610ed8816110fa565b610ee2818461113b565b9250610eed826110e5565b8060005b83811015610f1e578151610f058782610e3b565b9650610f108361111d565b925050600181019050610ef1565b505050505050565b610f2f81611169565b82525050565b6000610f4082611105565b610f4a8185611146565b9350610f5a8185602086016111ae565b610f638161135d565b840191505092915050565b6000610f7b601683611146565b9150610f868261136e565b602082019050919050565b610f9a81611195565b82525050565b610fa981611195565b82525050565b6000602082019050610fc46000830184610e62565b92915050565b60006020820190508181036000830152610fe48184610e71565b905092915050565b60006080820190506110016000830184610ecf565b92915050565b600060208201905061101c6000830184610f26565b92915050565b6000602082019050818103600083015261103c8184610f35565b905092915050565b6000602082019050818103600083015261105d81610f6e565b9050919050565b60006020820190506110796000830184610fa0565b92915050565b600061108961109a565b90506110958282611213565b919050565b6000604051905090565b600067ffffffffffffffff8211156110bf576110be61131a565b5b6110c88261135d565b9050602081019050919050565b6000819050602082019050919050565b6000819050919050565b600081519050919050565b600060049050919050565b600081519050919050565b6000602082019050919050565b6000602082019050919050565b600082825260208201905092915050565b600081905092915050565b600082825260208201905092915050565b600061116282611175565b9050919050565b60008115159050919050565b600073ffffffffffffffffffffffffffffffffffffffff82169050919050565b6000819050919050565b82818337600083830152505050565b60005b838110156111cc5780820151818401526020810190506111b1565b838111156111db576000848401525b50505050565b600060028204905060018216806111f957607f821691505b6020821081141561120d5761120c6112bc565b5b50919050565b61121c8261135d565b810181811067ffffffffffffffff8211171561123b5761123a61131a565b5b80604052505050565b600061124f82611195565b91507fffffffffffffffffffffffffffffffffffffffffffffffffffffffffffffffff8214156112825761128161128d565b5b600182019050919050565b7f4e487b7100000000000000000000000000000000000000000000000000000000600052601160045260246000fd5b7f4e487b7100000000000000000000000000000000000000000000000000000000600052602260045260246000fd5b7f4e487b7100000000000000000000000000000000000000000000000000000000600052603260045260246000fd5b7f4e487b7100000000000000000000000000000000000000000000000000000000600052604160045260246000fd5b600080fd5b600080fd5b600080fd5b600080fd5b6000601f19601f8301169050919050565b7f636f6e747261637420646f65736e277420657869737400000000000000000000600082015250565b6113a081611157565b81146113ab57600080fd5b50565b6113b781611195565b81146113c257600080fd5b5056fea2646970667358221220f2caef60d569b5305627c1b4cbcc8d1baf5bcac834c774601db3fbefa0245ae264736f6c63430008070033",
	"immutableReferences": {},
	"source": "//SPDX-License-Identifier: UNLICENSED\n\npragma solidity > 0.8.0;\n\ncontract TestingContract {\n  address[] public contractAddresses;\n  string contractState;\n\n  mapping(address => uint) public getPrice;\n  mapping(address => uint) public getLimit;\n  mapping(address => uint) public getSpeed;\n  mapping(address => uint) public getLength;\n  mapping(address => address) public getSeller;\n  mapping(address => address) public getBuyer;\n  mapping(address => string) public getState;\n  mapping(address => bool) public contractExists;\n\n\n  constructor(address[] memory _addresses) {\n    contractAddresses = _addresses;\n\n    for (uint _i = 0; _i < contractAddresses.length; _i++) {\n      getPrice[contractAddresses[_i]] = (_i+1)*10;\n      getLimit[contractAddresses[_i]] = (_i+1)*10;\n      getSpeed[contractAddresses[_i]] = (_i+1)*10;\n      getLength[contractAddresses[_i]] = (_i+1)*10;\n      getState[contractAddresses[_i]] = \"available\";\n      getSeller[contractAddresses[_i]] = msg.sender;\n      contractExists[contractAddresses[_i]] = true;\n    }\n  }\n\n\n  function getContractList() public view returns (address[] memory) {\n    address[] memory _addresses = new address[](contractAddresses.length);\n    for (uint _i = 0; _i < contractAddresses.length; _i++) {\n      _addresses[_i] = contractAddresses[_i];\n    }\n    return _addresses;\n  }\n\n\n  function getAddressPrice(address _address) public view returns (uint) {\n    return getPrice[_address];\n  }\n\n  function getAddressLimit(address _address) public view returns (uint) {\n    return getLimit[_address];\n  }\n\n  function getAddressSpeed(address _address) public view returns (uint) {\n    return getSpeed[_address];\n  }\n\n  function getAddressLength(address _address) public view returns (uint) {\n    return getLength[_address];\n  }\n\n  function getContractVariables(address _address) public view returns (uint[4] memory) {\n    return [\n    getPrice[_address],\n    getLimit[_address],\n    getSpeed[_address],\n    getLength[_address]\n    ];\n  }\n\n  function getContractState(address _address) public view returns (string memory) {\n    string memory _state;\n    _state = getState[_address];\n    return _state;\n  }\n\n  //_address is the contract being purchased\n  function setBuyContract(address _address, string memory pool_address, string memory username, string memory password) public {\n    require(contractExists[_address] == true, \"contract doesn't exist\");\n    getBuyer[_address] = msg.sender;\n    getState[_address] = \"active\";\n  }\n}\n\n\n\n",
	"sourcePath": "/Users/joshkean/Documents/sandbox/connect_to_aws/contracts/TestingContract.sol",
	"compiler": {
		"name": "solc",
		"version": "0.8.7+commit.e28d00a7.Emscripten.clang"
	},
	"schemaVersion": "3.4.2",
	"updatedAt": "2021-09-03T19:12:24.839Z",
	"networkType": "ethereum",
	"devdoc": {
		"kind": "dev",
		"methods": {},
		"version": 1
	},
	"userdoc": {
		"kind": "user",
		"methods": {},
		"version": 1
	}
}