{
	"contractName": "TestingContract",
	"abi": [
		{
			"inputs": [
				{
					"internalType": "address[]",
					"name": "_addresses",
					"type": "address[]"
				}
			],
			"stateMutability": "nonpayable",
			"type": "constructor"
		},
		{
			"inputs": [
				{
					"internalType": "uint256",
					"name": "",
					"type": "uint256"
				}
			],
			"name": "contractAddresses",
			"outputs": [
				{
					"internalType": "address",
					"name": "",
					"type": "address"
				}
			],
			"stateMutability": "view",
			"type": "function",
			"constant": true
		},
		{
			"inputs": [
				{
					"internalType": "address",
					"name": "",
					"type": "address"
				}
			],
			"name": "contractExists",
			"outputs": [
				{
					"internalType": "bool",
					"name": "",
					"type": "bool"
				}
			],
			"stateMutability": "view",
			"type": "function",
			"constant": true
		},
		{
			"inputs": [
				{
					"internalType": "address",
					"name": "",
					"type": "address"
				}
			],
			"name": "getBuyer",
			"outputs": [
				{
					"internalType": "address",
					"name": "",
					"type": "address"
				}
			],
			"stateMutability": "view",
			"type": "function",
			"constant": true
		},
		{
			"inputs": [
				{
					"internalType": "address",
					"name": "",
					"type": "address"
				}
			],
			"name": "getLength",
			"outputs": [
				{
					"internalType": "uint256",
					"name": "",
					"type": "uint256"
				}
			],
			"stateMutability": "view",
			"type": "function",
			"constant": true
		},
		{
			"inputs": [
				{
					"internalType": "address",
					"name": "",
					"type": "address"
				}
			],
			"name": "getLimit",
			"outputs": [
				{
					"internalType": "uint256",
					"name": "",
					"type": "uint256"
				}
			],
			"stateMutability": "view",
			"type": "function",
			"constant": true
		},
		{
			"inputs": [
				{
					"internalType": "address",
					"name": "",
					"type": "address"
				}
			],
			"name": "getPrice",
			"outputs": [
				{
					"internalType": "uint256",
					"name": "",
					"type": "uint256"
				}
			],
			"stateMutability": "view",
			"type": "function",
			"constant": true
		},
		{
			"inputs": [
				{
					"internalType": "address",
					"name": "",
					"type": "address"
				}
			],
			"name": "getSeller",
			"outputs": [
				{
					"internalType": "address",
					"name": "",
					"type": "address"
				}
			],
			"stateMutability": "view",
			"type": "function",
			"constant": true
		},
		{
			"inputs": [
				{
					"internalType": "address",
					"name": "",
					"type": "address"
				}
			],
			"name": "getSpeed",
			"outputs": [
				{
					"internalType": "uint256",
					"name": "",
					"type": "uint256"
				}
			],
			"stateMutability": "view",
			"type": "function",
			"constant": true
		},
		{
			"inputs": [
				{
					"internalType": "address",
					"name": "",
					"type": "address"
				}
			],
			"name": "getState",
			"outputs": [
				{
					"internalType": "string",
					"name": "",
					"type": "string"
				}
			],
			"stateMutability": "view",
			"type": "function",
			"constant": true
		},
		{
			"inputs": [],
			"name": "getContractList",
			"outputs": [
				{
					"internalType": "address[]",
					"name": "",
					"type": "address[]"
				}
			],
			"stateMutability": "view",
			"type": "function",
			"constant": true
		},
		{
			"inputs": [
				{
					"internalType": "address",
					"name": "_address",
					"type": "address"
				}
			],
			"name": "getAddressPrice",
			"outputs": [
				{
					"internalType": "uint256",
					"name": "",
					"type": "uint256"
				}
			],
			"stateMutability": "view",
			"type": "function",
			"constant": true
		},
		{
			"inputs": [
				{
					"internalType": "address",
					"name": "_address",
					"type": "address"
				}
			],
			"name": "getAddressLimit",
			"outputs": [
				{
					"internalType": "uint256",
					"name": "",
					"type": "uint256"
				}
			],
			"stateMutability": "view",
			"type": "function",
			"constant": true
		},
		{
			"inputs": [
				{
					"internalType": "address",
					"name": "_address",
					"type": "address"
				}
			],
			"name": "getAddressSpeed",
			"outputs": [
				{
					"internalType": "uint256",
					"name": "",
					"type": "uint256"
				}
			],
			"stateMutability": "view",
			"type": "function",
			"constant": true
		},
		{
			"inputs": [
				{
					"internalType": "address",
					"name": "_address",
					"type": "address"
				}
			],
			"name": "getAddressLength",
			"outputs": [
				{
					"internalType": "uint256",
					"name": "",
					"type": "uint256"
				}
			],
			"stateMutability": "view",
			"type": "function",
			"constant": true
		},
		{
			"inputs": [
				{
					"internalType": "address",
					"name": "_address",
					"type": "address"
				}
			],
			"name": "getContractVariables",
			"outputs": [
				{
					"internalType": "uint256[4]",
					"name": "",
					"type": "uint256[4]"
				}
			],
			"stateMutability": "view",
			"type": "function",
			"constant": true
		},
		{
			"inputs": [
				{
					"internalType": "address",
					"name": "_address",
					"type": "address"
				}
			],
			"name": "getContractState",
			"outputs": [
				{
					"internalType": "string",
					"name": "",
					"type": "string"
				}
			],
			"stateMutability": "view",
			"type": "function",
			"constant": true
		},
		{
			"inputs": [
				{
					"internalType": "address",
					"name": "_address",
					"type": "address"
				},
				{
					"internalType": "string",
					"name": "pool_address",
					"type": "string"
				},
				{
					"internalType": "string",
					"name": "username",
					"type": "string"
				},
				{
					"internalType": "string",
					"name": "password",
					"type": "string"
				}
			],
			"name": "setBuyContract",
			"outputs": [],
			"stateMutability": "payable",
			"type": "function",
			"payable": true
		}
	],
	"bytecode": "0x60806040523480156200001157600080fd5b5060405162001e4d38038062001e4d833981810160405281019062000037919062000724565b80600090805190602001906200004f92919062000520565b5060005b6000805490508110156200051857600a600182620000729190620007cd565b6200007e91906200082a565b60026000808481548110620000985762000097620009e1565b5b9060005260206000200160009054906101000a900473ffffffffffffffffffffffffffffffffffffffff1673ffffffffffffffffffffffffffffffffffffffff1673ffffffffffffffffffffffffffffffffffffffff16815260200190815260200160002081905550600a600182620001129190620007cd565b6200011e91906200082a565b60036000808481548110620001385762000137620009e1565b5b9060005260206000200160009054906101000a900473ffffffffffffffffffffffffffffffffffffffff1673ffffffffffffffffffffffffffffffffffffffff1673ffffffffffffffffffffffffffffffffffffffff16815260200190815260200160002081905550600a600182620001b29190620007cd565b620001be91906200082a565b60046000808481548110620001d857620001d7620009e1565b5b9060005260206000200160009054906101000a900473ffffffffffffffffffffffffffffffffffffffff1673ffffffffffffffffffffffffffffffffffffffff1673ffffffffffffffffffffffffffffffffffffffff16815260200190815260200160002081905550600a600182620002529190620007cd565b6200025e91906200082a565b60056000808481548110620002785762000277620009e1565b5b9060005260206000200160009054906101000a900473ffffffffffffffffffffffffffffffffffffffff1673ffffffffffffffffffffffffffffffffffffffff1673ffffffffffffffffffffffffffffffffffffffff168152602001908152602001600020819055506040518060400160405280600981526020017f617661696c61626c65000000000000000000000000000000000000000000000081525060086000808481548110620003315762000330620009e1565b5b9060005260206000200160009054906101000a900473ffffffffffffffffffffffffffffffffffffffff1673ffffffffffffffffffffffffffffffffffffffff1673ffffffffffffffffffffffffffffffffffffffff1681526020019081526020016000209080519060200190620003ab929190620005af565b503360066000808481548110620003c757620003c6620009e1565b5b9060005260206000200160009054906101000a900473ffffffffffffffffffffffffffffffffffffffff1673ffffffffffffffffffffffffffffffffffffffff1673ffffffffffffffffffffffffffffffffffffffff16815260200190815260200160002060006101000a81548173ffffffffffffffffffffffffffffffffffffffff021916908373ffffffffffffffffffffffffffffffffffffffff160217905550600160096000808481548110620004865762000485620009e1565b5b9060005260206000200160009054906101000a900473ffffffffffffffffffffffffffffffffffffffff1673ffffffffffffffffffffffffffffffffffffffff1673ffffffffffffffffffffffffffffffffffffffff16815260200190815260200160002060006101000a81548160ff02191690831515021790555080806200050f9062000935565b91505062000053565b505062000a7e565b8280548282559060005260206000209081019282156200059c579160200282015b828111156200059b5782518260006101000a81548173ffffffffffffffffffffffffffffffffffffffff021916908373ffffffffffffffffffffffffffffffffffffffff1602179055509160200191906001019062000541565b5b509050620005ab919062000640565b5090565b828054620005bd90620008c9565b90600052602060002090601f016020900481019282620005e157600085556200062d565b82601f10620005fc57805160ff19168380011785556200062d565b828001600101855582156200062d579182015b828111156200062c5782518255916020019190600101906200060f565b5b5090506200063c919062000640565b5090565b5b808211156200065b57600081600090555060010162000641565b5090565b60006200067662000670846200079e565b62000775565b905080838252602082019050828560208602820111156200069c576200069b62000a44565b5b60005b85811015620006d05781620006b58882620006da565b8452602084019350602083019250506001810190506200069f565b5050509392505050565b600081519050620006eb8162000a64565b92915050565b600082601f83011262000709576200070862000a3f565b5b81516200071b8482602086016200065f565b91505092915050565b6000602082840312156200073d576200073c62000a4e565b5b600082015167ffffffffffffffff8111156200075e576200075d62000a49565b5b6200076c84828501620006f1565b91505092915050565b60006200078162000794565b90506200078f8282620008ff565b919050565b6000604051905090565b600067ffffffffffffffff821115620007bc57620007bb62000a10565b5b602082029050602081019050919050565b6000620007da82620008bf565b9150620007e783620008bf565b9250827fffffffffffffffffffffffffffffffffffffffffffffffffffffffffffffffff038211156200081f576200081e62000983565b5b828201905092915050565b60006200083782620008bf565b91506200084483620008bf565b9250817fffffffffffffffffffffffffffffffffffffffffffffffffffffffffffffffff048311821515161562000880576200087f62000983565b5b828202905092915050565b600062000898826200089f565b9050919050565b600073ffffffffffffffffffffffffffffffffffffffff82169050919050565b6000819050919050565b60006002820490506001821680620008e257607f821691505b60208210811415620008f957620008f8620009b2565b5b50919050565b6200090a8262000a53565b810181811067ffffffffffffffff821117156200092c576200092b62000a10565b5b80604052505050565b60006200094282620008bf565b91507fffffffffffffffffffffffffffffffffffffffffffffffffffffffffffffffff82141562000978576200097762000983565b5b600182019050919050565b7f4e487b7100000000000000000000000000000000000000000000000000000000600052601160045260246000fd5b7f4e487b7100000000000000000000000000000000000000000000000000000000600052602260045260246000fd5b7f4e487b7100000000000000000000000000000000000000000000000000000000600052603260045260246000fd5b7f4e487b7100000000000000000000000000000000000000000000000000000000600052604160045260246000fd5b600080fd5b600080fd5b600080fd5b600080fd5b6000601f19601f8301169050919050565b62000a6f816200088b565b811462000a7b57600080fd5b50565b6113bf8062000a8e6000396000f3fe6080604052600436106100fe5760003560e01c806373ee5a861161009557806399acac8c1161006457806399acac8c146103be578063a323d29e146103e9578063aad7e36314610426578063dff2ef6a14610463578063fe611a07146104a0576100fe565b806373ee5a86146102eb578063754af265146103285780637709bc78146103445780637e50de8e14610381576100fe565b806341976e09116100d157806341976e09146101f75780634848b986146102345780635721e419146102715780636935c34f146102ae576100fe565b80631bab58f5146101035780631ce28e721461014057806320c3d37a1461017d5780633263b545146101ba575b600080fd5b34801561010f57600080fd5b5061012a60048036038101906101259190610d3e565b6104dd565b604051610137919061102f565b60405180910390f35b34801561014c57600080fd5b5061016760048036038101906101629190610d3e565b61057d565b6040516101749190611051565b60405180910390f35b34801561018957600080fd5b506101a4600480360381019061019f9190610d3e565b610595565b6040516101b19190611051565b60405180910390f35b3480156101c657600080fd5b506101e160048036038101906101dc9190610e26565b6105de565b6040516101ee9190610fbc565b60405180910390f35b34801561020357600080fd5b5061021e60048036038101906102199190610d3e565b61061d565b60405161022b9190611051565b60405180910390f35b34801561024057600080fd5b5061025b60048036038101906102569190610d3e565b610635565b6040516102689190611051565b60405180910390f35b34801561027d57600080fd5b5061029860048036038101906102939190610d3e565b61067e565b6040516102a59190610fbc565b60405180910390f35b3480156102ba57600080fd5b506102d560048036038101906102d09190610d3e565b6106b1565b6040516102e29190611051565b60405180910390f35b3480156102f757600080fd5b50610312600480360381019061030d9190610d3e565b6106c9565b60405161031f9190610ff9565b60405180910390f35b610342600480360381019061033d9190610d6b565b6107f5565b005b34801561035057600080fd5b5061036b60048036038101906103669190610d3e565b610902565b6040516103789190611014565b60405180910390f35b34801561038d57600080fd5b506103a860048036038101906103a39190610d3e565b610922565b6040516103b59190611051565b60405180910390f35b3480156103ca57600080fd5b506103d361096b565b6040516103e09190610fd7565b60405180910390f35b3480156103f557600080fd5b50610410600480360381019061040b9190610d3e565b610a75565b60405161041d9190610fbc565b60405180910390f35b34801561043257600080fd5b5061044d60048036038101906104489190610d3e565b610aa8565b60405161045a919061102f565b60405180910390f35b34801561046f57600080fd5b5061048a60048036038101906104859190610d3e565b610b7e565b6040516104979190611051565b60405180910390f35b3480156104ac57600080fd5b506104c760048036038101906104c29190610d3e565b610bc7565b6040516104d49190611051565b60405180910390f35b600860205280600052604060002060009150905080546104fc906111ce565b80601f0160208091040260200160405190810160405280929190818152602001828054610528906111ce565b80156105755780601f1061054a57610100808354040283529160200191610575565b820191906000526020600020905b81548152906001019060200180831161055857829003601f168201915b505050505081565b60036020528060005260406000206000915090505481565b6000600460008373ffffffffffffffffffffffffffffffffffffffff1673ffffffffffffffffffffffffffffffffffffffff168152602001908152602001600020549050919050565b600081815481106105ee57600080fd5b906000526020600020016000915054906101000a900473ffffffffffffffffffffffffffffffffffffffff1681565b60026020528060005260406000206000915090505481565b6000600360008373ffffffffffffffffffffffffffffffffffffffff1673ffffffffffffffffffffffffffffffffffffffff168152602001908152602001600020549050919050565b60076020528060005260406000206000915054906101000a900473ffffffffffffffffffffffffffffffffffffffff1681565b60046020528060005260406000206000915090505481565b6106d1610bdf565b6040518060800160405280600260008573ffffffffffffffffffffffffffffffffffffffff1673ffffffffffffffffffffffffffffffffffffffff168152602001908152602001600020548152602001600360008573ffffffffffffffffffffffffffffffffffffffff1673ffffffffffffffffffffffffffffffffffffffff168152602001908152602001600020548152602001600460008573ffffffffffffffffffffffffffffffffffffffff1673ffffffffffffffffffffffffffffffffffffffff168152602001908152602001600020548152602001600560008573ffffffffffffffffffffffffffffffffffffffff1673ffffffffffffffffffffffffffffffffffffffff168152602001908152602001600020548152509050919050565b33600760008673ffffffffffffffffffffffffffffffffffffffff1673ffffffffffffffffffffffffffffffffffffffff16815260200190815260200160002060006101000a81548173ffffffffffffffffffffffffffffffffffffffff021916908373ffffffffffffffffffffffffffffffffffffffff1602179055506040518060400160405280600681526020017f6163746976650000000000000000000000000000000000000000000000000000815250600860008673ffffffffffffffffffffffffffffffffffffffff1673ffffffffffffffffffffffffffffffffffffffff16815260200190815260200160002090805190602001906108fb929190610c01565b5050505050565b60096020528060005260406000206000915054906101000a900460ff1681565b6000600560008373ffffffffffffffffffffffffffffffffffffffff1673ffffffffffffffffffffffffffffffffffffffff168152602001908152602001600020549050919050565b60606000808054905067ffffffffffffffff81111561098d5761098c611307565b5b6040519080825280602002602001820160405280156109bb5781602001602082028036833780820191505090505b50905060005b600080549050811015610a6d57600081815481106109e2576109e16112d8565b5b9060005260206000200160009054906101000a900473ffffffffffffffffffffffffffffffffffffffff16828281518110610a2057610a1f6112d8565b5b602002602001019073ffffffffffffffffffffffffffffffffffffffff16908173ffffffffffffffffffffffffffffffffffffffff16815250508080610a6590611231565b9150506109c1565b508091505090565b60066020528060005260406000206000915054906101000a900473ffffffffffffffffffffffffffffffffffffffff1681565b606080600860008473ffffffffffffffffffffffffffffffffffffffff1673ffffffffffffffffffffffffffffffffffffffff1681526020019081526020016000208054610af5906111ce565b80601f0160208091040260200160405190810160405280929190818152602001828054610b21906111ce565b8015610b6e5780601f10610b4357610100808354040283529160200191610b6e565b820191906000526020600020905b815481529060010190602001808311610b5157829003601f168201915b5050505050905080915050919050565b6000600260008373ffffffffffffffffffffffffffffffffffffffff1673ffffffffffffffffffffffffffffffffffffffff168152602001908152602001600020549050919050565b60056020528060005260406000206000915090505481565b6040518060800160405280600490602082028036833780820191505090505090565b828054610c0d906111ce565b90600052602060002090601f016020900481019282610c2f5760008555610c76565b82601f10610c4857805160ff1916838001178555610c76565b82800160010185558215610c76579182015b82811115610c75578251825591602001919060010190610c5a565b5b509050610c839190610c87565b5090565b5b80821115610ca0576000816000905550600101610c88565b5090565b6000610cb7610cb284611091565b61106c565b905082815260208101848484011115610cd357610cd261133b565b5b610cde84828561118c565b509392505050565b600081359050610cf58161135b565b92915050565b600082601f830112610d1057610d0f611336565b5b8135610d20848260208601610ca4565b91505092915050565b600081359050610d3881611372565b92915050565b600060208284031215610d5457610d53611345565b5b6000610d6284828501610ce6565b91505092915050565b60008060008060808587031215610d8557610d84611345565b5b6000610d9387828801610ce6565b945050602085013567ffffffffffffffff811115610db457610db3611340565b5b610dc087828801610cfb565b935050604085013567ffffffffffffffff811115610de157610de0611340565b5b610ded87828801610cfb565b925050606085013567ffffffffffffffff811115610e0e57610e0d611340565b5b610e1a87828801610cfb565b91505092959194509250565b600060208284031215610e3c57610e3b611345565b5b6000610e4a84828501610d29565b91505092915050565b6000610e5f8383610e83565b60208301905092915050565b6000610e778383610f9e565b60208301905092915050565b610e8c81611144565b82525050565b610e9b81611144565b82525050565b6000610eac826110dc565b610eb68185611117565b9350610ec1836110c2565b8060005b83811015610ef2578151610ed98882610e53565b9750610ee4836110fd565b925050600181019050610ec5565b5085935050505092915050565b610f08816110e7565b610f128184611128565b9250610f1d826110d2565b8060005b83811015610f4e578151610f358782610e6b565b9650610f408361110a565b925050600181019050610f21565b505050505050565b610f5f81611156565b82525050565b6000610f70826110f2565b610f7a8185611133565b9350610f8a81856020860161119b565b610f938161134a565b840191505092915050565b610fa781611182565b82525050565b610fb681611182565b82525050565b6000602082019050610fd16000830184610e92565b92915050565b60006020820190508181036000830152610ff18184610ea1565b905092915050565b600060808201905061100e6000830184610eff565b92915050565b60006020820190506110296000830184610f56565b92915050565b600060208201905081810360008301526110498184610f65565b905092915050565b60006020820190506110666000830184610fad565b92915050565b6000611076611087565b90506110828282611200565b919050565b6000604051905090565b600067ffffffffffffffff8211156110ac576110ab611307565b5b6110b58261134a565b9050602081019050919050565b6000819050602082019050919050565b6000819050919050565b600081519050919050565b600060049050919050565b600081519050919050565b6000602082019050919050565b6000602082019050919050565b600082825260208201905092915050565b600081905092915050565b600082825260208201905092915050565b600061114f82611162565b9050919050565b60008115159050919050565b600073ffffffffffffffffffffffffffffffffffffffff82169050919050565b6000819050919050565b82818337600083830152505050565b60005b838110156111b957808201518184015260208101905061119e565b838111156111c8576000848401525b50505050565b600060028204905060018216806111e657607f821691505b602082108114156111fa576111f96112a9565b5b50919050565b6112098261134a565b810181811067ffffffffffffffff8211171561122857611227611307565b5b80604052505050565b600061123c82611182565b91507fffffffffffffffffffffffffffffffffffffffffffffffffffffffffffffffff82141561126f5761126e61127a565b5b600182019050919050565b7f4e487b7100000000000000000000000000000000000000000000000000000000600052601160045260246000fd5b7f4e487b7100000000000000000000000000000000000000000000000000000000600052602260045260246000fd5b7f4e487b7100000000000000000000000000000000000000000000000000000000600052603260045260246000fd5b7f4e487b7100000000000000000000000000000000000000000000000000000000600052604160045260246000fd5b600080fd5b600080fd5b600080fd5b600080fd5b6000601f19601f8301169050919050565b61136481611144565b811461136f57600080fd5b50565b61137b81611182565b811461138657600080fd5b5056fea2646970667358221220cefea14ca18d24dffd4a9d419b8bbd2ff59307e1bd1ee81f1c452c2afba636cb64736f6c63430008070033",
	"immutableReferences": {},
	"source": "//SPDX-License-Identifier: UNLICENSED\n\npragma solidity > 0.8.0;\n\ncontract TestingContract {\n  address[] public contractAddresses;\n  string contractState;\n\n  mapping(address => uint) public getPrice;\n  mapping(address => uint) public getLimit;\n  mapping(address => uint) public getSpeed;\n  mapping(address => uint) public getLength;\n  mapping(address => address) public getSeller;\n  mapping(address => address) public getBuyer;\n  mapping(address => string) public getState;\n  mapping(address => bool) public contractExists;\n\n\n  constructor(address[] memory _addresses) {\n    contractAddresses = _addresses;\n\n    for (uint _i = 0; _i < contractAddresses.length; _i++) {\n      getPrice[contractAddresses[_i]] = (_i+1)*10;\n      getLimit[contractAddresses[_i]] = (_i+1)*10;\n      getSpeed[contractAddresses[_i]] = (_i+1)*10;\n      getLength[contractAddresses[_i]] = (_i+1)*10;\n      getState[contractAddresses[_i]] = \"available\";\n      getSeller[contractAddresses[_i]] = msg.sender;\n      contractExists[contractAddresses[_i]] = true;\n    }\n  }\n\n\n  function getContractList() public view returns (address[] memory) {\n    address[] memory _addresses = new address[](contractAddresses.length);\n    for (uint _i = 0; _i < contractAddresses.length; _i++) {\n      _addresses[_i] = contractAddresses[_i];\n    }\n    return _addresses;\n  }\n\n\n  function getAddressPrice(address _address) public view returns (uint) {\n    return getPrice[_address];\n  }\n\n  function getAddressLimit(address _address) public view returns (uint) {\n    return getLimit[_address];\n  }\n\n  function getAddressSpeed(address _address) public view returns (uint) {\n    return getSpeed[_address];\n  }\n\n  function getAddressLength(address _address) public view returns (uint) {\n    return getLength[_address];\n  }\n\n  function getContractVariables(address _address) public view returns (uint[4] memory) {\n    return [\n    getPrice[_address],\n    getLimit[_address],\n    getSpeed[_address],\n    getLength[_address]\n    ];\n  }\n\n  function getContractState(address _address) public view returns (string memory) {\n    string memory _state;\n    _state = getState[_address];\n    return _state;\n  }\n\n  //_address is the contract being purchased\n  function setBuyContract(address _address, string memory pool_address, string memory username, string memory password) public payable {\n    //require(contractExists[_address] == true, \"contract doesn't exist\");\n    getBuyer[_address] = msg.sender;\n    getState[_address] = \"active\";\n  }\n}\n\n\n\n",
	"sourcePath": "/Users/joshkean/Documents/sandbox/connect_to_aws/contracts/TestingContract.sol",
	"compiler": {
		"name": "solc",
		"version": "0.8.7+commit.e28d00a7.Emscripten.clang"
	},
	"schemaVersion": "3.4.2",
	"updatedAt": "2021-09-08T23:05:28.877Z",
	"networkType": "ethereum",
	"devdoc": {
		"kind": "dev",
		"methods": {},
		"version": 1
	},
	"userdoc": {
		"kind": "user",
		"methods": {},
		"version": 1
	}
}