{
  "contractName": "TestingContract",
  "abi": [
    {
      "inputs": [
        {
          "internalType": "address[]",
          "name": "_addresses",
          "type": "address[]"
        }
      ],
      "stateMutability": "nonpayable",
      "type": "constructor"
    },
    {
      "anonymous": false,
      "inputs": [
        {
          "indexed": false,
          "internalType": "address",
          "name": "_contractAddress",
          "type": "address"
        }
      ],
      "name": "contractCreated",
      "type": "event"
    },
    {
      "anonymous": false,
      "inputs": [
        {
          "indexed": false,
          "internalType": "address",
          "name": "_contractAddress",
          "type": "address"
        }
      ],
      "name": "contractPurchased",
      "type": "event"
    },
    {
      "inputs": [
        {
          "internalType": "uint256",
          "name": "",
          "type": "uint256"
        }
      ],
      "name": "contractAddresses",
      "outputs": [
        {
          "internalType": "address",
          "name": "",
          "type": "address"
        }
      ],
      "stateMutability": "view",
      "type": "function",
      "constant": true
    },
    {
      "inputs": [
        {
          "internalType": "address",
          "name": "",
          "type": "address"
        }
      ],
      "name": "contractExists",
      "outputs": [
        {
          "internalType": "bool",
          "name": "",
          "type": "bool"
        }
      ],
      "stateMutability": "view",
      "type": "function",
      "constant": true
    },
    {
      "inputs": [
        {
          "internalType": "address",
          "name": "",
          "type": "address"
        }
      ],
      "name": "getBuyer",
      "outputs": [
        {
          "internalType": "address",
          "name": "",
          "type": "address"
        }
      ],
      "stateMutability": "view",
      "type": "function",
      "constant": true
    },
    {
      "inputs": [
        {
          "internalType": "address",
          "name": "",
          "type": "address"
        }
      ],
      "name": "getLength",
      "outputs": [
        {
          "internalType": "uint256",
          "name": "",
          "type": "uint256"
        }
      ],
      "stateMutability": "view",
      "type": "function",
      "constant": true
    },
    {
      "inputs": [
        {
          "internalType": "address",
          "name": "",
          "type": "address"
        }
      ],
      "name": "getLimit",
      "outputs": [
        {
          "internalType": "uint256",
          "name": "",
          "type": "uint256"
        }
      ],
      "stateMutability": "view",
      "type": "function",
      "constant": true
    },
    {
      "inputs": [
        {
          "internalType": "address",
          "name": "",
          "type": "address"
        }
      ],
      "name": "getPrice",
      "outputs": [
        {
          "internalType": "uint256",
          "name": "",
          "type": "uint256"
        }
      ],
      "stateMutability": "view",
      "type": "function",
      "constant": true
    },
    {
      "inputs": [
        {
          "internalType": "address",
          "name": "",
          "type": "address"
        }
      ],
      "name": "getSeller",
      "outputs": [
        {
          "internalType": "address",
          "name": "",
          "type": "address"
        }
      ],
      "stateMutability": "view",
      "type": "function",
      "constant": true
    },
    {
      "inputs": [
        {
          "internalType": "address",
          "name": "",
          "type": "address"
        }
      ],
      "name": "getSpeed",
      "outputs": [
        {
          "internalType": "uint256",
          "name": "",
          "type": "uint256"
        }
      ],
      "stateMutability": "view",
      "type": "function",
      "constant": true
    },
    {
      "inputs": [
        {
          "internalType": "address",
          "name": "",
          "type": "address"
        }
      ],
      "name": "getState",
      "outputs": [
        {
          "internalType": "string",
          "name": "",
          "type": "string"
        }
      ],
      "stateMutability": "view",
      "type": "function",
      "constant": true
    },
    {
      "inputs": [],
      "name": "getContractList",
      "outputs": [
        {
          "internalType": "address[]",
          "name": "",
          "type": "address[]"
        }
      ],
      "stateMutability": "view",
      "type": "function",
      "constant": true
    },
    {
      "inputs": [
        {
          "internalType": "address",
          "name": "_address",
          "type": "address"
        }
      ],
      "name": "getAddressPrice",
      "outputs": [
        {
          "internalType": "uint256",
          "name": "",
          "type": "uint256"
        }
      ],
      "stateMutability": "view",
      "type": "function",
      "constant": true
    },
    {
      "inputs": [
        {
          "internalType": "address",
          "name": "_address",
          "type": "address"
        }
      ],
      "name": "getAddressLimit",
      "outputs": [
        {
          "internalType": "uint256",
          "name": "",
          "type": "uint256"
        }
      ],
      "stateMutability": "view",
      "type": "function",
      "constant": true
    },
    {
      "inputs": [
        {
          "internalType": "address",
          "name": "_address",
          "type": "address"
        }
      ],
      "name": "getAddressSpeed",
      "outputs": [
        {
          "internalType": "uint256",
          "name": "",
          "type": "uint256"
        }
      ],
      "stateMutability": "view",
      "type": "function",
      "constant": true
    },
    {
      "inputs": [
        {
          "internalType": "address",
          "name": "_address",
          "type": "address"
        }
      ],
      "name": "getAddressLength",
      "outputs": [
        {
          "internalType": "uint256",
          "name": "",
          "type": "uint256"
        }
      ],
      "stateMutability": "view",
      "type": "function",
      "constant": true
    },
    {
      "inputs": [
        {
          "internalType": "address",
          "name": "_address",
          "type": "address"
        }
      ],
      "name": "getContractVariables",
      "outputs": [
        {
          "internalType": "uint256[4]",
          "name": "",
          "type": "uint256[4]"
        }
      ],
      "stateMutability": "view",
      "type": "function",
      "constant": true
    },
    {
      "inputs": [
        {
          "internalType": "address",
          "name": "_address",
          "type": "address"
        }
      ],
      "name": "getContractState",
      "outputs": [
        {
          "internalType": "string",
          "name": "",
          "type": "string"
        }
      ],
      "stateMutability": "view",
      "type": "function",
      "constant": true
    },
    {
      "inputs": [
        {
          "internalType": "address",
          "name": "_address",
          "type": "address"
        },
        {
          "internalType": "string",
          "name": "pool_address",
          "type": "string"
        },
        {
          "internalType": "string",
          "name": "username",
          "type": "string"
        },
        {
          "internalType": "string",
          "name": "password",
          "type": "string"
        }
      ],
      "name": "setBuyContract",
      "outputs": [],
      "stateMutability": "payable",
      "type": "function",
      "payable": true
    },
    {
      "inputs": [
        {
          "internalType": "address",
          "name": "_new_contract",
          "type": "address"
        },
        {
          "internalType": "uint256",
          "name": "_limit",
          "type": "uint256"
        },
        {
          "internalType": "uint256",
          "name": "_speed",
          "type": "uint256"
        },
        {
          "internalType": "uint256",
          "name": "_length",
          "type": "uint256"
        },
        {
          "internalType": "uint256",
          "name": "_price",
          "type": "uint256"
        }
      ],
      "name": "setCreateContract",
      "outputs": [],
      "stateMutability": "nonpayable",
      "type": "function"
    }
  ],
  "bytecode": "0x60806040523480156200001157600080fd5b506040516200224338038062002243833981810160405281019062000037919062000724565b80600090805190602001906200004f92919062000520565b5060005b6000805490508110156200051857600a600182620000729190620007cd565b6200007e91906200082a565b60026000808481548110620000985762000097620009e1565b5b9060005260206000200160009054906101000a900473ffffffffffffffffffffffffffffffffffffffff1673ffffffffffffffffffffffffffffffffffffffff1673ffffffffffffffffffffffffffffffffffffffff16815260200190815260200160002081905550600a600182620001129190620007cd565b6200011e91906200082a565b60036000808481548110620001385762000137620009e1565b5b9060005260206000200160009054906101000a900473ffffffffffffffffffffffffffffffffffffffff1673ffffffffffffffffffffffffffffffffffffffff1673ffffffffffffffffffffffffffffffffffffffff16815260200190815260200160002081905550600a600182620001b29190620007cd565b620001be91906200082a565b60046000808481548110620001d857620001d7620009e1565b5b9060005260206000200160009054906101000a900473ffffffffffffffffffffffffffffffffffffffff1673ffffffffffffffffffffffffffffffffffffffff1673ffffffffffffffffffffffffffffffffffffffff16815260200190815260200160002081905550600a600182620002529190620007cd565b6200025e91906200082a565b60056000808481548110620002785762000277620009e1565b5b9060005260206000200160009054906101000a900473ffffffffffffffffffffffffffffffffffffffff1673ffffffffffffffffffffffffffffffffffffffff1673ffffffffffffffffffffffffffffffffffffffff168152602001908152602001600020819055506040518060400160405280600981526020017f617661696c61626c65000000000000000000000000000000000000000000000081525060086000808481548110620003315762000330620009e1565b5b9060005260206000200160009054906101000a900473ffffffffffffffffffffffffffffffffffffffff1673ffffffffffffffffffffffffffffffffffffffff1673ffffffffffffffffffffffffffffffffffffffff1681526020019081526020016000209080519060200190620003ab929190620005af565b503360066000808481548110620003c757620003c6620009e1565b5b9060005260206000200160009054906101000a900473ffffffffffffffffffffffffffffffffffffffff1673ffffffffffffffffffffffffffffffffffffffff1673ffffffffffffffffffffffffffffffffffffffff16815260200190815260200160002060006101000a81548173ffffffffffffffffffffffffffffffffffffffff021916908373ffffffffffffffffffffffffffffffffffffffff160217905550600160096000808481548110620004865762000485620009e1565b5b9060005260206000200160009054906101000a900473ffffffffffffffffffffffffffffffffffffffff1673ffffffffffffffffffffffffffffffffffffffff1673ffffffffffffffffffffffffffffffffffffffff16815260200190815260200160002060006101000a81548160ff02191690831515021790555080806200050f9062000935565b91505062000053565b505062000a7e565b8280548282559060005260206000209081019282156200059c579160200282015b828111156200059b5782518260006101000a81548173ffffffffffffffffffffffffffffffffffffffff021916908373ffffffffffffffffffffffffffffffffffffffff1602179055509160200191906001019062000541565b5b509050620005ab919062000640565b5090565b828054620005bd90620008c9565b90600052602060002090601f016020900481019282620005e157600085556200062d565b82601f10620005fc57805160ff19168380011785556200062d565b828001600101855582156200062d579182015b828111156200062c5782518255916020019190600101906200060f565b5b5090506200063c919062000640565b5090565b5b808211156200065b57600081600090555060010162000641565b5090565b60006200067662000670846200079e565b62000775565b905080838252602082019050828560208602820111156200069c576200069b62000a44565b5b60005b85811015620006d05781620006b58882620006da565b8452602084019350602083019250506001810190506200069f565b5050509392505050565b600081519050620006eb8162000a64565b92915050565b600082601f83011262000709576200070862000a3f565b5b81516200071b8482602086016200065f565b91505092915050565b6000602082840312156200073d576200073c62000a4e565b5b600082015167ffffffffffffffff8111156200075e576200075d62000a49565b5b6200076c84828501620006f1565b91505092915050565b60006200078162000794565b90506200078f8282620008ff565b919050565b6000604051905090565b600067ffffffffffffffff821115620007bc57620007bb62000a10565b5b602082029050602081019050919050565b6000620007da82620008bf565b9150620007e783620008bf565b9250827fffffffffffffffffffffffffffffffffffffffffffffffffffffffffffffffff038211156200081f576200081e62000983565b5b828201905092915050565b60006200083782620008bf565b91506200084483620008bf565b9250817fffffffffffffffffffffffffffffffffffffffffffffffffffffffffffffffff048311821515161562000880576200087f62000983565b5b828202905092915050565b600062000898826200089f565b9050919050565b600073ffffffffffffffffffffffffffffffffffffffff82169050919050565b6000819050919050565b60006002820490506001821680620008e257607f821691505b60208210811415620008f957620008f8620009b2565b5b50919050565b6200090a8262000a53565b810181811067ffffffffffffffff821117156200092c576200092b62000a10565b5b80604052505050565b60006200094282620008bf565b91507fffffffffffffffffffffffffffffffffffffffffffffffffffffffffffffffff82141562000978576200097762000983565b5b600182019050919050565b7f4e487b7100000000000000000000000000000000000000000000000000000000600052601160045260246000fd5b7f4e487b7100000000000000000000000000000000000000000000000000000000600052602260045260246000fd5b7f4e487b7100000000000000000000000000000000000000000000000000000000600052603260045260246000fd5b7f4e487b7100000000000000000000000000000000000000000000000000000000600052604160045260246000fd5b600080fd5b600080fd5b600080fd5b600080fd5b6000601f19601f8301169050919050565b62000a6f816200088b565b811462000a7b57600080fd5b50565b6117b58062000a8e6000396000f3fe6080604052600436106101095760003560e01c806373ee5a861161009557806399acac8c1161006457806399acac8c146103f2578063a323d29e1461041d578063aad7e3631461045a578063dff2ef6a14610497578063fe611a07146104d457610109565b806373ee5a861461031f578063754af2651461035c5780637709bc78146103785780637e50de8e146103b557610109565b806341375384116100dc578063413753841461020257806341976e091461022b5780634848b986146102685780635721e419146102a55780636935c34f146102e257610109565b80631bab58f51461010e5780631ce28e721461014b57806320c3d37a146101885780633263b545146101c5575b600080fd5b34801561011a57600080fd5b50610135600480360381019061013091906110b9565b610511565b6040516101429190611425565b60405180910390f35b34801561015757600080fd5b50610172600480360381019061016d91906110b9565b6105b1565b60405161017f9190611447565b60405180910390f35b34801561019457600080fd5b506101af60048036038101906101aa91906110b9565b6105c9565b6040516101bc9190611447565b60405180910390f35b3480156101d157600080fd5b506101ec60048036038101906101e7919061121c565b610612565b6040516101f991906113b2565b60405180910390f35b34801561020e57600080fd5b50610229600480360381019061022491906111a1565b610651565b005b34801561023757600080fd5b50610252600480360381019061024d91906110b9565b610961565b60405161025f9190611447565b60405180910390f35b34801561027457600080fd5b5061028f600480360381019061028a91906110b9565b610979565b60405161029c9190611447565b60405180910390f35b3480156102b157600080fd5b506102cc60048036038101906102c791906110b9565b6109c2565b6040516102d991906113b2565b60405180910390f35b3480156102ee57600080fd5b50610309600480360381019061030491906110b9565b6109f5565b6040516103169190611447565b60405180910390f35b34801561032b57600080fd5b50610346600480360381019061034191906110b9565b610a0d565b60405161035391906113ef565b60405180910390f35b610376600480360381019061037191906110e6565b610b39565b005b34801561038457600080fd5b5061039f600480360381019061039a91906110b9565b610c7d565b6040516103ac919061140a565b60405180910390f35b3480156103c157600080fd5b506103dc60048036038101906103d791906110b9565b610c9d565b6040516103e99190611447565b60405180910390f35b3480156103fe57600080fd5b50610407610ce6565b60405161041491906113cd565b60405180910390f35b34801561042957600080fd5b50610444600480360381019061043f91906110b9565b610df0565b60405161045191906113b2565b60405180910390f35b34801561046657600080fd5b50610481600480360381019061047c91906110b9565b610e23565b60405161048e9190611425565b60405180910390f35b3480156104a357600080fd5b506104be60048036038101906104b991906110b9565b610ef9565b6040516104cb9190611447565b60405180910390f35b3480156104e057600080fd5b506104fb60048036038101906104f691906110b9565b610f42565b6040516105089190611447565b60405180910390f35b60086020528060005260406000206000915090508054610530906115c4565b80601f016020809104026020016040519081016040528092919081815260200182805461055c906115c4565b80156105a95780601f1061057e576101008083540402835291602001916105a9565b820191906000526020600020905b81548152906001019060200180831161058c57829003601f168201915b505050505081565b60036020528060005260406000206000915090505481565b6000600460008373ffffffffffffffffffffffffffffffffffffffff1673ffffffffffffffffffffffffffffffffffffffff168152602001908152602001600020549050919050565b6000818154811061062257600080fd5b906000526020600020016000915054906101000a900473ffffffffffffffffffffffffffffffffffffffff1681565b6000859080600181540180825580915050600190039060005260206000200160009091909190916101000a81548173ffffffffffffffffffffffffffffffffffffffff021916908373ffffffffffffffffffffffffffffffffffffffff16021790555080600260008773ffffffffffffffffffffffffffffffffffffffff1673ffffffffffffffffffffffffffffffffffffffff1681526020019081526020016000208190555083600360008773ffffffffffffffffffffffffffffffffffffffff1673ffffffffffffffffffffffffffffffffffffffff1681526020019081526020016000208190555082600460008773ffffffffffffffffffffffffffffffffffffffff1673ffffffffffffffffffffffffffffffffffffffff1681526020019081526020016000208190555081600560008773ffffffffffffffffffffffffffffffffffffffff1673ffffffffffffffffffffffffffffffffffffffff168152602001908152602001600020819055506040518060400160405280600981526020017f617661696c61626c650000000000000000000000000000000000000000000000815250600860008773ffffffffffffffffffffffffffffffffffffffff1673ffffffffffffffffffffffffffffffffffffffff168152602001908152602001600020908051906020019061084c929190610f5a565b5033600660008773ffffffffffffffffffffffffffffffffffffffff1673ffffffffffffffffffffffffffffffffffffffff16815260200190815260200160002060006101000a81548173ffffffffffffffffffffffffffffffffffffffff021916908373ffffffffffffffffffffffffffffffffffffffff1602179055506001600960008773ffffffffffffffffffffffffffffffffffffffff1673ffffffffffffffffffffffffffffffffffffffff16815260200190815260200160002060006101000a81548160ff0219169083151502179055507ffcf9a0c9dedbfcd1a047374855fc36baaf605bd4f4837802a0cc938ba1b5f3028560405161095291906113b2565b60405180910390a15050505050565b60026020528060005260406000206000915090505481565b6000600360008373ffffffffffffffffffffffffffffffffffffffff1673ffffffffffffffffffffffffffffffffffffffff168152602001908152602001600020549050919050565b60076020528060005260406000206000915054906101000a900473ffffffffffffffffffffffffffffffffffffffff1681565b60046020528060005260406000206000915090505481565b610a15610fe0565b6040518060800160405280600260008573ffffffffffffffffffffffffffffffffffffffff1673ffffffffffffffffffffffffffffffffffffffff168152602001908152602001600020548152602001600360008573ffffffffffffffffffffffffffffffffffffffff1673ffffffffffffffffffffffffffffffffffffffff168152602001908152602001600020548152602001600460008573ffffffffffffffffffffffffffffffffffffffff1673ffffffffffffffffffffffffffffffffffffffff168152602001908152602001600020548152602001600560008573ffffffffffffffffffffffffffffffffffffffff1673ffffffffffffffffffffffffffffffffffffffff168152602001908152602001600020548152509050919050565b33600760008673ffffffffffffffffffffffffffffffffffffffff1673ffffffffffffffffffffffffffffffffffffffff16815260200190815260200160002060006101000a81548173ffffffffffffffffffffffffffffffffffffffff021916908373ffffffffffffffffffffffffffffffffffffffff1602179055506040518060400160405280600681526020017f6163746976650000000000000000000000000000000000000000000000000000815250600860008673ffffffffffffffffffffffffffffffffffffffff1673ffffffffffffffffffffffffffffffffffffffff1681526020019081526020016000209080519060200190610c3f929190610f5a565b507f0c00d1d6cea0bd55f7d3b6e92ef60237b117b050185fc2816c708fd45f45e5bb84604051610c6f91906113b2565b60405180910390a150505050565b60096020528060005260406000206000915054906101000a900460ff1681565b6000600560008373ffffffffffffffffffffffffffffffffffffffff1673ffffffffffffffffffffffffffffffffffffffff168152602001908152602001600020549050919050565b60606000808054905067ffffffffffffffff811115610d0857610d076116fd565b5b604051908082528060200260200182016040528015610d365781602001602082028036833780820191505090505b50905060005b600080549050811015610de85760008181548110610d5d57610d5c6116ce565b5b9060005260206000200160009054906101000a900473ffffffffffffffffffffffffffffffffffffffff16828281518110610d9b57610d9a6116ce565b5b602002602001019073ffffffffffffffffffffffffffffffffffffffff16908173ffffffffffffffffffffffffffffffffffffffff16815250508080610de090611627565b915050610d3c565b508091505090565b60066020528060005260406000206000915054906101000a900473ffffffffffffffffffffffffffffffffffffffff1681565b606080600860008473ffffffffffffffffffffffffffffffffffffffff1673ffffffffffffffffffffffffffffffffffffffff1681526020019081526020016000208054610e70906115c4565b80601f0160208091040260200160405190810160405280929190818152602001828054610e9c906115c4565b8015610ee95780601f10610ebe57610100808354040283529160200191610ee9565b820191906000526020600020905b815481529060010190602001808311610ecc57829003601f168201915b5050505050905080915050919050565b6000600260008373ffffffffffffffffffffffffffffffffffffffff1673ffffffffffffffffffffffffffffffffffffffff168152602001908152602001600020549050919050565b60056020528060005260406000206000915090505481565b828054610f66906115c4565b90600052602060002090601f016020900481019282610f885760008555610fcf565b82601f10610fa157805160ff1916838001178555610fcf565b82800160010185558215610fcf579182015b82811115610fce578251825591602001919060010190610fb3565b5b509050610fdc9190611002565b5090565b6040518060800160405280600490602082028036833780820191505090505090565b5b8082111561101b576000816000905550600101611003565b5090565b600061103261102d84611487565b611462565b90508281526020810184848401111561104e5761104d611731565b5b611059848285611582565b509392505050565b60008135905061107081611751565b92915050565b600082601f83011261108b5761108a61172c565b5b813561109b84826020860161101f565b91505092915050565b6000813590506110b381611768565b92915050565b6000602082840312156110cf576110ce61173b565b5b60006110dd84828501611061565b91505092915050565b60008060008060808587031215611100576110ff61173b565b5b600061110e87828801611061565b945050602085013567ffffffffffffffff81111561112f5761112e611736565b5b61113b87828801611076565b935050604085013567ffffffffffffffff81111561115c5761115b611736565b5b61116887828801611076565b925050606085013567ffffffffffffffff81111561118957611188611736565b5b61119587828801611076565b91505092959194509250565b600080600080600060a086880312156111bd576111bc61173b565b5b60006111cb88828901611061565b95505060206111dc888289016110a4565b94505060406111ed888289016110a4565b93505060606111fe888289016110a4565b925050608061120f888289016110a4565b9150509295509295909350565b6000602082840312156112325761123161173b565b5b6000611240848285016110a4565b91505092915050565b60006112558383611279565b60208301905092915050565b600061126d8383611394565b60208301905092915050565b6112828161153a565b82525050565b6112918161153a565b82525050565b60006112a2826114d2565b6112ac818561150d565b93506112b7836114b8565b8060005b838110156112e85781516112cf8882611249565b97506112da836114f3565b9250506001810190506112bb565b5085935050505092915050565b6112fe816114dd565b611308818461151e565b9250611313826114c8565b8060005b8381101561134457815161132b8782611261565b965061133683611500565b925050600181019050611317565b505050505050565b6113558161154c565b82525050565b6000611366826114e8565b6113708185611529565b9350611380818560208601611591565b61138981611740565b840191505092915050565b61139d81611578565b82525050565b6113ac81611578565b82525050565b60006020820190506113c76000830184611288565b92915050565b600060208201905081810360008301526113e78184611297565b905092915050565b600060808201905061140460008301846112f5565b92915050565b600060208201905061141f600083018461134c565b92915050565b6000602082019050818103600083015261143f818461135b565b905092915050565b600060208201905061145c60008301846113a3565b92915050565b600061146c61147d565b905061147882826115f6565b919050565b6000604051905090565b600067ffffffffffffffff8211156114a2576114a16116fd565b5b6114ab82611740565b9050602081019050919050565b6000819050602082019050919050565b6000819050919050565b600081519050919050565b600060049050919050565b600081519050919050565b6000602082019050919050565b6000602082019050919050565b600082825260208201905092915050565b600081905092915050565b600082825260208201905092915050565b600061154582611558565b9050919050565b60008115159050919050565b600073ffffffffffffffffffffffffffffffffffffffff82169050919050565b6000819050919050565b82818337600083830152505050565b60005b838110156115af578082015181840152602081019050611594565b838111156115be576000848401525b50505050565b600060028204905060018216806115dc57607f821691505b602082108114156115f0576115ef61169f565b5b50919050565b6115ff82611740565b810181811067ffffffffffffffff8211171561161e5761161d6116fd565b5b80604052505050565b600061163282611578565b91507fffffffffffffffffffffffffffffffffffffffffffffffffffffffffffffffff82141561166557611664611670565b5b600182019050919050565b7f4e487b7100000000000000000000000000000000000000000000000000000000600052601160045260246000fd5b7f4e487b7100000000000000000000000000000000000000000000000000000000600052602260045260246000fd5b7f4e487b7100000000000000000000000000000000000000000000000000000000600052603260045260246000fd5b7f4e487b7100000000000000000000000000000000000000000000000000000000600052604160045260246000fd5b600080fd5b600080fd5b600080fd5b600080fd5b6000601f19601f8301169050919050565b61175a8161153a565b811461176557600080fd5b50565b61177181611578565b811461177c57600080fd5b5056fea264697066735822122034dce1239dcb7c977555d9c226157d0a6c40f720448851168523dd1c7a19dcdc64736f6c63430008070033",
  "immutableReferences": {},
  "source": "//SPDX-License-Identifier: UNLICENSED\n\npragma solidity > 0.8.0;\n\ncontract TestingContract {\n  address[] public contractAddresses;\n  string contractState;\n\n  mapping(address => uint) public getPrice;\n  mapping(address => uint) public getLimit;\n  mapping(address => uint) public getSpeed;\n  mapping(address => uint) public getLength;\n  mapping(address => address) public getSeller;\n  mapping(address => address) public getBuyer;\n  mapping(address => string) public getState;\n  mapping(address => bool) public contractExists;\n\n\n  constructor(address[] memory _addresses) {\n    contractAddresses = _addresses;\n\n    for (uint _i = 0; _i < contractAddresses.length; _i++) {\n      getPrice[contractAddresses[_i]] = (_i+1)*10;\n      getLimit[contractAddresses[_i]] = (_i+1)*10;\n      getSpeed[contractAddresses[_i]] = (_i+1)*10;\n      getLength[contractAddresses[_i]] = (_i+1)*10;\n      getState[contractAddresses[_i]] = \"available\";\n      getSeller[contractAddresses[_i]] = msg.sender;\n      contractExists[contractAddresses[_i]] = true;\n    }\n  }\n\n\n  function getContractList() public view returns (address[] memory) {\n    address[] memory _addresses = new address[](contractAddresses.length);\n    for (uint _i = 0; _i < contractAddresses.length; _i++) {\n      _addresses[_i] = contractAddresses[_i];\n    }\n    return _addresses;\n  }\n\n\n  function getAddressPrice(address _address) public view returns (uint) {\n    return getPrice[_address];\n  }\n\n  function getAddressLimit(address _address) public view returns (uint) {\n    return getLimit[_address];\n  }\n\n  function getAddressSpeed(address _address) public view returns (uint) {\n    return getSpeed[_address];\n  }\n\n  function getAddressLength(address _address) public view returns (uint) {\n    return getLength[_address];\n  }\n\n  function getContractVariables(address _address) public view returns (uint[4] memory) {\n    return [\n    getPrice[_address],\n    getLimit[_address],\n    getSpeed[_address],\n    getLength[_address]\n    ];\n  }\n\n  event contractCreated(address _contractAddress);\n  event contractPurchased(address _contractAddress);\n  function getContractState(address _address) public view returns (string memory) {\n    string memory _state;\n    _state = getState[_address];\n    return _state;\n  }\n\n  //_address is the contract being purchased\n  function setBuyContract(address _address, string memory pool_address, string memory username, string memory password) public payable {\n    //require(contractExists[_address] == true, \"contract doesn't exist\");\n    getBuyer[_address] = msg.sender;\n    getState[_address] = \"active\";\n    emit contractPurchased(_address);\n  }\n\n  function setCreateContract(address _new_contract, uint _limit, uint _speed, uint _length, uint _price) public {\n    contractAddresses.push(_new_contract);\n    getPrice[_new_contract] = _price;\n    getLimit[_new_contract] = _limit;\n    getSpeed[_new_contract] = _speed;\n    getLength[_new_contract] = _length;\n    getState[_new_contract] = \"available\";\n    getSeller[_new_contract] = msg.sender;\n    contractExists[_new_contract] = true;\n    emit contractCreated(_new_contract);\n  }\n}\n\n\n\n",
  "sourcePath": "/Users/joshkean/Documents/sandbox/connect_to_aws/contracts/TestingContract.sol",
  "compiler": {
    "name": "solc",
    "version": "0.8.7+commit.e28d00a7.Emscripten.clang"
  },
  "schemaVersion": "3.4.2",
  "updatedAt": "2021-09-15T13:52:17.413Z",
  "networkType": "ethereum",
  "devdoc": {
    "kind": "dev",
    "methods": {},
    "version": 1
  },
  "userdoc": {
    "kind": "user",
    "methods": {},
    "version": 1
  }
}