{
	"contractName": "WebFacing",
	"abi": [
		{
			"inputs": [
				{
					"internalType": "address",
					"name": "_ledgerAddress",
					"type": "address"
				},
				{
					"internalType": "address",
					"name": "_cloneFactoryAddress",
					"type": "address"
				}
			],
			"stateMutability": "nonpayable",
			"type": "constructor"
		},
		{
			"anonymous": false,
			"inputs": [
				{
					"indexed": true,
					"internalType": "address",
					"name": "previousOwner",
					"type": "address"
				},
				{
					"indexed": true,
					"internalType": "address",
					"name": "newOwner",
					"type": "address"
				}
			],
			"name": "OwnershipTransferred",
			"type": "event"
		},
		{
			"anonymous": false,
			"inputs": [
				{
					"indexed": false,
					"internalType": "address",
					"name": "_contract",
					"type": "address"
				}
			],
			"name": "contractPurchase",
			"type": "event"
		},
		{
			"inputs": [],
			"name": "owner",
			"outputs": [
				{
					"internalType": "address",
					"name": "",
					"type": "address"
				}
			],
			"stateMutability": "view",
			"type": "function",
			"constant": true
		},
		{
			"inputs": [],
			"name": "renounceOwnership",
			"outputs": [],
			"stateMutability": "nonpayable",
			"type": "function"
		},
		{
			"inputs": [
				{
					"internalType": "address",
					"name": "newOwner",
					"type": "address"
				}
			],
			"name": "transferOwnership",
			"outputs": [],
			"stateMutability": "nonpayable",
			"type": "function"
		},
		{
			"inputs": [
				{
					"internalType": "uint256",
					"name": "_price",
					"type": "uint256"
				},
				{
					"internalType": "uint256",
					"name": "_limit",
					"type": "uint256"
				},
				{
					"internalType": "uint256",
					"name": "_speed",
					"type": "uint256"
				},
				{
					"internalType": "uint256",
					"name": "_length",
					"type": "uint256"
				},
				{
					"internalType": "uint256",
					"name": "_validationFee",
					"type": "uint256"
				}
			],
			"name": "setCreateRentalContract",
			"outputs": [
				{
					"internalType": "address",
					"name": "",
					"type": "address"
				}
			],
			"stateMutability": "nonpayable",
			"type": "function"
		},
		{
			"inputs": [],
			"name": "getListOfContracts",
			"outputs": [
				{
					"internalType": "address[]",
					"name": "",
					"type": "address[]"
				}
			],
			"stateMutability": "view",
			"type": "function",
			"constant": true
		},
		{
			"inputs": [
				{
					"internalType": "address",
					"name": "_contract",
					"type": "address"
				},
				{
					"internalType": "address",
					"name": "_buyer",
					"type": "address"
				},
				{
					"internalType": "address",
					"name": "_validator",
					"type": "address"
				},
				{
					"internalType": "bool",
					"name": "_withValidator",
					"type": "bool"
				},
				{
					"internalType": "string",
					"name": "_encryptedPoolData",
					"type": "string"
				}
			],
			"name": "setPurchaseContract",
			"outputs": [],
			"stateMutability": "payable",
			"type": "function",
			"payable": true
		}
	],
	"bytecode": "0x60806040523480156200001157600080fd5b506040516200112e3803806200112e8339818101604052810190620000379190620001c4565b620000576200004b620000e160201b60201c565b620000e960201b60201c565b81600160006101000a81548173ffffffffffffffffffffffffffffffffffffffff021916908373ffffffffffffffffffffffffffffffffffffffff16021790555080600260006101000a81548173ffffffffffffffffffffffffffffffffffffffff021916908373ffffffffffffffffffffffffffffffffffffffff16021790555050506200025e565b600033905090565b60008060009054906101000a900473ffffffffffffffffffffffffffffffffffffffff169050816000806101000a81548173ffffffffffffffffffffffffffffffffffffffff021916908373ffffffffffffffffffffffffffffffffffffffff1602179055508173ffffffffffffffffffffffffffffffffffffffff168173ffffffffffffffffffffffffffffffffffffffff167f8be0079c531659141344cd1fd0a4f28419497f9722a3daafe3b4186f6b6457e060405160405180910390a35050565b600081519050620001be8162000244565b92915050565b60008060408385031215620001de57620001dd6200023f565b5b6000620001ee85828601620001ad565b92505060206200020185828601620001ad565b9150509250929050565b600062000218826200021f565b9050919050565b600073ffffffffffffffffffffffffffffffffffffffff82169050919050565b600080fd5b6200024f816200020b565b81146200025b57600080fd5b50565b610ec0806200026e6000396000f3fe6080604052600436106100555760003560e01c8063081349951461005a57806341a902f914610097578063715018a6146100c257806387e4ce49146100d95780638da5cb5b146100f5578063f2fde38b14610120575b600080fd5b34801561006657600080fd5b50610081600480360381019061007c919061090c565b610149565b60405161008e9190610ab8565b60405180910390f35b3480156100a357600080fd5b506100ac61029f565b6040516100b99190610ad3565b60405180910390f35b3480156100ce57600080fd5b506100d761034b565b005b6100f360048036038101906100ee919061082c565b6103d3565b005b34801561010157600080fd5b5061010a610483565b6040516101179190610ab8565b60405180910390f35b34801561012c57600080fd5b50610147600480360381019061014291906107d2565b6104ac565b005b600080600260009054906101000a900473ffffffffffffffffffffffffffffffffffffffff1673ffffffffffffffffffffffffffffffffffffffff16633e45cccd8888888888336040518763ffffffff1660e01b81526004016101b196959493929190610b81565b602060405180830381600087803b1580156101cb57600080fd5b505af11580156101df573d6000803e3d6000fd5b505050506040513d601f19601f8201168201806040525081019061020391906107ff565b9050600160009054906101000a900473ffffffffffffffffffffffffffffffffffffffff1673ffffffffffffffffffffffffffffffffffffffff1663015e9d4b826040518263ffffffff1660e01b81526004016102609190610ab8565b600060405180830381600087803b15801561027a57600080fd5b505af115801561028e573d6000803e3d6000fd5b505050508091505095945050505050565b6060600160009054906101000a900473ffffffffffffffffffffffffffffffffffffffff1673ffffffffffffffffffffffffffffffffffffffff1663d70f8d6e6040518163ffffffff1660e01b815260040160006040518083038186803b15801561030957600080fd5b505afa15801561031d573d6000803e3d6000fd5b505050506040513d6000823e3d601f19601f8201168201806040525081019061034691906108c3565b905090565b6103536105a4565b73ffffffffffffffffffffffffffffffffffffffff16610371610483565b73ffffffffffffffffffffffffffffffffffffffff16146103c7576040517f08c379a00000000000000000000000000000000000000000000000000000000081526004016103be90610b61565b60405180910390fd5b6103d160006105ac565b565b8473ffffffffffffffffffffffffffffffffffffffff16638331ed4934838787876040518663ffffffff1660e01b81526004016104139493929190610af5565b6000604051808303818588803b15801561042c57600080fd5b505af1158015610440573d6000803e3d6000fd5b50505050507f0900ee509329f0c587c70faa0224f4e63bc738c9756346744a0c016ee96f1704856040516104749190610ab8565b60405180910390a15050505050565b60008060009054906101000a900473ffffffffffffffffffffffffffffffffffffffff16905090565b6104b46105a4565b73ffffffffffffffffffffffffffffffffffffffff166104d2610483565b73ffffffffffffffffffffffffffffffffffffffff1614610528576040517f08c379a000000000000000000000000000000000000000000000000000000000815260040161051f90610b61565b60405180910390fd5b600073ffffffffffffffffffffffffffffffffffffffff168173ffffffffffffffffffffffffffffffffffffffff161415610598576040517f08c379a000000000000000000000000000000000000000000000000000000000815260040161058f90610b41565b60405180910390fd5b6105a1816105ac565b50565b600033905090565b60008060009054906101000a900473ffffffffffffffffffffffffffffffffffffffff169050816000806101000a81548173ffffffffffffffffffffffffffffffffffffffff021916908373ffffffffffffffffffffffffffffffffffffffff1602179055508173ffffffffffffffffffffffffffffffffffffffff168173ffffffffffffffffffffffffffffffffffffffff167f8be0079c531659141344cd1fd0a4f28419497f9722a3daafe3b4186f6b6457e060405160405180910390a35050565b600061068361067e84610c07565b610be2565b905080838252602082019050828560208602820111156106a6576106a5610da8565b5b60005b858110156106d657816106bc8882610737565b8452602084019350602083019250506001810190506106a9565b5050509392505050565b60006106f36106ee84610c33565b610be2565b90508281526020810184848401111561070f5761070e610dad565b5b61071a848285610d01565b509392505050565b60008135905061073181610e45565b92915050565b60008151905061074681610e45565b92915050565b600082601f83011261076157610760610da3565b5b8151610771848260208601610670565b91505092915050565b60008135905061078981610e5c565b92915050565b600082601f8301126107a4576107a3610da3565b5b81356107b48482602086016106e0565b91505092915050565b6000813590506107cc81610e73565b92915050565b6000602082840312156107e8576107e7610db7565b5b60006107f684828501610722565b91505092915050565b60006020828403121561081557610814610db7565b5b600061082384828501610737565b91505092915050565b600080600080600060a0868803121561084857610847610db7565b5b600061085688828901610722565b955050602061086788828901610722565b945050604061087888828901610722565b93505060606108898882890161077a565b925050608086013567ffffffffffffffff8111156108aa576108a9610db2565b5b6108b68882890161078f565b9150509295509295909350565b6000602082840312156108d9576108d8610db7565b5b600082015167ffffffffffffffff8111156108f7576108f6610db2565b5b6109038482850161074c565b91505092915050565b600080600080600060a0868803121561092857610927610db7565b5b6000610936888289016107bd565b9550506020610947888289016107bd565b9450506040610958888289016107bd565b9350506060610969888289016107bd565b925050608061097a888289016107bd565b9150509295509295909350565b6000610993838361099f565b60208301905092915050565b6109a881610cb9565b82525050565b6109b781610cb9565b82525050565b60006109c882610c74565b6109d28185610c97565b93506109dd83610c64565b8060005b83811015610a0e5781516109f58882610987565b9750610a0083610c8a565b9250506001810190506109e1565b5085935050505092915050565b610a2481610ccb565b82525050565b6000610a3582610c7f565b610a3f8185610ca8565b9350610a4f818560208601610d10565b610a5881610dbc565b840191505092915050565b6000610a70602683610ca8565b9150610a7b82610dcd565b604082019050919050565b6000610a93602083610ca8565b9150610a9e82610e1c565b602082019050919050565b610ab281610cf7565b82525050565b6000602082019050610acd60008301846109ae565b92915050565b60006020820190508181036000830152610aed81846109bd565b905092915050565b60006080820190508181036000830152610b0f8187610a2a565b9050610b1e60208301866109ae565b610b2b60408301856109ae565b610b386060830184610a1b565b95945050505050565b60006020820190508181036000830152610b5a81610a63565b9050919050565b60006020820190508181036000830152610b7a81610a86565b9050919050565b600060c082019050610b966000830189610aa9565b610ba36020830188610aa9565b610bb06040830187610aa9565b610bbd6060830186610aa9565b610bca6080830185610aa9565b610bd760a08301846109ae565b979650505050505050565b6000610bec610bfd565b9050610bf88282610d43565b919050565b6000604051905090565b600067ffffffffffffffff821115610c2257610c21610d74565b5b602082029050602081019050919050565b600067ffffffffffffffff821115610c4e57610c4d610d74565b5b610c5782610dbc565b9050602081019050919050565b6000819050602082019050919050565b600081519050919050565b600081519050919050565b6000602082019050919050565b600082825260208201905092915050565b600082825260208201905092915050565b6000610cc482610cd7565b9050919050565b60008115159050919050565b600073ffffffffffffffffffffffffffffffffffffffff82169050919050565b6000819050919050565b82818337600083830152505050565b60005b83811015610d2e578082015181840152602081019050610d13565b83811115610d3d576000848401525b50505050565b610d4c82610dbc565b810181811067ffffffffffffffff82111715610d6b57610d6a610d74565b5b80604052505050565b7f4e487b7100000000000000000000000000000000000000000000000000000000600052604160045260246000fd5b600080fd5b600080fd5b600080fd5b600080fd5b600080fd5b6000601f19601f8301169050919050565b7f4f776e61626c653a206e6577206f776e657220697320746865207a65726f206160008201527f6464726573730000000000000000000000000000000000000000000000000000602082015250565b7f4f776e61626c653a2063616c6c6572206973206e6f7420746865206f776e6572600082015250565b610e4e81610cb9565b8114610e5957600080fd5b50565b610e6581610ccb565b8114610e7057600080fd5b50565b610e7c81610cf7565b8114610e8757600080fd5b5056fea264697066735822122069933adb1d75c2ea413aac84949d092d854cc7a6a70122a03b4a7abbf5cfda6364736f6c63430008070033",
	"immutableReferences": {},
	"source": "//SPDX-License-Identifier: MIT\n\npragma solidity >0.8.0;\n\nimport './Ledger.sol';\nimport './CloneFactory.sol';\nimport './Implementation.sol';\nimport \"@openzeppelin/contracts/access/Ownable.sol\";\n\n/// @title WebFacing\n/// @author Josh Kean (Lumerin)\n/// @notice Additional functions may be added as project needs evolve\n\ncontract WebFacing is Ownable{\n  Ledger l; //contract object for the ledger\n  CloneFactory cf; //contract object for the clone factory\n\n  constructor(address _ledgerAddress, address _cloneFactoryAddress) {\n    l = Ledger(_ledgerAddress); //accesses the deployed ledger smart contract\n    cf = CloneFactory(_cloneFactoryAddress); //accesses the deployed ledger smart contract\n  }\n\n  //event which is listened to by the proxy server and by the validator\n  event contractPurchase(address _contract);\n\n  function setCreateRentalContract(\n    uint _price, \n    uint _limit, \n    uint _speed, \n    uint _length,\n    uint _validationFee\n  ) \n    external returns (address){\n    address newAddress = cf.setCreateNewRentalContract(_price, _limit, _speed, _length, _validationFee, msg.sender); \n    l.setAddContractToStorage(newAddress); \n    return newAddress;\n  }\n\n\n  function getListOfContracts() public view returns (address[] memory) {\n    return l.getListOfContractsLedger();\n  }\n\n  \n  function setPurchaseContract(address _contract, \n                              address _buyer, \n                              address _validator, \n                              bool _withValidator, \n                              string memory _encryptedPoolData\n\t\t\t      )\n    public payable { \n    Implementation(_contract).setPurchaseContract{value:msg.value}(_encryptedPoolData, _buyer, _validator, _withValidator); \n    // add in function call to ledger to update contracts buyer variable\n    emit contractPurchase(_contract); \n  }\n}\n",
	"sourcePath": "/Users/joshkean/Documents/deployments/support_contracts/validator/contracts/WebFacing.sol",
	"compiler": {
		"name": "solc",
		"version": "0.8.7+commit.e28d00a7.Emscripten.clang"
	},
	"schemaVersion": "3.4.2",
	"updatedAt": "2021-11-04T00:09:17.674Z",
	"networkType": "ethereum",
	"devdoc": {
		"author": "Josh Kean (Lumerin)",
		"kind": "dev",
		"methods": {
			"owner()": {
				"details": "Returns the address of the current owner."
			},
			"renounceOwnership()": {
				"details": "Leaves the contract without owner. It will not be possible to call `onlyOwner` functions anymore. Can only be called by the current owner. NOTE: Renouncing ownership will leave the contract without an owner, thereby removing any functionality that is only available to the owner."
			},
			"transferOwnership(address)": {
				"details": "Transfers ownership of the contract to a new account (`newOwner`). Can only be called by the current owner."
			}
		},
		"title": "WebFacing",
		"version": 1
	},
	"userdoc": {
		"kind": "user",
		"methods": {},
		"notice": "Additional functions may be added as project needs evolve",
		"version": 1
	}
}