{
	"contractName": "WebFacing",
	"abi": [
		{
			"inputs": [
				{
					"internalType": "address",
					"name": "_ledgerAddress",
					"type": "address"
				},
				{
					"internalType": "address",
					"name": "_cloneFactoryAddress",
					"type": "address"
				}
			],
			"stateMutability": "nonpayable",
			"type": "constructor"
		},
		{
			"anonymous": false,
			"inputs": [
				{
					"indexed": true,
					"internalType": "address",
					"name": "previousOwner",
					"type": "address"
				},
				{
					"indexed": true,
					"internalType": "address",
					"name": "newOwner",
					"type": "address"
				}
			],
			"name": "OwnershipTransferred",
			"type": "event"
		},
		{
			"anonymous": false,
			"inputs": [
				{
					"indexed": false,
					"internalType": "address",
					"name": "_contract",
					"type": "address"
				}
			],
			"name": "contractPurchase",
			"type": "event"
		},
		{
			"inputs": [],
			"name": "owner",
			"outputs": [
				{
					"internalType": "address",
					"name": "",
					"type": "address"
				}
			],
			"stateMutability": "view",
			"type": "function",
			"constant": true
		},
		{
			"inputs": [],
			"name": "renounceOwnership",
			"outputs": [],
			"stateMutability": "nonpayable",
			"type": "function"
		},
		{
			"inputs": [
				{
					"internalType": "address",
					"name": "newOwner",
					"type": "address"
				}
			],
			"name": "transferOwnership",
			"outputs": [],
			"stateMutability": "nonpayable",
			"type": "function"
		},
		{
			"inputs": [
				{
					"internalType": "uint256",
					"name": "_price",
					"type": "uint256"
				},
				{
					"internalType": "uint256",
					"name": "_limit",
					"type": "uint256"
				},
				{
					"internalType": "uint256",
					"name": "_speed",
					"type": "uint256"
				},
				{
					"internalType": "uint256",
					"name": "_length",
					"type": "uint256"
				},
				{
					"internalType": "uint256",
					"name": "_validationFee",
					"type": "uint256"
				}
			],
			"name": "setCreateRentalContract",
			"outputs": [
				{
					"internalType": "address",
					"name": "",
					"type": "address"
				}
			],
			"stateMutability": "nonpayable",
			"type": "function"
		},
		{
			"inputs": [],
			"name": "getListOfContracts",
			"outputs": [
				{
					"internalType": "address[]",
					"name": "",
					"type": "address[]"
				}
			],
			"stateMutability": "view",
			"type": "function",
			"constant": true
		},
		{
			"inputs": [
				{
					"internalType": "address",
					"name": "_contract",
					"type": "address"
				},
				{
					"internalType": "address",
					"name": "_buyer",
					"type": "address"
				},
				{
					"internalType": "address",
					"name": "_validator",
					"type": "address"
				},
				{
					"internalType": "bool",
					"name": "_withValidator",
					"type": "bool"
				},
				{
					"internalType": "string",
					"name": "_ip_address",
					"type": "string"
				},
				{
					"internalType": "string",
					"name": "_username",
					"type": "string"
				},
				{
					"internalType": "string",
					"name": "_password",
					"type": "string"
				}
			],
			"name": "setPurchaseContract",
			"outputs": [],
			"stateMutability": "payable",
			"type": "function",
			"payable": true
		},
		{
			"inputs": [
				{
					"internalType": "address",
					"name": "_ledgerAddress",
					"type": "address"
				}
			],
			"name": "setUpdateLedgerAddress",
			"outputs": [],
			"stateMutability": "nonpayable",
			"type": "function"
		},
		{
			"inputs": [
				{
					"internalType": "address",
					"name": "_cfAddress",
					"type": "address"
				}
			],
			"name": "setUpdateCloneFactoryAddress",
			"outputs": [],
			"stateMutability": "nonpayable",
			"type": "function"
		}
	],
	"bytecode": "0x60806040523480156200001157600080fd5b50604051620013b4380380620013b48339818101604052810190620000379190620001c4565b620000576200004b620000e160201b60201c565b620000e960201b60201c565b81600160006101000a81548173ffffffffffffffffffffffffffffffffffffffff021916908373ffffffffffffffffffffffffffffffffffffffff16021790555080600260006101000a81548173ffffffffffffffffffffffffffffffffffffffff021916908373ffffffffffffffffffffffffffffffffffffffff16021790555050506200025e565b600033905090565b60008060009054906101000a900473ffffffffffffffffffffffffffffffffffffffff169050816000806101000a81548173ffffffffffffffffffffffffffffffffffffffff021916908373ffffffffffffffffffffffffffffffffffffffff1602179055508173ffffffffffffffffffffffffffffffffffffffff168173ffffffffffffffffffffffffffffffffffffffff167f8be0079c531659141344cd1fd0a4f28419497f9722a3daafe3b4186f6b6457e060405160405180910390a35050565b600081519050620001be8162000244565b92915050565b60008060408385031215620001de57620001dd6200023f565b5b6000620001ee85828601620001ad565b92505060206200020185828601620001ad565b9150509250929050565b600062000218826200021f565b9050919050565b600073ffffffffffffffffffffffffffffffffffffffff82169050919050565b600080fd5b6200024f816200020b565b81146200025b57600080fd5b50565b611146806200026e6000396000f3fe60806040526004361061007b5760003560e01c8063515e104d1161004e578063515e104d1461012d578063715018a6146101565780638da5cb5b1461016d578063f2fde38b146101985761007b565b806308134995146100805780633ca58f96146100bd57806341a902f9146100e65780634b40a87414610111575b600080fd5b34801561008c57600080fd5b506100a760048036038101906100a29190610b68565b6101c1565b6040516100b49190610d14565b60405180910390f35b3480156100c957600080fd5b506100e460048036038101906100df91906109cf565b610317565b005b3480156100f257600080fd5b506100fb6103d7565b6040516101089190610d2f565b60405180910390f35b61012b60048036038101906101269190610a29565b610483565b005b34801561013957600080fd5b50610154600480360381019061014f91906109cf565b610538565b005b34801561016257600080fd5b5061016b6105f8565b005b34801561017957600080fd5b50610182610680565b60405161018f9190610d14565b60405180910390f35b3480156101a457600080fd5b506101bf60048036038101906101ba91906109cf565b6106a9565b005b600080600260009054906101000a900473ffffffffffffffffffffffffffffffffffffffff1673ffffffffffffffffffffffffffffffffffffffff16633e45cccd8888888888336040518763ffffffff1660e01b815260040161022996959493929190610e07565b602060405180830381600087803b15801561024357600080fd5b505af1158015610257573d6000803e3d6000fd5b505050506040513d601f19601f8201168201806040525081019061027b91906109fc565b9050600160009054906101000a900473ffffffffffffffffffffffffffffffffffffffff1673ffffffffffffffffffffffffffffffffffffffff1663015e9d4b826040518263ffffffff1660e01b81526004016102d89190610d14565b600060405180830381600087803b1580156102f257600080fd5b505af1158015610306573d6000803e3d6000fd5b505050508091505095945050505050565b61031f6107a1565b73ffffffffffffffffffffffffffffffffffffffff1661033d610680565b73ffffffffffffffffffffffffffffffffffffffff1614610393576040517f08c379a000000000000000000000000000000000000000000000000000000000815260040161038a90610de7565b60405180910390fd5b80600260006101000a81548173ffffffffffffffffffffffffffffffffffffffff021916908373ffffffffffffffffffffffffffffffffffffffff16021790555050565b6060600160009054906101000a900473ffffffffffffffffffffffffffffffffffffffff1673ffffffffffffffffffffffffffffffffffffffff1663d70f8d6e6040518163ffffffff1660e01b815260040160006040518083038186803b15801561044157600080fd5b505afa158015610455573d6000803e3d6000fd5b505050506040513d6000823e3d601f19601f8201168201806040525081019061047e9190610b1f565b905090565b8673ffffffffffffffffffffffffffffffffffffffff166311afdfc98484848a8a8a6040518763ffffffff1660e01b81526004016104c696959493929190610d51565b600060405180830381600087803b1580156104e057600080fd5b505af11580156104f4573d6000803e3d6000fd5b505050507f0900ee509329f0c587c70faa0224f4e63bc738c9756346744a0c016ee96f1704876040516105279190610d14565b60405180910390a150505050505050565b6105406107a1565b73ffffffffffffffffffffffffffffffffffffffff1661055e610680565b73ffffffffffffffffffffffffffffffffffffffff16146105b4576040517f08c379a00000000000000000000000000000000000000000000000000000000081526004016105ab90610de7565b60405180910390fd5b80600160006101000a81548173ffffffffffffffffffffffffffffffffffffffff021916908373ffffffffffffffffffffffffffffffffffffffff16021790555050565b6106006107a1565b73ffffffffffffffffffffffffffffffffffffffff1661061e610680565b73ffffffffffffffffffffffffffffffffffffffff1614610674576040517f08c379a000000000000000000000000000000000000000000000000000000000815260040161066b90610de7565b60405180910390fd5b61067e60006107a9565b565b60008060009054906101000a900473ffffffffffffffffffffffffffffffffffffffff16905090565b6106b16107a1565b73ffffffffffffffffffffffffffffffffffffffff166106cf610680565b73ffffffffffffffffffffffffffffffffffffffff1614610725576040517f08c379a000000000000000000000000000000000000000000000000000000000815260040161071c90610de7565b60405180910390fd5b600073ffffffffffffffffffffffffffffffffffffffff168173ffffffffffffffffffffffffffffffffffffffff161415610795576040517f08c379a000000000000000000000000000000000000000000000000000000000815260040161078c90610dc7565b60405180910390fd5b61079e816107a9565b50565b600033905090565b60008060009054906101000a900473ffffffffffffffffffffffffffffffffffffffff169050816000806101000a81548173ffffffffffffffffffffffffffffffffffffffff021916908373ffffffffffffffffffffffffffffffffffffffff1602179055508173ffffffffffffffffffffffffffffffffffffffff168173ffffffffffffffffffffffffffffffffffffffff167f8be0079c531659141344cd1fd0a4f28419497f9722a3daafe3b4186f6b6457e060405160405180910390a35050565b600061088061087b84610e8d565b610e68565b905080838252602082019050828560208602820111156108a3576108a261102e565b5b60005b858110156108d357816108b98882610934565b8452602084019350602083019250506001810190506108a6565b5050509392505050565b60006108f06108eb84610eb9565b610e68565b90508281526020810184848401111561090c5761090b611033565b5b610917848285610f87565b509392505050565b60008135905061092e816110cb565b92915050565b600081519050610943816110cb565b92915050565b600082601f83011261095e5761095d611029565b5b815161096e84826020860161086d565b91505092915050565b600081359050610986816110e2565b92915050565b600082601f8301126109a1576109a0611029565b5b81356109b18482602086016108dd565b91505092915050565b6000813590506109c9816110f9565b92915050565b6000602082840312156109e5576109e461103d565b5b60006109f38482850161091f565b91505092915050565b600060208284031215610a1257610a1161103d565b5b6000610a2084828501610934565b91505092915050565b600080600080600080600060e0888a031215610a4857610a4761103d565b5b6000610a568a828b0161091f565b9750506020610a678a828b0161091f565b9650506040610a788a828b0161091f565b9550506060610a898a828b01610977565b945050608088013567ffffffffffffffff811115610aaa57610aa9611038565b5b610ab68a828b0161098c565b93505060a088013567ffffffffffffffff811115610ad757610ad6611038565b5b610ae38a828b0161098c565b92505060c088013567ffffffffffffffff811115610b0457610b03611038565b5b610b108a828b0161098c565b91505092959891949750929550565b600060208284031215610b3557610b3461103d565b5b600082015167ffffffffffffffff811115610b5357610b52611038565b5b610b5f84828501610949565b91505092915050565b600080600080600060a08688031215610b8457610b8361103d565b5b6000610b92888289016109ba565b9550506020610ba3888289016109ba565b9450506040610bb4888289016109ba565b9350506060610bc5888289016109ba565b9250506080610bd6888289016109ba565b9150509295509295909350565b6000610bef8383610bfb565b60208301905092915050565b610c0481610f3f565b82525050565b610c1381610f3f565b82525050565b6000610c2482610efa565b610c2e8185610f1d565b9350610c3983610eea565b8060005b83811015610c6a578151610c518882610be3565b9750610c5c83610f10565b925050600181019050610c3d565b5085935050505092915050565b610c8081610f51565b82525050565b6000610c9182610f05565b610c9b8185610f2e565b9350610cab818560208601610f96565b610cb481611042565b840191505092915050565b6000610ccc602683610f2e565b9150610cd782611053565b604082019050919050565b6000610cef602083610f2e565b9150610cfa826110a2565b602082019050919050565b610d0e81610f7d565b82525050565b6000602082019050610d296000830184610c0a565b92915050565b60006020820190508181036000830152610d498184610c19565b905092915050565b600060c0820190508181036000830152610d6b8189610c86565b90508181036020830152610d7f8188610c86565b90508181036040830152610d938187610c86565b9050610da26060830186610c0a565b610daf6080830185610c0a565b610dbc60a0830184610c77565b979650505050505050565b60006020820190508181036000830152610de081610cbf565b9050919050565b60006020820190508181036000830152610e0081610ce2565b9050919050565b600060c082019050610e1c6000830189610d05565b610e296020830188610d05565b610e366040830187610d05565b610e436060830186610d05565b610e506080830185610d05565b610e5d60a0830184610c0a565b979650505050505050565b6000610e72610e83565b9050610e7e8282610fc9565b919050565b6000604051905090565b600067ffffffffffffffff821115610ea857610ea7610ffa565b5b602082029050602081019050919050565b600067ffffffffffffffff821115610ed457610ed3610ffa565b5b610edd82611042565b9050602081019050919050565b6000819050602082019050919050565b600081519050919050565b600081519050919050565b6000602082019050919050565b600082825260208201905092915050565b600082825260208201905092915050565b6000610f4a82610f5d565b9050919050565b60008115159050919050565b600073ffffffffffffffffffffffffffffffffffffffff82169050919050565b6000819050919050565b82818337600083830152505050565b60005b83811015610fb4578082015181840152602081019050610f99565b83811115610fc3576000848401525b50505050565b610fd282611042565b810181811067ffffffffffffffff82111715610ff157610ff0610ffa565b5b80604052505050565b7f4e487b7100000000000000000000000000000000000000000000000000000000600052604160045260246000fd5b600080fd5b600080fd5b600080fd5b600080fd5b600080fd5b6000601f19601f8301169050919050565b7f4f776e61626c653a206e6577206f776e657220697320746865207a65726f206160008201527f6464726573730000000000000000000000000000000000000000000000000000602082015250565b7f4f776e61626c653a2063616c6c6572206973206e6f7420746865206f776e6572600082015250565b6110d481610f3f565b81146110df57600080fd5b50565b6110eb81610f51565b81146110f657600080fd5b50565b61110281610f7d565b811461110d57600080fd5b5056fea26469706673582212206ce51549e469616b5e68a92ea5c8fe286f4f8ac6dba7144fe979fabac9aaadbb64736f6c63430008070033",
	"immutableReferences": {},
	"source": "//SPDX-License-Identifier: MIT\n\npragma solidity >0.8.0;\n\nimport './Ledger.sol';\nimport './CloneFactory.sol';\nimport './Implementation.sol';\nimport \"@openzeppelin/contracts/access/Ownable.sol\";\n\n/// @title WebFacing\n/// @author Josh Kean (Lumerin)\n/// @notice Additional functions may be added as project needs evolve\n\ncontract WebFacing is Ownable{\n  // top level smart contract which will provide access to the \n  // entire smart contract deployment ecosystem\n\n  Ledger l; //contract object for the ledger\n  CloneFactory cf; //contract object for the clone factory\n\n  constructor(address _ledgerAddress, address _cloneFactoryAddress) {\n    l = Ledger(_ledgerAddress); //accesses the deployed ledger smart contract\n    cf = CloneFactory(_cloneFactoryAddress); //accesses the deployed ledger smart contract\n  }\n\n  //event which is listened to by the proxy server and by the validator\n  event contractPurchase(address _contract);\n\n  function setCreateRentalContract(\n    uint _price, \n    uint _limit, \n    uint _speed, \n    uint _length,\n    uint _validationFee\n  ) \n    external returns (address){\n    address newAddress = cf.setCreateNewRentalContract(_price, _limit, _speed, _length, _validationFee, msg.sender); \n    l.setAddContractToStorage(newAddress); \n    return newAddress;\n  }\n\n\n  function getListOfContracts() public view returns (address[] memory) {\n    return l.getListOfContractsLedger();\n  }\n\n  \n  function setPurchaseContract(address _contract, \n                              address _buyer, \n                              address _validator, \n                              bool _withValidator, \n                              string memory _ip_address, \n                              string memory _username, \n                              string memory _password) \n    public payable { \n    Implementation(_contract).setPurchaseContract(_ip_address, _username, _password, _buyer, _validator, _withValidator); \n    // add in function call to ledger to update contracts buyer variable\n    emit contractPurchase(_contract); \n  }\n\n  function setUpdateLedgerAddress(address _ledgerAddress) public onlyOwner {\n    l = Ledger(_ledgerAddress);\n  }\n\n\n  function setUpdateCloneFactoryAddress(address _cfAddress) public onlyOwner {\n    cf = CloneFactory(_cfAddress);\n  }\n}\n",
	"sourcePath": "/Users/joshkean/Documents/deployments/support_contracts/validator/contracts/WebFacing.sol",
	"compiler": {
		"name": "solc",
		"version": "0.8.7+commit.e28d00a7.Emscripten.clang"
	},
	"schemaVersion": "3.4.2",
	"updatedAt": "2021-10-18T17:34:20.161Z",
	"networkType": "ethereum",
	"devdoc": {
		"author": "Josh Kean (Lumerin)",
		"kind": "dev",
		"methods": {
			"owner()": {
				"details": "Returns the address of the current owner."
			},
			"renounceOwnership()": {
				"details": "Leaves the contract without owner. It will not be possible to call `onlyOwner` functions anymore. Can only be called by the current owner. NOTE: Renouncing ownership will leave the contract without an owner, thereby removing any functionality that is only available to the owner."
			},
			"transferOwnership(address)": {
				"details": "Transfers ownership of the contract to a new account (`newOwner`). Can only be called by the current owner."
			}
		},
		"title": "WebFacing",
		"version": 1
	},
	"userdoc": {
		"kind": "user",
		"methods": {},
		"notice": "Additional functions may be added as project needs evolve",
		"version": 1
	}
}